{
	"contracts/SafeClub.sol": {
		"SafeClub": {
			"abi": [
				{
					"inputs": [
						{
							"internalType": "uint256",
							"name": "_quorum",
							"type": "uint256"
						}
					],
					"stateMutability": "nonpayable",
					"type": "constructor"
				},
				{
					"inputs": [
						{
							"internalType": "address",
							"name": "owner",
							"type": "address"
						}
					],
					"name": "OwnableInvalidOwner",
					"type": "error"
				},
				{
					"inputs": [
						{
							"internalType": "address",
							"name": "account",
							"type": "address"
						}
					],
					"name": "OwnableUnauthorizedAccount",
					"type": "error"
				},
				{
					"inputs": [],
					"name": "ReentrancyGuardReentrantCall",
					"type": "error"
				},
				{
					"anonymous": false,
					"inputs": [
						{
							"indexed": false,
							"internalType": "uint256",
							"name": "id",
							"type": "uint256"
						}
					],
					"name": "Executed",
					"type": "event"
				},
				{
					"anonymous": false,
					"inputs": [
						{
							"indexed": false,
							"internalType": "address",
							"name": "member",
							"type": "address"
						}
					],
					"name": "MemberAdded",
					"type": "event"
				},
				{
					"anonymous": false,
					"inputs": [
						{
							"indexed": false,
							"internalType": "address",
							"name": "member",
							"type": "address"
						}
					],
					"name": "MemberRemoved",
					"type": "event"
				},
				{
					"anonymous": false,
					"inputs": [
						{
							"indexed": true,
							"internalType": "address",
							"name": "previousOwner",
							"type": "address"
						},
						{
							"indexed": true,
							"internalType": "address",
							"name": "newOwner",
							"type": "address"
						}
					],
					"name": "OwnershipTransferred",
					"type": "event"
				},
				{
					"anonymous": false,
					"inputs": [
						{
							"indexed": false,
							"internalType": "uint256",
							"name": "id",
							"type": "uint256"
						},
						{
							"indexed": false,
							"internalType": "address",
							"name": "to",
							"type": "address"
						},
						{
							"indexed": false,
							"internalType": "uint256",
							"name": "amount",
							"type": "uint256"
						},
						{
							"indexed": false,
							"internalType": "string",
							"name": "description",
							"type": "string"
						}
					],
					"name": "ProposalCreated",
					"type": "event"
				},
				{
					"anonymous": false,
					"inputs": [
						{
							"indexed": false,
							"internalType": "uint256",
							"name": "id",
							"type": "uint256"
						},
						{
							"indexed": false,
							"internalType": "address",
							"name": "voter",
							"type": "address"
						},
						{
							"indexed": false,
							"internalType": "bool",
							"name": "support",
							"type": "bool"
						}
					],
					"name": "Voted",
					"type": "event"
				},
				{
					"inputs": [
						{
							"internalType": "address",
							"name": "_m",
							"type": "address"
						}
					],
					"name": "addMember",
					"outputs": [],
					"stateMutability": "nonpayable",
					"type": "function"
				},
				{
					"inputs": [
						{
							"internalType": "address payable",
							"name": "_to",
							"type": "address"
						},
						{
							"internalType": "uint256",
							"name": "_amount",
							"type": "uint256"
						},
						{
							"internalType": "string",
							"name": "_description",
							"type": "string"
						},
						{
							"internalType": "uint256",
							"name": "_duration",
							"type": "uint256"
						}
					],
					"name": "createProposal",
					"outputs": [],
					"stateMutability": "nonpayable",
					"type": "function"
				},
				{
					"inputs": [],
					"name": "deposit",
					"outputs": [],
					"stateMutability": "payable",
					"type": "function"
				},
				{
					"inputs": [
						{
							"internalType": "uint256",
							"name": "_id",
							"type": "uint256"
						}
					],
					"name": "execute",
					"outputs": [],
					"stateMutability": "nonpayable",
					"type": "function"
				},
				{
					"inputs": [],
					"name": "getMembers",
					"outputs": [
						{
							"internalType": "address[]",
							"name": "",
							"type": "address[]"
						}
					],
					"stateMutability": "view",
					"type": "function"
				},
				{
					"inputs": [
						{
							"internalType": "address",
							"name": "",
							"type": "address"
						}
					],
					"name": "isMember",
					"outputs": [
						{
							"internalType": "bool",
							"name": "",
							"type": "bool"
						}
					],
					"stateMutability": "view",
					"type": "function"
				},
				{
					"inputs": [],
					"name": "owner",
					"outputs": [
						{
							"internalType": "address",
							"name": "",
							"type": "address"
						}
					],
					"stateMutability": "view",
					"type": "function"
				},
				{
					"inputs": [],
					"name": "proposalCount",
					"outputs": [
						{
							"internalType": "uint256",
							"name": "",
							"type": "uint256"
						}
					],
					"stateMutability": "view",
					"type": "function"
				},
				{
					"inputs": [],
					"name": "quorum",
					"outputs": [
						{
							"internalType": "uint256",
							"name": "",
							"type": "uint256"
						}
					],
					"stateMutability": "view",
					"type": "function"
				},
				{
					"inputs": [
						{
							"internalType": "address",
							"name": "_m",
							"type": "address"
						}
					],
					"name": "removeMember",
					"outputs": [],
					"stateMutability": "nonpayable",
					"type": "function"
				},
				{
					"inputs": [],
					"name": "renounceOwnership",
					"outputs": [],
					"stateMutability": "nonpayable",
					"type": "function"
				},
				{
					"inputs": [
						{
							"internalType": "address",
							"name": "newOwner",
							"type": "address"
						}
					],
					"name": "transferOwnership",
					"outputs": [],
					"stateMutability": "nonpayable",
					"type": "function"
				},
				{
					"inputs": [
						{
							"internalType": "uint256",
							"name": "_id",
							"type": "uint256"
						},
						{
							"internalType": "bool",
							"name": "support",
							"type": "bool"
						}
					],
					"name": "vote",
					"outputs": [],
					"stateMutability": "nonpayable",
					"type": "function"
				},
				{
					"stateMutability": "payable",
					"type": "receive"
				}
			],
			"devdoc": {
				"errors": {
					"OwnableInvalidOwner(address)": [
						{
							"details": "The owner is not a valid owner account. (eg. `address(0)`)"
						}
					],
					"OwnableUnauthorizedAccount(address)": [
						{
							"details": "The caller account is not authorized to perform an operation."
						}
					],
					"ReentrancyGuardReentrantCall()": [
						{
							"details": "Unauthorized reentrant call."
						}
					]
				},
				"kind": "dev",
				"methods": {
					"owner()": {
						"details": "Returns the address of the current owner."
					},
					"renounceOwnership()": {
						"details": "Leaves the contract without owner. It will not be possible to call `onlyOwner` functions. Can only be called by the current owner. NOTE: Renouncing ownership will leave the contract without an owner, thereby disabling any functionality that is only available to the owner."
					},
					"transferOwnership(address)": {
						"details": "Transfers ownership of the contract to a new account (`newOwner`). Can only be called by the current owner."
					}
				},
				"version": 1
			},
			"evm": {
				"assembly": "    /* \"contracts/SafeClub.sol\":284:3750  contract SafeClub is Ownable, ReentrancyGuard {... */\n  mstore(0x40, 0x80)\n    /* \"contracts/SafeClub.sol\":1221:1302  constructor(uint _quorum) Ownable(msg.sender) {... */\n  callvalue\n  dup1\n  iszero\n  tag_1\n  jumpi\n  revert(0x00, 0x00)\ntag_1:\n  pop\n  mload(0x40)\n  sub(codesize, bytecodeSize)\n  dup1\n  bytecodeSize\n  dup4\n  codecopy\n  dup2\n  dup2\n  add\n  0x40\n  mstore\n  dup2\n  add\n  swap1\n  tag_2\n  swap2\n  swap1\n  tag_3\n  jump\t// in\ntag_2:\n    /* \"contracts/SafeClub.sol\":1255:1265  msg.sender */\n  caller\n    /* \"https://github.com/OpenZeppelin/openzeppelin-contracts/blob/master/contracts/access/Ownable.sol\":1297:1298  0 */\n  0x00\n    /* \"https://github.com/OpenZeppelin/openzeppelin-contracts/blob/master/contracts/access/Ownable.sol\":1273:1299  initialOwner == address(0) */\n  0xffffffffffffffffffffffffffffffffffffffff\n  and\n    /* \"https://github.com/OpenZeppelin/openzeppelin-contracts/blob/master/contracts/access/Ownable.sol\":1273:1285  initialOwner */\n  dup2\n    /* \"https://github.com/OpenZeppelin/openzeppelin-contracts/blob/master/contracts/access/Ownable.sol\":1273:1299  initialOwner == address(0) */\n  0xffffffffffffffffffffffffffffffffffffffff\n  and\n  sub\n    /* \"https://github.com/OpenZeppelin/openzeppelin-contracts/blob/master/contracts/access/Ownable.sol\":1269:1364  if (initialOwner == address(0)) {... */\n  tag_8\n  jumpi\n    /* \"https://github.com/OpenZeppelin/openzeppelin-contracts/blob/master/contracts/access/Ownable.sol\":1350:1351  0 */\n  0x00\n    /* \"https://github.com/OpenZeppelin/openzeppelin-contracts/blob/master/contracts/access/Ownable.sol\":1322:1353  OwnableInvalidOwner(address(0)) */\n  mload(0x40)\n  0x1e4fbdf700000000000000000000000000000000000000000000000000000000\n  dup2\n  mstore\n  0x04\n  add\n  tag_9\n  swap2\n  swap1\n  tag_10\n  jump\t// in\ntag_9:\n  mload(0x40)\n  dup1\n  swap2\n  sub\n  swap1\n  revert\n    /* \"https://github.com/OpenZeppelin/openzeppelin-contracts/blob/master/contracts/access/Ownable.sol\":1269:1364  if (initialOwner == address(0)) {... */\ntag_8:\n    /* \"https://github.com/OpenZeppelin/openzeppelin-contracts/blob/master/contracts/access/Ownable.sol\":1373:1405  _transferOwnership(initialOwner) */\n  tag_11\n    /* \"https://github.com/OpenZeppelin/openzeppelin-contracts/blob/master/contracts/access/Ownable.sol\":1392:1404  initialOwner */\n  dup2\n    /* \"https://github.com/OpenZeppelin/openzeppelin-contracts/blob/master/contracts/access/Ownable.sol\":1373:1391  _transferOwnership */\n  shl(0x20, tag_12)\n    /* \"https://github.com/OpenZeppelin/openzeppelin-contracts/blob/master/contracts/access/Ownable.sol\":1373:1405  _transferOwnership(initialOwner) */\n  0x20\n  shr\n  jump\t// in\ntag_11:\n    /* \"https://github.com/OpenZeppelin/openzeppelin-contracts/blob/master/contracts/access/Ownable.sol\":1225:1412  constructor(address initialOwner) {... */\n  pop\n    /* \"https://github.com/OpenZeppelin/openzeppelin-contracts/blob/master/contracts/utils/ReentrancyGuard.sol\":2365:2366  1 */\n  0x01\n    /* \"https://github.com/OpenZeppelin/openzeppelin-contracts/blob/master/contracts/utils/ReentrancyGuard.sol\":2539:2585  _reentrancyGuardStorageSlot().getUint256Slot() */\n  tag_14\n    /* \"https://github.com/OpenZeppelin/openzeppelin-contracts/blob/master/contracts/utils/ReentrancyGuard.sol\":2539:2568  _reentrancyGuardStorageSlot() */\n  tag_15\n    /* \"https://github.com/OpenZeppelin/openzeppelin-contracts/blob/master/contracts/utils/ReentrancyGuard.sol\":2539:2566  _reentrancyGuardStorageSlot */\n  shl(0x20, tag_16)\n    /* \"https://github.com/OpenZeppelin/openzeppelin-contracts/blob/master/contracts/utils/ReentrancyGuard.sol\":2539:2568  _reentrancyGuardStorageSlot() */\n  0x20\n  shr\n  jump\t// in\ntag_15:\n    /* \"https://github.com/OpenZeppelin/openzeppelin-contracts/blob/master/contracts/utils/ReentrancyGuard.sol\":2539:2583  _reentrancyGuardStorageSlot().getUint256Slot */\n  shl(0x20, tag_17)\n    /* \"https://github.com/OpenZeppelin/openzeppelin-contracts/blob/master/contracts/utils/ReentrancyGuard.sol\":2539:2585  _reentrancyGuardStorageSlot().getUint256Slot() */\n  0x20\n  shr\n  jump\t// in\ntag_14:\n    /* \"https://github.com/OpenZeppelin/openzeppelin-contracts/blob/master/contracts/utils/ReentrancyGuard.sol\":2539:2591  _reentrancyGuardStorageSlot().getUint256Slot().value */\n  0x00\n  add\n    /* \"https://github.com/OpenZeppelin/openzeppelin-contracts/blob/master/contracts/utils/ReentrancyGuard.sol\":2539:2605  _reentrancyGuardStorageSlot().getUint256Slot().value = NOT_ENTERED */\n  dup2\n  swap1\n  sstore\n  pop\n    /* \"contracts/SafeClub.sol\":1287:1294  _quorum */\n  dup1\n    /* \"contracts/SafeClub.sol\":1278:1284  quorum */\n  0x05\n    /* \"contracts/SafeClub.sol\":1278:1294  quorum = _quorum */\n  dup2\n  swap1\n  sstore\n  pop\n    /* \"contracts/SafeClub.sol\":1221:1302  constructor(uint _quorum) Ownable(msg.sender) {... */\n  pop\n    /* \"contracts/SafeClub.sol\":284:3750  contract SafeClub is Ownable, ReentrancyGuard {... */\n  jump(tag_19)\n    /* \"https://github.com/OpenZeppelin/openzeppelin-contracts/blob/master/contracts/access/Ownable.sol\":2912:3099  function _transferOwnership(address newOwner) internal virtual {... */\ntag_12:\n    /* \"https://github.com/OpenZeppelin/openzeppelin-contracts/blob/master/contracts/access/Ownable.sol\":2985:3001  address oldOwner */\n  0x00\n    /* \"https://github.com/OpenZeppelin/openzeppelin-contracts/blob/master/contracts/access/Ownable.sol\":3004:3010  _owner */\n  0x00\n  0x00\n  swap1\n  sload\n  swap1\n  0x0100\n  exp\n  swap1\n  div\n  0xffffffffffffffffffffffffffffffffffffffff\n  and\n    /* \"https://github.com/OpenZeppelin/openzeppelin-contracts/blob/master/contracts/access/Ownable.sol\":2985:3010  address oldOwner = _owner */\n  swap1\n  pop\n    /* \"https://github.com/OpenZeppelin/openzeppelin-contracts/blob/master/contracts/access/Ownable.sol\":3029:3037  newOwner */\n  dup2\n    /* \"https://github.com/OpenZeppelin/openzeppelin-contracts/blob/master/contracts/access/Ownable.sol\":3020:3026  _owner */\n  0x00\n  0x00\n    /* \"https://github.com/OpenZeppelin/openzeppelin-contracts/blob/master/contracts/access/Ownable.sol\":3020:3037  _owner = newOwner */\n  0x0100\n  exp\n  dup2\n  sload\n  dup2\n  0xffffffffffffffffffffffffffffffffffffffff\n  mul\n  not\n  and\n  swap1\n  dup4\n  0xffffffffffffffffffffffffffffffffffffffff\n  and\n  mul\n  or\n  swap1\n  sstore\n  pop\n    /* \"https://github.com/OpenZeppelin/openzeppelin-contracts/blob/master/contracts/access/Ownable.sol\":3083:3091  newOwner */\n  dup2\n    /* \"https://github.com/OpenZeppelin/openzeppelin-contracts/blob/master/contracts/access/Ownable.sol\":3052:3092  OwnershipTransferred(oldOwner, newOwner) */\n  0xffffffffffffffffffffffffffffffffffffffff\n  and\n    /* \"https://github.com/OpenZeppelin/openzeppelin-contracts/blob/master/contracts/access/Ownable.sol\":3073:3081  oldOwner */\n  dup2\n    /* \"https://github.com/OpenZeppelin/openzeppelin-contracts/blob/master/contracts/access/Ownable.sol\":3052:3092  OwnershipTransferred(oldOwner, newOwner) */\n  0xffffffffffffffffffffffffffffffffffffffff\n  and\n  0x8be0079c531659141344cd1fd0a4f28419497f9722a3daafe3b4186f6b6457e0\n  mload(0x40)\n  mload(0x40)\n  dup1\n  swap2\n  sub\n  swap1\n  log3\n    /* \"https://github.com/OpenZeppelin/openzeppelin-contracts/blob/master/contracts/access/Ownable.sol\":2975:3099  {... */\n  pop\n    /* \"https://github.com/OpenZeppelin/openzeppelin-contracts/blob/master/contracts/access/Ownable.sol\":2912:3099  function _transferOwnership(address newOwner) internal virtual {... */\n  pop\n  jump\t// out\n    /* \"https://github.com/OpenZeppelin/openzeppelin-contracts/blob/master/contracts/utils/ReentrancyGuard.sol\":4636:4763  function _reentrancyGuardStorageSlot() internal pure virtual returns (bytes32) {... */\ntag_16:\n    /* \"https://github.com/OpenZeppelin/openzeppelin-contracts/blob/master/contracts/utils/ReentrancyGuard.sol\":4706:4713  bytes32 */\n  0x00\n    /* \"https://github.com/OpenZeppelin/openzeppelin-contracts/blob/master/contracts/utils/ReentrancyGuard.sol\":1505:1571  0x9b779b17422d0df92223018b32b4d1fa46e071723d6817e2486d003becc55f00 */\n  0x9b779b17422d0df92223018b32b4d1fa46e071723d6817e2486d003becc55f00\n    /* \"https://github.com/OpenZeppelin/openzeppelin-contracts/blob/master/contracts/utils/ReentrancyGuard.sol\":4732:4756  REENTRANCY_GUARD_STORAGE */\n  0x00\n  shl\n    /* \"https://github.com/OpenZeppelin/openzeppelin-contracts/blob/master/contracts/utils/ReentrancyGuard.sol\":4725:4756  return REENTRANCY_GUARD_STORAGE */\n  swap1\n  pop\n    /* \"https://github.com/OpenZeppelin/openzeppelin-contracts/blob/master/contracts/utils/ReentrancyGuard.sol\":4636:4763  function _reentrancyGuardStorageSlot() internal pure virtual returns (bytes32) {... */\n  swap1\n  jump\t// out\n    /* \"https://github.com/OpenZeppelin/openzeppelin-contracts/blob/master/contracts/utils/StorageSlot.sol\":2679:2842  function getUint256Slot(bytes32 slot) internal pure returns (Uint256Slot storage r) {... */\ntag_17:\n    /* \"https://github.com/OpenZeppelin/openzeppelin-contracts/blob/master/contracts/utils/StorageSlot.sol\":2740:2761  Uint256Slot storage r */\n  0x00\n    /* \"https://github.com/OpenZeppelin/openzeppelin-contracts/blob/master/contracts/utils/StorageSlot.sol\":2822:2826  slot */\n  dup2\n    /* \"https://github.com/OpenZeppelin/openzeppelin-contracts/blob/master/contracts/utils/StorageSlot.sol\":2812:2826  r.slot := slot */\n  swap1\n  pop\n    /* \"https://github.com/OpenZeppelin/openzeppelin-contracts/blob/master/contracts/utils/StorageSlot.sol\":2679:2842  function getUint256Slot(bytes32 slot) internal pure returns (Uint256Slot storage r) {... */\n  swap2\n  swap1\n  pop\n  jump\t// out\n    /* \"#utility.yul\":88:205   */\ntag_24:\n    /* \"#utility.yul\":197:198   */\n  0x00\n    /* \"#utility.yul\":194:195   */\n  0x00\n    /* \"#utility.yul\":187:199   */\n  revert\n    /* \"#utility.yul\":334:411   */\ntag_26:\n    /* \"#utility.yul\":371:378   */\n  0x00\n    /* \"#utility.yul\":400:405   */\n  dup2\n    /* \"#utility.yul\":389:405   */\n  swap1\n  pop\n    /* \"#utility.yul\":334:411   */\n  swap2\n  swap1\n  pop\n  jump\t// out\n    /* \"#utility.yul\":417:539   */\ntag_27:\n    /* \"#utility.yul\":490:514   */\n  tag_38\n    /* \"#utility.yul\":508:513   */\n  dup2\n    /* \"#utility.yul\":490:514   */\n  tag_26\n  jump\t// in\ntag_38:\n    /* \"#utility.yul\":483:488   */\n  dup2\n    /* \"#utility.yul\":480:515   */\n  eq\n    /* \"#utility.yul\":470:533   */\n  tag_39\n  jumpi\n    /* \"#utility.yul\":529:530   */\n  0x00\n    /* \"#utility.yul\":526:527   */\n  0x00\n    /* \"#utility.yul\":519:531   */\n  revert\n    /* \"#utility.yul\":470:533   */\ntag_39:\n    /* \"#utility.yul\":417:539   */\n  pop\n  jump\t// out\n    /* \"#utility.yul\":545:688   */\ntag_28:\n    /* \"#utility.yul\":602:607   */\n  0x00\n    /* \"#utility.yul\":633:639   */\n  dup2\n    /* \"#utility.yul\":627:640   */\n  mload\n    /* \"#utility.yul\":618:640   */\n  swap1\n  pop\n    /* \"#utility.yul\":649:682   */\n  tag_41\n    /* \"#utility.yul\":676:681   */\n  dup2\n    /* \"#utility.yul\":649:682   */\n  tag_27\n  jump\t// in\ntag_41:\n    /* \"#utility.yul\":545:688   */\n  swap3\n  swap2\n  pop\n  pop\n  jump\t// out\n    /* \"#utility.yul\":694:1045   */\ntag_3:\n    /* \"#utility.yul\":764:770   */\n  0x00\n    /* \"#utility.yul\":813:815   */\n  0x20\n    /* \"#utility.yul\":801:810   */\n  dup3\n    /* \"#utility.yul\":792:799   */\n  dup5\n    /* \"#utility.yul\":788:811   */\n  sub\n    /* \"#utility.yul\":784:816   */\n  slt\n    /* \"#utility.yul\":781:900   */\n  iszero\n  tag_43\n  jumpi\n    /* \"#utility.yul\":819:898   */\n  tag_44\n  tag_24\n  jump\t// in\ntag_44:\n    /* \"#utility.yul\":781:900   */\ntag_43:\n    /* \"#utility.yul\":939:940   */\n  0x00\n    /* \"#utility.yul\":964:1028   */\n  tag_45\n    /* \"#utility.yul\":1020:1027   */\n  dup5\n    /* \"#utility.yul\":1011:1017   */\n  dup3\n    /* \"#utility.yul\":1000:1009   */\n  dup6\n    /* \"#utility.yul\":996:1018   */\n  add\n    /* \"#utility.yul\":964:1028   */\n  tag_28\n  jump\t// in\ntag_45:\n    /* \"#utility.yul\":954:1028   */\n  swap2\n  pop\n    /* \"#utility.yul\":910:1038   */\n  pop\n    /* \"#utility.yul\":694:1045   */\n  swap3\n  swap2\n  pop\n  pop\n  jump\t// out\n    /* \"#utility.yul\":1051:1177   */\ntag_29:\n    /* \"#utility.yul\":1088:1095   */\n  0x00\n    /* \"#utility.yul\":1128:1170   */\n  0xffffffffffffffffffffffffffffffffffffffff\n    /* \"#utility.yul\":1121:1126   */\n  dup3\n    /* \"#utility.yul\":1117:1171   */\n  and\n    /* \"#utility.yul\":1106:1171   */\n  swap1\n  pop\n    /* \"#utility.yul\":1051:1177   */\n  swap2\n  swap1\n  pop\n  jump\t// out\n    /* \"#utility.yul\":1183:1279   */\ntag_30:\n    /* \"#utility.yul\":1220:1227   */\n  0x00\n    /* \"#utility.yul\":1249:1273   */\n  tag_48\n    /* \"#utility.yul\":1267:1272   */\n  dup3\n    /* \"#utility.yul\":1249:1273   */\n  tag_29\n  jump\t// in\ntag_48:\n    /* \"#utility.yul\":1238:1273   */\n  swap1\n  pop\n    /* \"#utility.yul\":1183:1279   */\n  swap2\n  swap1\n  pop\n  jump\t// out\n    /* \"#utility.yul\":1285:1403   */\ntag_31:\n    /* \"#utility.yul\":1372:1396   */\n  tag_50\n    /* \"#utility.yul\":1390:1395   */\n  dup2\n    /* \"#utility.yul\":1372:1396   */\n  tag_30\n  jump\t// in\ntag_50:\n    /* \"#utility.yul\":1367:1370   */\n  dup3\n    /* \"#utility.yul\":1360:1397   */\n  mstore\n    /* \"#utility.yul\":1285:1403   */\n  pop\n  pop\n  jump\t// out\n    /* \"#utility.yul\":1409:1631   */\ntag_10:\n    /* \"#utility.yul\":1502:1506   */\n  0x00\n    /* \"#utility.yul\":1540:1542   */\n  0x20\n    /* \"#utility.yul\":1529:1538   */\n  dup3\n    /* \"#utility.yul\":1525:1543   */\n  add\n    /* \"#utility.yul\":1517:1543   */\n  swap1\n  pop\n    /* \"#utility.yul\":1553:1624   */\n  tag_52\n    /* \"#utility.yul\":1621:1622   */\n  0x00\n    /* \"#utility.yul\":1610:1619   */\n  dup4\n    /* \"#utility.yul\":1606:1623   */\n  add\n    /* \"#utility.yul\":1597:1603   */\n  dup5\n    /* \"#utility.yul\":1553:1624   */\n  tag_31\n  jump\t// in\ntag_52:\n    /* \"#utility.yul\":1409:1631   */\n  swap3\n  swap2\n  pop\n  pop\n  jump\t// out\n    /* \"contracts/SafeClub.sol\":284:3750  contract SafeClub is Ownable, ReentrancyGuard {... */\ntag_19:\n  dataSize(sub_0)\n  dup1\n  dataOffset(sub_0)\n  0x00\n  codecopy\n  0x00\n  return\nstop\n\nsub_0: assembly {\n        /* \"contracts/SafeClub.sol\":284:3750  contract SafeClub is Ownable, ReentrancyGuard {... */\n      mstore(0x40, 0x80)\n      jumpi(tag_1, lt(calldatasize, 0x04))\n      shr(0xe0, calldataload(0x00))\n      dup1\n      0xa230c524\n      gt\n      tag_16\n      jumpi\n      dup1\n      0xd0e30db0\n      gt\n      tag_17\n      jumpi\n      dup1\n      0xd0e30db0\n      eq\n      tag_12\n      jumpi\n      dup1\n      0xda35c664\n      eq\n      tag_13\n      jumpi\n      dup1\n      0xf2fde38b\n      eq\n      tag_14\n      jumpi\n      dup1\n      0xfe0d94c1\n      eq\n      tag_15\n      jumpi\n      jump(tag_2)\n    tag_17:\n      dup1\n      0xa230c524\n      eq\n      tag_9\n      jumpi\n      dup1\n      0xc9d27afe\n      eq\n      tag_10\n      jumpi\n      dup1\n      0xca6d56dc\n      eq\n      tag_11\n      jumpi\n      jump(tag_2)\n    tag_16:\n      dup1\n      0x0b1ca49a\n      eq\n      tag_3\n      jumpi\n      dup1\n      0x1703a018\n      eq\n      tag_4\n      jumpi\n      dup1\n      0x715018a6\n      eq\n      tag_5\n      jumpi\n      dup1\n      0x7d10707b\n      eq\n      tag_6\n      jumpi\n      dup1\n      0x8da5cb5b\n      eq\n      tag_7\n      jumpi\n      dup1\n      0x9eab5253\n      eq\n      tag_8\n      jumpi\n      jump(tag_2)\n    tag_1:\n      jumpi(tag_2, calldatasize)\n      stop\n    tag_2:\n      revert(0x00, 0x00)\n        /* \"contracts/SafeClub.sol\":1669:2073  function removeMember(address _m) external onlyOwner {... */\n    tag_3:\n      callvalue\n      dup1\n      iszero\n      tag_20\n      jumpi\n      revert(0x00, 0x00)\n    tag_20:\n      pop\n      tag_21\n      0x04\n      dup1\n      calldatasize\n      sub\n      dup2\n      add\n      swap1\n      tag_22\n      swap2\n      swap1\n      tag_23\n      jump\t// in\n    tag_22:\n      tag_24\n      jump\t// in\n    tag_21:\n      stop\n        /* \"contracts/SafeClub.sol\":1024:1042  uint public quorum */\n    tag_4:\n      callvalue\n      dup1\n      iszero\n      tag_25\n      jumpi\n      revert(0x00, 0x00)\n    tag_25:\n      pop\n      tag_26\n      tag_27\n      jump\t// in\n    tag_26:\n      mload(0x40)\n      tag_28\n      swap2\n      swap1\n      tag_29\n      jump\t// in\n    tag_28:\n      mload(0x40)\n      dup1\n      swap2\n      sub\n      swap1\n      return\n        /* \"https://github.com/OpenZeppelin/openzeppelin-contracts/blob/master/contracts/access/Ownable.sol\":2293:2394  function renounceOwnership() public virtual onlyOwner {... */\n    tag_5:\n      callvalue\n      dup1\n      iszero\n      tag_30\n      jumpi\n      revert(0x00, 0x00)\n    tag_30:\n      pop\n      tag_31\n      tag_32\n      jump\t// in\n    tag_31:\n      stop\n        /* \"contracts/SafeClub.sol\":2224:2792  function createProposal(... */\n    tag_6:\n      callvalue\n      dup1\n      iszero\n      tag_33\n      jumpi\n      revert(0x00, 0x00)\n    tag_33:\n      pop\n      tag_34\n      0x04\n      dup1\n      calldatasize\n      sub\n      dup2\n      add\n      swap1\n      tag_35\n      swap2\n      swap1\n      tag_36\n      jump\t// in\n    tag_35:\n      tag_37\n      jump\t// in\n    tag_34:\n      stop\n        /* \"https://github.com/OpenZeppelin/openzeppelin-contracts/blob/master/contracts/access/Ownable.sol\":1638:1723  function owner() public view virtual returns (address) {... */\n    tag_7:\n      callvalue\n      dup1\n      iszero\n      tag_38\n      jumpi\n      revert(0x00, 0x00)\n    tag_38:\n      pop\n      tag_39\n      tag_40\n      jump\t// in\n    tag_39:\n      mload(0x40)\n      tag_41\n      swap2\n      swap1\n      tag_42\n      jump\t// in\n    tag_41:\n      mload(0x40)\n      dup1\n      swap2\n      sub\n      swap1\n      return\n        /* \"contracts/SafeClub.sol\":2081:2177  function getMembers() external view returns (address[] memory) {... */\n    tag_8:\n      callvalue\n      dup1\n      iszero\n      tag_43\n      jumpi\n      revert(0x00, 0x00)\n    tag_43:\n      pop\n      tag_44\n      tag_45\n      jump\t// in\n    tag_44:\n      mload(0x40)\n      tag_46\n      swap2\n      swap1\n      tag_47\n      jump\t// in\n    tag_46:\n      mload(0x40)\n      dup1\n      swap2\n      sub\n      swap1\n      return\n        /* \"contracts/SafeClub.sol\":367:407  mapping(address => bool) public isMember */\n    tag_9:\n      callvalue\n      dup1\n      iszero\n      tag_48\n      jumpi\n      revert(0x00, 0x00)\n    tag_48:\n      pop\n      tag_49\n      0x04\n      dup1\n      calldatasize\n      sub\n      dup2\n      add\n      swap1\n      tag_50\n      swap2\n      swap1\n      tag_23\n      jump\t// in\n    tag_50:\n      tag_51\n      jump\t// in\n    tag_49:\n      mload(0x40)\n      tag_52\n      swap2\n      swap1\n      tag_53\n      jump\t// in\n    tag_52:\n      mload(0x40)\n      dup1\n      swap2\n      sub\n      swap1\n      return\n        /* \"contracts/SafeClub.sol\":2825:3214  function vote(uint _id, bool support) external onlyMember {... */\n    tag_10:\n      callvalue\n      dup1\n      iszero\n      tag_54\n      jumpi\n      revert(0x00, 0x00)\n    tag_54:\n      pop\n      tag_55\n      0x04\n      dup1\n      calldatasize\n      sub\n      dup2\n      add\n      swap1\n      tag_56\n      swap2\n      swap1\n      tag_57\n      jump\t// in\n    tag_56:\n      tag_58\n      jump\t// in\n    tag_55:\n      stop\n        /* \"contracts/SafeClub.sol\":1464:1661  function addMember(address _m) external onlyOwner {... */\n    tag_11:\n      callvalue\n      dup1\n      iszero\n      tag_59\n      jumpi\n      revert(0x00, 0x00)\n    tag_59:\n      pop\n      tag_60\n      0x04\n      dup1\n      calldatasize\n      sub\n      dup2\n      add\n      swap1\n      tag_61\n      swap2\n      swap1\n      tag_23\n      jump\t// in\n    tag_61:\n      tag_62\n      jump\t// in\n    tag_60:\n      stop\n        /* \"contracts/SafeClub.sol\":1382:1420  function deposit() external payable {} */\n    tag_12:\n      tag_63\n      tag_64\n      jump\t// in\n    tag_63:\n      stop\n        /* \"contracts/SafeClub.sol\":942:967  uint public proposalCount */\n    tag_13:\n      callvalue\n      dup1\n      iszero\n      tag_65\n      jumpi\n      revert(0x00, 0x00)\n    tag_65:\n      pop\n      tag_66\n      tag_67\n      jump\t// in\n    tag_66:\n      mload(0x40)\n      tag_68\n      swap2\n      swap1\n      tag_29\n      jump\t// in\n    tag_68:\n      mload(0x40)\n      dup1\n      swap2\n      sub\n      swap1\n      return\n        /* \"https://github.com/OpenZeppelin/openzeppelin-contracts/blob/master/contracts/access/Ownable.sol\":2543:2758  function transferOwnership(address newOwner) public virtual onlyOwner {... */\n    tag_14:\n      callvalue\n      dup1\n      iszero\n      tag_69\n      jumpi\n      revert(0x00, 0x00)\n    tag_69:\n      pop\n      tag_70\n      0x04\n      dup1\n      calldatasize\n      sub\n      dup2\n      add\n      swap1\n      tag_71\n      swap2\n      swap1\n      tag_23\n      jump\t// in\n    tag_71:\n      tag_72\n      jump\t// in\n    tag_70:\n      stop\n        /* \"contracts/SafeClub.sol\":3253:3747  function execute(uint _id) external nonReentrant {... */\n    tag_15:\n      callvalue\n      dup1\n      iszero\n      tag_73\n      jumpi\n      revert(0x00, 0x00)\n    tag_73:\n      pop\n      tag_74\n      0x04\n      dup1\n      calldatasize\n      sub\n      dup2\n      add\n      swap1\n      tag_75\n      swap2\n      swap1\n      tag_76\n      jump\t// in\n    tag_75:\n      tag_77\n      jump\t// in\n    tag_74:\n      stop\n        /* \"contracts/SafeClub.sol\":1669:2073  function removeMember(address _m) external onlyOwner {... */\n    tag_24:\n        /* \"https://github.com/OpenZeppelin/openzeppelin-contracts/blob/master/contracts/access/Ownable.sol\":1531:1544  _checkOwner() */\n      tag_79\n        /* \"https://github.com/OpenZeppelin/openzeppelin-contracts/blob/master/contracts/access/Ownable.sol\":1531:1542  _checkOwner */\n      tag_80\n        /* \"https://github.com/OpenZeppelin/openzeppelin-contracts/blob/master/contracts/access/Ownable.sol\":1531:1544  _checkOwner() */\n      jump\t// in\n    tag_79:\n        /* \"contracts/SafeClub.sol\":1741:1749  isMember */\n      0x01\n        /* \"contracts/SafeClub.sol\":1741:1753  isMember[_m] */\n      0x00\n        /* \"contracts/SafeClub.sol\":1750:1752  _m */\n      dup3\n        /* \"contracts/SafeClub.sol\":1741:1753  isMember[_m] */\n      0xffffffffffffffffffffffffffffffffffffffff\n      and\n      0xffffffffffffffffffffffffffffffffffffffff\n      and\n      dup2\n      mstore\n      0x20\n      add\n      swap1\n      dup2\n      mstore\n      0x20\n      add\n      0x00\n      keccak256\n      0x00\n      swap1\n      sload\n      swap1\n      0x0100\n      exp\n      swap1\n      div\n      0xff\n      and\n        /* \"contracts/SafeClub.sol\":1733:1768  require(isMember[_m], \"Not member\") */\n      tag_82\n      jumpi\n      mload(0x40)\n      0x08c379a000000000000000000000000000000000000000000000000000000000\n      dup2\n      mstore\n      0x04\n      add\n      tag_83\n      swap1\n      tag_84\n      jump\t// in\n    tag_83:\n      mload(0x40)\n      dup1\n      swap2\n      sub\n      swap1\n      revert\n    tag_82:\n        /* \"contracts/SafeClub.sol\":1794:1799  false */\n      0x00\n        /* \"contracts/SafeClub.sol\":1779:1787  isMember */\n      0x01\n        /* \"contracts/SafeClub.sol\":1779:1791  isMember[_m] */\n      0x00\n        /* \"contracts/SafeClub.sol\":1788:1790  _m */\n      dup4\n        /* \"contracts/SafeClub.sol\":1779:1791  isMember[_m] */\n      0xffffffffffffffffffffffffffffffffffffffff\n      and\n      0xffffffffffffffffffffffffffffffffffffffff\n      and\n      dup2\n      mstore\n      0x20\n      add\n      swap1\n      dup2\n      mstore\n      0x20\n      add\n      0x00\n      keccak256\n      0x00\n        /* \"contracts/SafeClub.sol\":1779:1799  isMember[_m] = false */\n      0x0100\n      exp\n      dup2\n      sload\n      dup2\n      0xff\n      mul\n      not\n      and\n      swap1\n      dup4\n      iszero\n      iszero\n      mul\n      or\n      swap1\n      sstore\n      pop\n        /* \"contracts/SafeClub.sol\":1817:1823  uint i */\n      0x00\n        /* \"contracts/SafeClub.sol\":1826:1827  0 */\n      0x00\n        /* \"contracts/SafeClub.sol\":1817:1827  uint i = 0 */\n      swap1\n      pop\n        /* \"contracts/SafeClub.sol\":1812:2033  for (uint i = 0; i < members.length; i++) {... */\n    tag_85:\n        /* \"contracts/SafeClub.sol\":1833:1840  members */\n      0x02\n        /* \"contracts/SafeClub.sol\":1833:1847  members.length */\n      dup1\n      sload\n      swap1\n      pop\n        /* \"contracts/SafeClub.sol\":1829:1830  i */\n      dup2\n        /* \"contracts/SafeClub.sol\":1829:1847  i < members.length */\n      lt\n        /* \"contracts/SafeClub.sol\":1812:2033  for (uint i = 0; i < members.length; i++) {... */\n      iszero\n      tag_86\n      jumpi\n        /* \"contracts/SafeClub.sol\":1887:1889  _m */\n      dup2\n        /* \"contracts/SafeClub.sol\":1873:1889  members[i] == _m */\n      0xffffffffffffffffffffffffffffffffffffffff\n      and\n        /* \"contracts/SafeClub.sol\":1873:1880  members */\n      0x02\n        /* \"contracts/SafeClub.sol\":1881:1882  i */\n      dup3\n        /* \"contracts/SafeClub.sol\":1873:1883  members[i] */\n      dup2\n      sload\n      dup2\n      lt\n      tag_88\n      jumpi\n      tag_89\n      tag_90\n      jump\t// in\n    tag_89:\n    tag_88:\n      swap1\n      0x00\n      mstore\n      keccak256(0x00, 0x20)\n      add\n      0x00\n      swap1\n      sload\n      swap1\n      0x0100\n      exp\n      swap1\n      div\n      0xffffffffffffffffffffffffffffffffffffffff\n      and\n        /* \"contracts/SafeClub.sol\":1873:1889  members[i] == _m */\n      0xffffffffffffffffffffffffffffffffffffffff\n      and\n      sub\n        /* \"contracts/SafeClub.sol\":1869:2022  if (members[i] == _m) {... */\n      tag_92\n      jumpi\n        /* \"contracts/SafeClub.sol\":1923:1930  members */\n      0x02\n        /* \"contracts/SafeClub.sol\":1948:1949  1 */\n      0x01\n        /* \"contracts/SafeClub.sol\":1931:1938  members */\n      0x02\n        /* \"contracts/SafeClub.sol\":1931:1945  members.length */\n      dup1\n      sload\n      swap1\n      pop\n        /* \"contracts/SafeClub.sol\":1931:1949  members.length - 1 */\n      tag_93\n      swap2\n      swap1\n      tag_94\n      jump\t// in\n    tag_93:\n        /* \"contracts/SafeClub.sol\":1923:1950  members[members.length - 1] */\n      dup2\n      sload\n      dup2\n      lt\n      tag_95\n      jumpi\n      tag_96\n      tag_90\n      jump\t// in\n    tag_96:\n    tag_95:\n      swap1\n      0x00\n      mstore\n      keccak256(0x00, 0x20)\n      add\n      0x00\n      swap1\n      sload\n      swap1\n      0x0100\n      exp\n      swap1\n      div\n      0xffffffffffffffffffffffffffffffffffffffff\n      and\n        /* \"contracts/SafeClub.sol\":1910:1917  members */\n      0x02\n        /* \"contracts/SafeClub.sol\":1918:1919  i */\n      dup3\n        /* \"contracts/SafeClub.sol\":1910:1920  members[i] */\n      dup2\n      sload\n      dup2\n      lt\n      tag_98\n      jumpi\n      tag_99\n      tag_90\n      jump\t// in\n    tag_99:\n    tag_98:\n      swap1\n      0x00\n      mstore\n      keccak256(0x00, 0x20)\n      add\n      0x00\n        /* \"contracts/SafeClub.sol\":1910:1950  members[i] = members[members.length - 1] */\n      0x0100\n      exp\n      dup2\n      sload\n      dup2\n      0xffffffffffffffffffffffffffffffffffffffff\n      mul\n      not\n      and\n      swap1\n      dup4\n      0xffffffffffffffffffffffffffffffffffffffff\n      and\n      mul\n      or\n      swap1\n      sstore\n      pop\n        /* \"contracts/SafeClub.sol\":1969:1976  members */\n      0x02\n        /* \"contracts/SafeClub.sol\":1969:1982  members.pop() */\n      dup1\n      sload\n      dup1\n      tag_101\n      jumpi\n      tag_102\n      tag_103\n      jump\t// in\n    tag_102:\n    tag_101:\n      0x01\n      swap1\n      sub\n      dup2\n      dup2\n      swap1\n      0x00\n      mstore\n      keccak256(0x00, 0x20)\n      add\n      exp(0x0100, 0x00)\n      dup2\n      sload\n      swap1\n      0xffffffffffffffffffffffffffffffffffffffff\n      mul\n      not\n      and\n      swap1\n      sstore\n      swap1\n      sstore\n        /* \"contracts/SafeClub.sol\":2001:2006  break */\n      jump(tag_86)\n        /* \"contracts/SafeClub.sol\":1869:2022  if (members[i] == _m) {... */\n    tag_92:\n        /* \"contracts/SafeClub.sol\":1849:1852  i++ */\n      dup1\n      dup1\n      0x01\n      add\n      swap2\n      pop\n      pop\n        /* \"contracts/SafeClub.sol\":1812:2033  for (uint i = 0; i < members.length; i++) {... */\n      jump(tag_85)\n    tag_86:\n      pop\n        /* \"contracts/SafeClub.sol\":2048:2065  MemberRemoved(_m) */\n      0x6e76fb4c77256006d9c38ec7d82b45a8c8f3c27b1d6766fffc42dfb8de684492\n        /* \"contracts/SafeClub.sol\":2062:2064  _m */\n      dup2\n        /* \"contracts/SafeClub.sol\":2048:2065  MemberRemoved(_m) */\n      mload(0x40)\n      tag_105\n      swap2\n      swap1\n      tag_42\n      jump\t// in\n    tag_105:\n      mload(0x40)\n      dup1\n      swap2\n      sub\n      swap1\n      log1\n        /* \"contracts/SafeClub.sol\":1669:2073  function removeMember(address _m) external onlyOwner {... */\n      pop\n      jump\t// out\n        /* \"contracts/SafeClub.sol\":1024:1042  uint public quorum */\n    tag_27:\n      sload(0x05)\n      dup2\n      jump\t// out\n        /* \"https://github.com/OpenZeppelin/openzeppelin-contracts/blob/master/contracts/access/Ownable.sol\":2293:2394  function renounceOwnership() public virtual onlyOwner {... */\n    tag_32:\n        /* \"https://github.com/OpenZeppelin/openzeppelin-contracts/blob/master/contracts/access/Ownable.sol\":1531:1544  _checkOwner() */\n      tag_107\n        /* \"https://github.com/OpenZeppelin/openzeppelin-contracts/blob/master/contracts/access/Ownable.sol\":1531:1542  _checkOwner */\n      tag_80\n        /* \"https://github.com/OpenZeppelin/openzeppelin-contracts/blob/master/contracts/access/Ownable.sol\":1531:1544  _checkOwner() */\n      jump\t// in\n    tag_107:\n        /* \"https://github.com/OpenZeppelin/openzeppelin-contracts/blob/master/contracts/access/Ownable.sol\":2357:2387  _transferOwnership(address(0)) */\n      tag_109\n        /* \"https://github.com/OpenZeppelin/openzeppelin-contracts/blob/master/contracts/access/Ownable.sol\":2384:2385  0 */\n      0x00\n        /* \"https://github.com/OpenZeppelin/openzeppelin-contracts/blob/master/contracts/access/Ownable.sol\":2357:2375  _transferOwnership */\n      tag_110\n        /* \"https://github.com/OpenZeppelin/openzeppelin-contracts/blob/master/contracts/access/Ownable.sol\":2357:2387  _transferOwnership(address(0)) */\n      jump\t// in\n    tag_109:\n        /* \"https://github.com/OpenZeppelin/openzeppelin-contracts/blob/master/contracts/access/Ownable.sol\":2293:2394  function renounceOwnership() public virtual onlyOwner {... */\n      jump\t// out\n        /* \"contracts/SafeClub.sol\":2224:2792  function createProposal(... */\n    tag_37:\n        /* \"contracts/SafeClub.sol\":573:581  isMember */\n      0x01\n        /* \"contracts/SafeClub.sol\":573:593  isMember[msg.sender] */\n      0x00\n        /* \"contracts/SafeClub.sol\":582:592  msg.sender */\n      caller\n        /* \"contracts/SafeClub.sol\":573:593  isMember[msg.sender] */\n      0xffffffffffffffffffffffffffffffffffffffff\n      and\n      0xffffffffffffffffffffffffffffffffffffffff\n      and\n      dup2\n      mstore\n      0x20\n      add\n      swap1\n      dup2\n      mstore\n      0x20\n      add\n      0x00\n      keccak256\n      0x00\n      swap1\n      sload\n      swap1\n      0x0100\n      exp\n      swap1\n      div\n      0xff\n      and\n        /* \"contracts/SafeClub.sol\":565:610  require(isMember[msg.sender], \"Not a member\") */\n      tag_112\n      jumpi\n      mload(0x40)\n      0x08c379a000000000000000000000000000000000000000000000000000000000\n      dup2\n      mstore\n      0x04\n      add\n      tag_113\n      swap1\n      tag_114\n      jump\t// in\n    tag_113:\n      mload(0x40)\n      dup1\n      swap2\n      sub\n      swap1\n      revert\n    tag_112:\n        /* \"contracts/SafeClub.sol\":2436:2443  _amount */\n      dup4\n        /* \"contracts/SafeClub.sol\":2411:2432  address(this).balance */\n      selfbalance\n        /* \"contracts/SafeClub.sol\":2411:2443  address(this).balance >= _amount */\n      lt\n      iszero\n        /* \"contracts/SafeClub.sol\":2403:2462  require(address(this).balance >= _amount, \"Not enough ETH\") */\n      tag_116\n      jumpi\n      mload(0x40)\n      0x08c379a000000000000000000000000000000000000000000000000000000000\n      dup2\n      mstore\n      0x04\n      add\n      tag_117\n      swap1\n      tag_118\n      jump\t// in\n    tag_117:\n      mload(0x40)\n      dup1\n      swap2\n      sub\n      swap1\n      revert\n    tag_116:\n        /* \"contracts/SafeClub.sol\":2475:2488  proposalCount */\n      0x03\n      0x00\n        /* \"contracts/SafeClub.sol\":2475:2490  proposalCount++ */\n      dup2\n      sload\n      dup1\n      swap3\n      swap2\n      swap1\n      tag_119\n      swap1\n      tag_120\n      jump\t// in\n    tag_119:\n      swap2\n      swap1\n      pop\n      sstore\n      pop\n        /* \"contracts/SafeClub.sol\":2501:2519  Proposal storage p */\n      0x00\n        /* \"contracts/SafeClub.sol\":2522:2531  proposals */\n      0x04\n        /* \"contracts/SafeClub.sol\":2522:2546  proposals[proposalCount] */\n      0x00\n        /* \"contracts/SafeClub.sol\":2532:2545  proposalCount */\n      sload(0x03)\n        /* \"contracts/SafeClub.sol\":2522:2546  proposals[proposalCount] */\n      dup2\n      mstore\n      0x20\n      add\n      swap1\n      dup2\n      mstore\n      0x20\n      add\n      0x00\n      keccak256\n        /* \"contracts/SafeClub.sol\":2501:2546  Proposal storage p = proposals[proposalCount] */\n      swap1\n      pop\n        /* \"contracts/SafeClub.sol\":2564:2577  proposalCount */\n      sload(0x03)\n        /* \"contracts/SafeClub.sol\":2557:2558  p */\n      dup2\n        /* \"contracts/SafeClub.sol\":2557:2561  p.id */\n      0x00\n      add\n        /* \"contracts/SafeClub.sol\":2557:2577  p.id = proposalCount */\n      dup2\n      swap1\n      sstore\n      pop\n        /* \"contracts/SafeClub.sol\":2595:2598  _to */\n      dup6\n        /* \"contracts/SafeClub.sol\":2588:2589  p */\n      dup2\n        /* \"contracts/SafeClub.sol\":2588:2592  p.to */\n      0x01\n      add\n      0x00\n        /* \"contracts/SafeClub.sol\":2588:2598  p.to = _to */\n      0x0100\n      exp\n      dup2\n      sload\n      dup2\n      0xffffffffffffffffffffffffffffffffffffffff\n      mul\n      not\n      and\n      swap1\n      dup4\n      0xffffffffffffffffffffffffffffffffffffffff\n      and\n      mul\n      or\n      swap1\n      sstore\n      pop\n        /* \"contracts/SafeClub.sol\":2620:2627  _amount */\n      dup5\n        /* \"contracts/SafeClub.sol\":2609:2610  p */\n      dup2\n        /* \"contracts/SafeClub.sol\":2609:2617  p.amount */\n      0x02\n      add\n        /* \"contracts/SafeClub.sol\":2609:2627  p.amount = _amount */\n      dup2\n      swap1\n      sstore\n      pop\n        /* \"contracts/SafeClub.sol\":2654:2666  _description */\n      dup4\n      dup4\n        /* \"contracts/SafeClub.sol\":2638:2639  p */\n      dup3\n        /* \"contracts/SafeClub.sol\":2638:2651  p.description */\n      0x03\n      add\n        /* \"contracts/SafeClub.sol\":2638:2666  p.description = _description */\n      swap2\n      dup3\n      tag_121\n      swap3\n      swap2\n      swap1\n      tag_122\n      jump\t// in\n    tag_121:\n      pop\n        /* \"contracts/SafeClub.sol\":2708:2717  _duration */\n      dup2\n        /* \"contracts/SafeClub.sol\":2690:2705  block.timestamp */\n      timestamp\n        /* \"contracts/SafeClub.sol\":2690:2717  block.timestamp + _duration */\n      tag_123\n      swap2\n      swap1\n      tag_124\n      jump\t// in\n    tag_123:\n        /* \"contracts/SafeClub.sol\":2677:2678  p */\n      dup2\n        /* \"contracts/SafeClub.sol\":2677:2687  p.deadline */\n      0x04\n      add\n        /* \"contracts/SafeClub.sol\":2677:2717  p.deadline = block.timestamp + _duration */\n      dup2\n      swap1\n      sstore\n      pop\n        /* \"contracts/SafeClub.sol\":2735:2784  ProposalCreated(p.id, _to, _amount, _description) */\n      0x85b1e5bd1e58840265c40582ff09f8cbfab823e041a824467b654a99b5156d39\n        /* \"contracts/SafeClub.sol\":2751:2752  p */\n      dup2\n        /* \"contracts/SafeClub.sol\":2751:2755  p.id */\n      0x00\n      add\n      sload\n        /* \"contracts/SafeClub.sol\":2757:2760  _to */\n      dup8\n        /* \"contracts/SafeClub.sol\":2762:2769  _amount */\n      dup8\n        /* \"contracts/SafeClub.sol\":2771:2783  _description */\n      dup8\n      dup8\n        /* \"contracts/SafeClub.sol\":2735:2784  ProposalCreated(p.id, _to, _amount, _description) */\n      mload(0x40)\n      tag_125\n      swap6\n      swap5\n      swap4\n      swap3\n      swap2\n      swap1\n      tag_126\n      jump\t// in\n    tag_125:\n      mload(0x40)\n      dup1\n      swap2\n      sub\n      swap1\n      log1\n        /* \"contracts/SafeClub.sol\":2392:2792  {... */\n      pop\n        /* \"contracts/SafeClub.sol\":2224:2792  function createProposal(... */\n      pop\n      pop\n      pop\n      pop\n      pop\n      jump\t// out\n        /* \"https://github.com/OpenZeppelin/openzeppelin-contracts/blob/master/contracts/access/Ownable.sol\":1638:1723  function owner() public view virtual returns (address) {... */\n    tag_40:\n        /* \"https://github.com/OpenZeppelin/openzeppelin-contracts/blob/master/contracts/access/Ownable.sol\":1684:1691  address */\n      0x00\n        /* \"https://github.com/OpenZeppelin/openzeppelin-contracts/blob/master/contracts/access/Ownable.sol\":1710:1716  _owner */\n      0x00\n      0x00\n      swap1\n      sload\n      swap1\n      0x0100\n      exp\n      swap1\n      div\n      0xffffffffffffffffffffffffffffffffffffffff\n      and\n        /* \"https://github.com/OpenZeppelin/openzeppelin-contracts/blob/master/contracts/access/Ownable.sol\":1703:1716  return _owner */\n      swap1\n      pop\n        /* \"https://github.com/OpenZeppelin/openzeppelin-contracts/blob/master/contracts/access/Ownable.sol\":1638:1723  function owner() public view virtual returns (address) {... */\n      swap1\n      jump\t// out\n        /* \"contracts/SafeClub.sol\":2081:2177  function getMembers() external view returns (address[] memory) {... */\n    tag_45:\n        /* \"contracts/SafeClub.sol\":2126:2142  address[] memory */\n      0x60\n        /* \"contracts/SafeClub.sol\":2162:2169  members */\n      0x02\n        /* \"contracts/SafeClub.sol\":2155:2169  return members */\n      dup1\n      sload\n      dup1\n      0x20\n      mul\n      0x20\n      add\n      mload(0x40)\n      swap1\n      dup2\n      add\n      0x40\n      mstore\n      dup1\n      swap3\n      swap2\n      swap1\n      dup2\n      dup2\n      mstore\n      0x20\n      add\n      dup3\n      dup1\n      sload\n      dup1\n      iszero\n      tag_129\n      jumpi\n      0x20\n      mul\n      dup3\n      add\n      swap2\n      swap1\n      0x00\n      mstore\n      keccak256(0x00, 0x20)\n      swap1\n    tag_130:\n      dup2\n      0x00\n      swap1\n      sload\n      swap1\n      0x0100\n      exp\n      swap1\n      div\n      0xffffffffffffffffffffffffffffffffffffffff\n      and\n      0xffffffffffffffffffffffffffffffffffffffff\n      and\n      dup2\n      mstore\n      0x20\n      add\n      swap1\n      0x01\n      add\n      swap1\n      dup1\n      dup4\n      gt\n      tag_130\n      jumpi\n    tag_129:\n      pop\n      pop\n      pop\n      pop\n      pop\n      swap1\n      pop\n        /* \"contracts/SafeClub.sol\":2081:2177  function getMembers() external view returns (address[] memory) {... */\n      swap1\n      jump\t// out\n        /* \"contracts/SafeClub.sol\":367:407  mapping(address => bool) public isMember */\n    tag_51:\n      mstore(0x20, 0x01)\n      dup1\n      0x00\n      mstore\n      keccak256(0x00, 0x40)\n      0x00\n      swap2\n      pop\n      sload\n      swap1\n      0x0100\n      exp\n      swap1\n      div\n      0xff\n      and\n      dup2\n      jump\t// out\n        /* \"contracts/SafeClub.sol\":2825:3214  function vote(uint _id, bool support) external onlyMember {... */\n    tag_58:\n        /* \"contracts/SafeClub.sol\":573:581  isMember */\n      0x01\n        /* \"contracts/SafeClub.sol\":573:593  isMember[msg.sender] */\n      0x00\n        /* \"contracts/SafeClub.sol\":582:592  msg.sender */\n      caller\n        /* \"contracts/SafeClub.sol\":573:593  isMember[msg.sender] */\n      0xffffffffffffffffffffffffffffffffffffffff\n      and\n      0xffffffffffffffffffffffffffffffffffffffff\n      and\n      dup2\n      mstore\n      0x20\n      add\n      swap1\n      dup2\n      mstore\n      0x20\n      add\n      0x00\n      keccak256\n      0x00\n      swap1\n      sload\n      swap1\n      0x0100\n      exp\n      swap1\n      div\n      0xff\n      and\n        /* \"contracts/SafeClub.sol\":565:610  require(isMember[msg.sender], \"Not a member\") */\n      tag_132\n      jumpi\n      mload(0x40)\n      0x08c379a000000000000000000000000000000000000000000000000000000000\n      dup2\n      mstore\n      0x04\n      add\n      tag_133\n      swap1\n      tag_114\n      jump\t// in\n    tag_133:\n      mload(0x40)\n      dup1\n      swap2\n      sub\n      swap1\n      revert\n    tag_132:\n        /* \"contracts/SafeClub.sol\":2894:2912  Proposal storage p */\n      0x00\n        /* \"contracts/SafeClub.sol\":2915:2924  proposals */\n      0x04\n        /* \"contracts/SafeClub.sol\":2915:2929  proposals[_id] */\n      0x00\n        /* \"contracts/SafeClub.sol\":2925:2928  _id */\n      dup5\n        /* \"contracts/SafeClub.sol\":2915:2929  proposals[_id] */\n      dup2\n      mstore\n      0x20\n      add\n      swap1\n      dup2\n      mstore\n      0x20\n      add\n      0x00\n      keccak256\n        /* \"contracts/SafeClub.sol\":2894:2929  Proposal storage p = proposals[_id] */\n      swap1\n      pop\n        /* \"contracts/SafeClub.sol\":2966:2967  p */\n      dup1\n        /* \"contracts/SafeClub.sol\":2966:2976  p.deadline */\n      0x04\n      add\n      sload\n        /* \"contracts/SafeClub.sol\":2948:2963  block.timestamp */\n      timestamp\n        /* \"contracts/SafeClub.sol\":2948:2976  block.timestamp < p.deadline */\n      lt\n        /* \"contracts/SafeClub.sol\":2940:2993  require(block.timestamp < p.deadline, \"Voting ended\") */\n      tag_135\n      jumpi\n      mload(0x40)\n      0x08c379a000000000000000000000000000000000000000000000000000000000\n      dup2\n      mstore\n      0x04\n      add\n      tag_136\n      swap1\n      tag_137\n      jump\t// in\n    tag_136:\n      mload(0x40)\n      dup1\n      swap2\n      sub\n      swap1\n      revert\n    tag_135:\n        /* \"contracts/SafeClub.sol\":3013:3014  p */\n      dup1\n        /* \"contracts/SafeClub.sol\":3013:3020  p.voted */\n      0x08\n      add\n        /* \"contracts/SafeClub.sol\":3013:3032  p.voted[msg.sender] */\n      0x00\n        /* \"contracts/SafeClub.sol\":3021:3031  msg.sender */\n      caller\n        /* \"contracts/SafeClub.sol\":3013:3032  p.voted[msg.sender] */\n      0xffffffffffffffffffffffffffffffffffffffff\n      and\n      0xffffffffffffffffffffffffffffffffffffffff\n      and\n      dup2\n      mstore\n      0x20\n      add\n      swap1\n      dup2\n      mstore\n      0x20\n      add\n      0x00\n      keccak256\n      0x00\n      swap1\n      sload\n      swap1\n      0x0100\n      exp\n      swap1\n      div\n      0xff\n      and\n        /* \"contracts/SafeClub.sol\":3012:3032  !p.voted[msg.sender] */\n      iszero\n        /* \"contracts/SafeClub.sol\":3004:3050  require(!p.voted[msg.sender], \"Already voted\") */\n      tag_138\n      jumpi\n      mload(0x40)\n      0x08c379a000000000000000000000000000000000000000000000000000000000\n      dup2\n      mstore\n      0x04\n      add\n      tag_139\n      swap1\n      tag_140\n      jump\t// in\n    tag_139:\n      mload(0x40)\n      dup1\n      swap2\n      sub\n      swap1\n      revert\n    tag_138:\n        /* \"contracts/SafeClub.sol\":3085:3089  true */\n      0x01\n        /* \"contracts/SafeClub.sol\":3063:3064  p */\n      dup2\n        /* \"contracts/SafeClub.sol\":3063:3070  p.voted */\n      0x08\n      add\n        /* \"contracts/SafeClub.sol\":3063:3082  p.voted[msg.sender] */\n      0x00\n        /* \"contracts/SafeClub.sol\":3071:3081  msg.sender */\n      caller\n        /* \"contracts/SafeClub.sol\":3063:3082  p.voted[msg.sender] */\n      0xffffffffffffffffffffffffffffffffffffffff\n      and\n      0xffffffffffffffffffffffffffffffffffffffff\n      and\n      dup2\n      mstore\n      0x20\n      add\n      swap1\n      dup2\n      mstore\n      0x20\n      add\n      0x00\n      keccak256\n      0x00\n        /* \"contracts/SafeClub.sol\":3063:3089  p.voted[msg.sender] = true */\n      0x0100\n      exp\n      dup2\n      sload\n      dup2\n      0xff\n      mul\n      not\n      and\n      swap1\n      dup4\n      iszero\n      iszero\n      mul\n      or\n      swap1\n      sstore\n      pop\n        /* \"contracts/SafeClub.sol\":3104:3111  support */\n      dup2\n        /* \"contracts/SafeClub.sol\":3100:3157  if (support) p.forVotes++;... */\n      iszero\n      tag_141\n      jumpi\n        /* \"contracts/SafeClub.sol\":3113:3114  p */\n      dup1\n        /* \"contracts/SafeClub.sol\":3113:3123  p.forVotes */\n      0x06\n      add\n      0x00\n        /* \"contracts/SafeClub.sol\":3113:3125  p.forVotes++ */\n      dup2\n      sload\n      dup1\n      swap3\n      swap2\n      swap1\n      tag_142\n      swap1\n      tag_120\n      jump\t// in\n    tag_142:\n      swap2\n      swap1\n      pop\n      sstore\n      pop\n        /* \"contracts/SafeClub.sol\":3100:3157  if (support) p.forVotes++;... */\n      jump(tag_143)\n    tag_141:\n        /* \"contracts/SafeClub.sol\":3141:3142  p */\n      dup1\n        /* \"contracts/SafeClub.sol\":3141:3155  p.againstVotes */\n      0x07\n      add\n      0x00\n        /* \"contracts/SafeClub.sol\":3141:3157  p.againstVotes++ */\n      dup2\n      sload\n      dup1\n      swap3\n      swap2\n      swap1\n      tag_144\n      swap1\n      tag_120\n      jump\t// in\n    tag_144:\n      swap2\n      swap1\n      pop\n      sstore\n      pop\n        /* \"contracts/SafeClub.sol\":3100:3157  if (support) p.forVotes++;... */\n    tag_143:\n        /* \"contracts/SafeClub.sol\":3175:3206  Voted(_id, msg.sender, support) */\n      0xf2913dbe661ee2acc4a046d8fbcdc792373bda34c41c6086484b5345e5785e5f\n        /* \"contracts/SafeClub.sol\":3181:3184  _id */\n      dup4\n        /* \"contracts/SafeClub.sol\":3186:3196  msg.sender */\n      caller\n        /* \"contracts/SafeClub.sol\":3198:3205  support */\n      dup5\n        /* \"contracts/SafeClub.sol\":3175:3206  Voted(_id, msg.sender, support) */\n      mload(0x40)\n      tag_145\n      swap4\n      swap3\n      swap2\n      swap1\n      tag_146\n      jump\t// in\n    tag_145:\n      mload(0x40)\n      dup1\n      swap2\n      sub\n      swap1\n      log1\n        /* \"contracts/SafeClub.sol\":2883:3214  {... */\n      pop\n        /* \"contracts/SafeClub.sol\":2825:3214  function vote(uint _id, bool support) external onlyMember {... */\n      pop\n      pop\n      jump\t// out\n        /* \"contracts/SafeClub.sol\":1464:1661  function addMember(address _m) external onlyOwner {... */\n    tag_62:\n        /* \"https://github.com/OpenZeppelin/openzeppelin-contracts/blob/master/contracts/access/Ownable.sol\":1531:1544  _checkOwner() */\n      tag_148\n        /* \"https://github.com/OpenZeppelin/openzeppelin-contracts/blob/master/contracts/access/Ownable.sol\":1531:1542  _checkOwner */\n      tag_80\n        /* \"https://github.com/OpenZeppelin/openzeppelin-contracts/blob/master/contracts/access/Ownable.sol\":1531:1544  _checkOwner() */\n      jump\t// in\n    tag_148:\n        /* \"contracts/SafeClub.sol\":1534:1542  isMember */\n      0x01\n        /* \"contracts/SafeClub.sol\":1534:1546  isMember[_m] */\n      0x00\n        /* \"contracts/SafeClub.sol\":1543:1545  _m */\n      dup3\n        /* \"contracts/SafeClub.sol\":1534:1546  isMember[_m] */\n      0xffffffffffffffffffffffffffffffffffffffff\n      and\n      0xffffffffffffffffffffffffffffffffffffffff\n      and\n      dup2\n      mstore\n      0x20\n      add\n      swap1\n      dup2\n      mstore\n      0x20\n      add\n      0x00\n      keccak256\n      0x00\n      swap1\n      sload\n      swap1\n      0x0100\n      exp\n      swap1\n      div\n      0xff\n      and\n        /* \"contracts/SafeClub.sol\":1533:1546  !isMember[_m] */\n      iszero\n        /* \"contracts/SafeClub.sol\":1525:1565  require(!isMember[_m], \"Already member\") */\n      tag_150\n      jumpi\n      mload(0x40)\n      0x08c379a000000000000000000000000000000000000000000000000000000000\n      dup2\n      mstore\n      0x04\n      add\n      tag_151\n      swap1\n      tag_152\n      jump\t// in\n    tag_151:\n      mload(0x40)\n      dup1\n      swap2\n      sub\n      swap1\n      revert\n    tag_150:\n        /* \"contracts/SafeClub.sol\":1591:1595  true */\n      0x01\n        /* \"contracts/SafeClub.sol\":1576:1584  isMember */\n      dup1\n        /* \"contracts/SafeClub.sol\":1576:1588  isMember[_m] */\n      0x00\n        /* \"contracts/SafeClub.sol\":1585:1587  _m */\n      dup4\n        /* \"contracts/SafeClub.sol\":1576:1588  isMember[_m] */\n      0xffffffffffffffffffffffffffffffffffffffff\n      and\n      0xffffffffffffffffffffffffffffffffffffffff\n      and\n      dup2\n      mstore\n      0x20\n      add\n      swap1\n      dup2\n      mstore\n      0x20\n      add\n      0x00\n      keccak256\n      0x00\n        /* \"contracts/SafeClub.sol\":1576:1595  isMember[_m] = true */\n      0x0100\n      exp\n      dup2\n      sload\n      dup2\n      0xff\n      mul\n      not\n      and\n      swap1\n      dup4\n      iszero\n      iszero\n      mul\n      or\n      swap1\n      sstore\n      pop\n        /* \"contracts/SafeClub.sol\":1606:1613  members */\n      0x02\n        /* \"contracts/SafeClub.sol\":1619:1621  _m */\n      dup2\n        /* \"contracts/SafeClub.sol\":1606:1622  members.push(_m) */\n      swap1\n      dup1\n      0x01\n      dup2\n      sload\n      add\n      dup1\n      dup3\n      sstore\n      dup1\n      swap2\n      pop\n      pop\n      0x01\n      swap1\n      sub\n      swap1\n      0x00\n      mstore\n      keccak256(0x00, 0x20)\n      add\n      0x00\n      swap1\n      swap2\n      swap1\n      swap2\n      swap1\n      swap2\n      0x0100\n      exp\n      dup2\n      sload\n      dup2\n      0xffffffffffffffffffffffffffffffffffffffff\n      mul\n      not\n      and\n      swap1\n      dup4\n      0xffffffffffffffffffffffffffffffffffffffff\n      and\n      mul\n      or\n      swap1\n      sstore\n      pop\n        /* \"contracts/SafeClub.sol\":1638:1653  MemberAdded(_m) */\n      0xb251eb052afc73ffd02ffe85ad79990a8b3fed60d76dbc2fa2fdd7123dffd914\n        /* \"contracts/SafeClub.sol\":1650:1652  _m */\n      dup2\n        /* \"contracts/SafeClub.sol\":1638:1653  MemberAdded(_m) */\n      mload(0x40)\n      tag_154\n      swap2\n      swap1\n      tag_42\n      jump\t// in\n    tag_154:\n      mload(0x40)\n      dup1\n      swap2\n      sub\n      swap1\n      log1\n        /* \"contracts/SafeClub.sol\":1464:1661  function addMember(address _m) external onlyOwner {... */\n      pop\n      jump\t// out\n        /* \"contracts/SafeClub.sol\":1382:1420  function deposit() external payable {} */\n    tag_64:\n      jump\t// out\n        /* \"contracts/SafeClub.sol\":942:967  uint public proposalCount */\n    tag_67:\n      sload(0x03)\n      dup2\n      jump\t// out\n        /* \"https://github.com/OpenZeppelin/openzeppelin-contracts/blob/master/contracts/access/Ownable.sol\":2543:2758  function transferOwnership(address newOwner) public virtual onlyOwner {... */\n    tag_72:\n        /* \"https://github.com/OpenZeppelin/openzeppelin-contracts/blob/master/contracts/access/Ownable.sol\":1531:1544  _checkOwner() */\n      tag_157\n        /* \"https://github.com/OpenZeppelin/openzeppelin-contracts/blob/master/contracts/access/Ownable.sol\":1531:1542  _checkOwner */\n      tag_80\n        /* \"https://github.com/OpenZeppelin/openzeppelin-contracts/blob/master/contracts/access/Ownable.sol\":1531:1544  _checkOwner() */\n      jump\t// in\n    tag_157:\n        /* \"https://github.com/OpenZeppelin/openzeppelin-contracts/blob/master/contracts/access/Ownable.sol\":2647:2648  0 */\n      0x00\n        /* \"https://github.com/OpenZeppelin/openzeppelin-contracts/blob/master/contracts/access/Ownable.sol\":2627:2649  newOwner == address(0) */\n      0xffffffffffffffffffffffffffffffffffffffff\n      and\n        /* \"https://github.com/OpenZeppelin/openzeppelin-contracts/blob/master/contracts/access/Ownable.sol\":2627:2635  newOwner */\n      dup2\n        /* \"https://github.com/OpenZeppelin/openzeppelin-contracts/blob/master/contracts/access/Ownable.sol\":2627:2649  newOwner == address(0) */\n      0xffffffffffffffffffffffffffffffffffffffff\n      and\n      sub\n        /* \"https://github.com/OpenZeppelin/openzeppelin-contracts/blob/master/contracts/access/Ownable.sol\":2623:2714  if (newOwner == address(0)) {... */\n      tag_159\n      jumpi\n        /* \"https://github.com/OpenZeppelin/openzeppelin-contracts/blob/master/contracts/access/Ownable.sol\":2700:2701  0 */\n      0x00\n        /* \"https://github.com/OpenZeppelin/openzeppelin-contracts/blob/master/contracts/access/Ownable.sol\":2672:2703  OwnableInvalidOwner(address(0)) */\n      mload(0x40)\n      0x1e4fbdf700000000000000000000000000000000000000000000000000000000\n      dup2\n      mstore\n      0x04\n      add\n      tag_160\n      swap2\n      swap1\n      tag_42\n      jump\t// in\n    tag_160:\n      mload(0x40)\n      dup1\n      swap2\n      sub\n      swap1\n      revert\n        /* \"https://github.com/OpenZeppelin/openzeppelin-contracts/blob/master/contracts/access/Ownable.sol\":2623:2714  if (newOwner == address(0)) {... */\n    tag_159:\n        /* \"https://github.com/OpenZeppelin/openzeppelin-contracts/blob/master/contracts/access/Ownable.sol\":2723:2751  _transferOwnership(newOwner) */\n      tag_161\n        /* \"https://github.com/OpenZeppelin/openzeppelin-contracts/blob/master/contracts/access/Ownable.sol\":2742:2750  newOwner */\n      dup2\n        /* \"https://github.com/OpenZeppelin/openzeppelin-contracts/blob/master/contracts/access/Ownable.sol\":2723:2741  _transferOwnership */\n      tag_110\n        /* \"https://github.com/OpenZeppelin/openzeppelin-contracts/blob/master/contracts/access/Ownable.sol\":2723:2751  _transferOwnership(newOwner) */\n      jump\t// in\n    tag_161:\n        /* \"https://github.com/OpenZeppelin/openzeppelin-contracts/blob/master/contracts/access/Ownable.sol\":2543:2758  function transferOwnership(address newOwner) public virtual onlyOwner {... */\n      pop\n      jump\t// out\n        /* \"contracts/SafeClub.sol\":3253:3747  function execute(uint _id) external nonReentrant {... */\n    tag_77:\n        /* \"https://github.com/OpenZeppelin/openzeppelin-contracts/blob/master/contracts/utils/ReentrancyGuard.sol\":3023:3044  _nonReentrantBefore() */\n      tag_163\n        /* \"https://github.com/OpenZeppelin/openzeppelin-contracts/blob/master/contracts/utils/ReentrancyGuard.sol\":3023:3042  _nonReentrantBefore */\n      tag_164\n        /* \"https://github.com/OpenZeppelin/openzeppelin-contracts/blob/master/contracts/utils/ReentrancyGuard.sol\":3023:3044  _nonReentrantBefore() */\n      jump\t// in\n    tag_163:\n        /* \"contracts/SafeClub.sol\":3313:3331  Proposal storage p */\n      0x00\n        /* \"contracts/SafeClub.sol\":3334:3343  proposals */\n      0x04\n        /* \"contracts/SafeClub.sol\":3334:3348  proposals[_id] */\n      0x00\n        /* \"contracts/SafeClub.sol\":3344:3347  _id */\n      dup4\n        /* \"contracts/SafeClub.sol\":3334:3348  proposals[_id] */\n      dup2\n      mstore\n      0x20\n      add\n      swap1\n      dup2\n      mstore\n      0x20\n      add\n      0x00\n      keccak256\n        /* \"contracts/SafeClub.sol\":3313:3348  Proposal storage p = proposals[_id] */\n      swap1\n      pop\n        /* \"contracts/SafeClub.sol\":3368:3369  p */\n      dup1\n        /* \"contracts/SafeClub.sol\":3368:3378  p.executed */\n      0x05\n      add\n      0x00\n      swap1\n      sload\n      swap1\n      0x0100\n      exp\n      swap1\n      div\n      0xff\n      and\n        /* \"contracts/SafeClub.sol\":3367:3378  !p.executed */\n      iszero\n        /* \"contracts/SafeClub.sol\":3359:3399  require(!p.executed, \"Already executed\") */\n      tag_166\n      jumpi\n      mload(0x40)\n      0x08c379a000000000000000000000000000000000000000000000000000000000\n      dup2\n      mstore\n      0x04\n      add\n      tag_167\n      swap1\n      tag_168\n      jump\t// in\n    tag_167:\n      mload(0x40)\n      dup1\n      swap2\n      sub\n      swap1\n      revert\n    tag_166:\n        /* \"contracts/SafeClub.sol\":3437:3438  p */\n      dup1\n        /* \"contracts/SafeClub.sol\":3437:3447  p.deadline */\n      0x04\n      add\n      sload\n        /* \"contracts/SafeClub.sol\":3418:3433  block.timestamp */\n      timestamp\n        /* \"contracts/SafeClub.sol\":3418:3447  block.timestamp >= p.deadline */\n      lt\n      iszero\n        /* \"contracts/SafeClub.sol\":3410:3461  require(block.timestamp >= p.deadline, \"Too early\") */\n      tag_169\n      jumpi\n      mload(0x40)\n      0x08c379a000000000000000000000000000000000000000000000000000000000\n      dup2\n      mstore\n      0x04\n      add\n      tag_170\n      swap1\n      tag_171\n      jump\t// in\n    tag_170:\n      mload(0x40)\n      dup1\n      swap2\n      sub\n      swap1\n      revert\n    tag_169:\n        /* \"contracts/SafeClub.sol\":3494:3500  quorum */\n      sload(0x05)\n        /* \"contracts/SafeClub.sol\":3480:3481  p */\n      dup2\n        /* \"contracts/SafeClub.sol\":3480:3490  p.forVotes */\n      0x06\n      add\n      sload\n        /* \"contracts/SafeClub.sol\":3480:3500  p.forVotes >= quorum */\n      lt\n      iszero\n        /* \"contracts/SafeClub.sol\":3472:3523  require(p.forVotes >= quorum, \"Quorum not reached\") */\n      tag_172\n      jumpi\n      mload(0x40)\n      0x08c379a000000000000000000000000000000000000000000000000000000000\n      dup2\n      mstore\n      0x04\n      add\n      tag_173\n      swap1\n      tag_174\n      jump\t// in\n    tag_173:\n      mload(0x40)\n      dup1\n      swap2\n      sub\n      swap1\n      revert\n    tag_172:\n        /* \"contracts/SafeClub.sol\":3555:3556  p */\n      dup1\n        /* \"contracts/SafeClub.sol\":3555:3569  p.againstVotes */\n      0x07\n      add\n      sload\n        /* \"contracts/SafeClub.sol\":3542:3543  p */\n      dup2\n        /* \"contracts/SafeClub.sol\":3542:3552  p.forVotes */\n      0x06\n      add\n      sload\n        /* \"contracts/SafeClub.sol\":3542:3569  p.forVotes > p.againstVotes */\n      gt\n        /* \"contracts/SafeClub.sol\":3534:3582  require(p.forVotes > p.againstVotes, \"Rejected\") */\n      tag_175\n      jumpi\n      mload(0x40)\n      0x08c379a000000000000000000000000000000000000000000000000000000000\n      dup2\n      mstore\n      0x04\n      add\n      tag_176\n      swap1\n      tag_177\n      jump\t// in\n    tag_176:\n      mload(0x40)\n      dup1\n      swap2\n      sub\n      swap1\n      revert\n    tag_175:\n        /* \"contracts/SafeClub.sol\":3608:3612  true */\n      0x01\n        /* \"contracts/SafeClub.sol\":3595:3596  p */\n      dup2\n        /* \"contracts/SafeClub.sol\":3595:3605  p.executed */\n      0x05\n      add\n      0x00\n        /* \"contracts/SafeClub.sol\":3595:3612  p.executed = true */\n      0x0100\n      exp\n      dup2\n      sload\n      dup2\n      0xff\n      mul\n      not\n      and\n      swap1\n      dup4\n      iszero\n      iszero\n      mul\n      or\n      swap1\n      sstore\n      pop\n        /* \"contracts/SafeClub.sol\":3624:3631  bool ok */\n      0x00\n        /* \"contracts/SafeClub.sol\":3637:3638  p */\n      dup2\n        /* \"contracts/SafeClub.sol\":3637:3641  p.to */\n      0x01\n      add\n      0x00\n      swap1\n      sload\n      swap1\n      0x0100\n      exp\n      swap1\n      div\n      0xffffffffffffffffffffffffffffffffffffffff\n      and\n        /* \"contracts/SafeClub.sol\":3637:3646  p.to.call */\n      0xffffffffffffffffffffffffffffffffffffffff\n      and\n        /* \"contracts/SafeClub.sol\":3654:3655  p */\n      dup3\n        /* \"contracts/SafeClub.sol\":3654:3662  p.amount */\n      0x02\n      add\n      sload\n        /* \"contracts/SafeClub.sol\":3637:3667  p.to.call{value: p.amount}(\"\") */\n      mload(0x40)\n      tag_178\n      swap1\n      tag_179\n      jump\t// in\n    tag_178:\n      0x00\n      mload(0x40)\n      dup1\n      dup4\n      sub\n      dup2\n      dup6\n      dup8\n      gas\n      call\n      swap3\n      pop\n      pop\n      pop\n      returndatasize\n      dup1\n      0x00\n      dup2\n      eq\n      tag_182\n      jumpi\n      mload(0x40)\n      swap2\n      pop\n      and(add(returndatasize, 0x3f), not(0x1f))\n      dup3\n      add\n      0x40\n      mstore\n      returndatasize\n      dup3\n      mstore\n      returndatasize\n      0x00\n      0x20\n      dup5\n      add\n      returndatacopy\n      jump(tag_181)\n    tag_182:\n      0x60\n      swap2\n      pop\n    tag_181:\n      pop\n        /* \"contracts/SafeClub.sol\":3623:3667  (bool ok, ) = p.to.call{value: p.amount}(\"\") */\n      pop\n      swap1\n      pop\n        /* \"contracts/SafeClub.sol\":3686:3688  ok */\n      dup1\n        /* \"contracts/SafeClub.sol\":3678:3708  require(ok, \"Transfer failed\") */\n      tag_183\n      jumpi\n      mload(0x40)\n      0x08c379a000000000000000000000000000000000000000000000000000000000\n      dup2\n      mstore\n      0x04\n      add\n      tag_184\n      swap1\n      tag_185\n      jump\t// in\n    tag_184:\n      mload(0x40)\n      dup1\n      swap2\n      sub\n      swap1\n      revert\n    tag_183:\n        /* \"contracts/SafeClub.sol\":3726:3739  Executed(_id) */\n      0xbcf6a68a2f901be4a23a41b53acd7697893a7e34def4e28acba584da75283b67\n        /* \"contracts/SafeClub.sol\":3735:3738  _id */\n      dup4\n        /* \"contracts/SafeClub.sol\":3726:3739  Executed(_id) */\n      mload(0x40)\n      tag_186\n      swap2\n      swap1\n      tag_29\n      jump\t// in\n    tag_186:\n      mload(0x40)\n      dup1\n      swap2\n      sub\n      swap1\n      log1\n        /* \"contracts/SafeClub.sol\":3302:3747  {... */\n      pop\n      pop\n        /* \"https://github.com/OpenZeppelin/openzeppelin-contracts/blob/master/contracts/utils/ReentrancyGuard.sol\":3065:3085  _nonReentrantAfter() */\n      tag_187\n        /* \"https://github.com/OpenZeppelin/openzeppelin-contracts/blob/master/contracts/utils/ReentrancyGuard.sol\":3065:3083  _nonReentrantAfter */\n      tag_188\n        /* \"https://github.com/OpenZeppelin/openzeppelin-contracts/blob/master/contracts/utils/ReentrancyGuard.sol\":3065:3085  _nonReentrantAfter() */\n      jump\t// in\n    tag_187:\n        /* \"contracts/SafeClub.sol\":3253:3747  function execute(uint _id) external nonReentrant {... */\n      pop\n      jump\t// out\n        /* \"https://github.com/OpenZeppelin/openzeppelin-contracts/blob/master/contracts/access/Ownable.sol\":1796:1958  function _checkOwner() internal view virtual {... */\n    tag_80:\n        /* \"https://github.com/OpenZeppelin/openzeppelin-contracts/blob/master/contracts/access/Ownable.sol\":1866:1878  _msgSender() */\n      tag_190\n        /* \"https://github.com/OpenZeppelin/openzeppelin-contracts/blob/master/contracts/access/Ownable.sol\":1866:1876  _msgSender */\n      tag_191\n        /* \"https://github.com/OpenZeppelin/openzeppelin-contracts/blob/master/contracts/access/Ownable.sol\":1866:1878  _msgSender() */\n      jump\t// in\n    tag_190:\n        /* \"https://github.com/OpenZeppelin/openzeppelin-contracts/blob/master/contracts/access/Ownable.sol\":1855:1878  owner() != _msgSender() */\n      0xffffffffffffffffffffffffffffffffffffffff\n      and\n        /* \"https://github.com/OpenZeppelin/openzeppelin-contracts/blob/master/contracts/access/Ownable.sol\":1855:1862  owner() */\n      tag_192\n        /* \"https://github.com/OpenZeppelin/openzeppelin-contracts/blob/master/contracts/access/Ownable.sol\":1855:1860  owner */\n      tag_40\n        /* \"https://github.com/OpenZeppelin/openzeppelin-contracts/blob/master/contracts/access/Ownable.sol\":1855:1862  owner() */\n      jump\t// in\n    tag_192:\n        /* \"https://github.com/OpenZeppelin/openzeppelin-contracts/blob/master/contracts/access/Ownable.sol\":1855:1878  owner() != _msgSender() */\n      0xffffffffffffffffffffffffffffffffffffffff\n      and\n      eq\n        /* \"https://github.com/OpenZeppelin/openzeppelin-contracts/blob/master/contracts/access/Ownable.sol\":1851:1952  if (owner() != _msgSender()) {... */\n      tag_193\n      jumpi\n        /* \"https://github.com/OpenZeppelin/openzeppelin-contracts/blob/master/contracts/access/Ownable.sol\":1928:1940  _msgSender() */\n      tag_194\n        /* \"https://github.com/OpenZeppelin/openzeppelin-contracts/blob/master/contracts/access/Ownable.sol\":1928:1938  _msgSender */\n      tag_191\n        /* \"https://github.com/OpenZeppelin/openzeppelin-contracts/blob/master/contracts/access/Ownable.sol\":1928:1940  _msgSender() */\n      jump\t// in\n    tag_194:\n        /* \"https://github.com/OpenZeppelin/openzeppelin-contracts/blob/master/contracts/access/Ownable.sol\":1901:1941  OwnableUnauthorizedAccount(_msgSender()) */\n      mload(0x40)\n      0x118cdaa700000000000000000000000000000000000000000000000000000000\n      dup2\n      mstore\n      0x04\n      add\n      tag_195\n      swap2\n      swap1\n      tag_42\n      jump\t// in\n    tag_195:\n      mload(0x40)\n      dup1\n      swap2\n      sub\n      swap1\n      revert\n        /* \"https://github.com/OpenZeppelin/openzeppelin-contracts/blob/master/contracts/access/Ownable.sol\":1851:1952  if (owner() != _msgSender()) {... */\n    tag_193:\n        /* \"https://github.com/OpenZeppelin/openzeppelin-contracts/blob/master/contracts/access/Ownable.sol\":1796:1958  function _checkOwner() internal view virtual {... */\n      jump\t// out\n        /* \"https://github.com/OpenZeppelin/openzeppelin-contracts/blob/master/contracts/access/Ownable.sol\":2912:3099  function _transferOwnership(address newOwner) internal virtual {... */\n    tag_110:\n        /* \"https://github.com/OpenZeppelin/openzeppelin-contracts/blob/master/contracts/access/Ownable.sol\":2985:3001  address oldOwner */\n      0x00\n        /* \"https://github.com/OpenZeppelin/openzeppelin-contracts/blob/master/contracts/access/Ownable.sol\":3004:3010  _owner */\n      0x00\n      0x00\n      swap1\n      sload\n      swap1\n      0x0100\n      exp\n      swap1\n      div\n      0xffffffffffffffffffffffffffffffffffffffff\n      and\n        /* \"https://github.com/OpenZeppelin/openzeppelin-contracts/blob/master/contracts/access/Ownable.sol\":2985:3010  address oldOwner = _owner */\n      swap1\n      pop\n        /* \"https://github.com/OpenZeppelin/openzeppelin-contracts/blob/master/contracts/access/Ownable.sol\":3029:3037  newOwner */\n      dup2\n        /* \"https://github.com/OpenZeppelin/openzeppelin-contracts/blob/master/contracts/access/Ownable.sol\":3020:3026  _owner */\n      0x00\n      0x00\n        /* \"https://github.com/OpenZeppelin/openzeppelin-contracts/blob/master/contracts/access/Ownable.sol\":3020:3037  _owner = newOwner */\n      0x0100\n      exp\n      dup2\n      sload\n      dup2\n      0xffffffffffffffffffffffffffffffffffffffff\n      mul\n      not\n      and\n      swap1\n      dup4\n      0xffffffffffffffffffffffffffffffffffffffff\n      and\n      mul\n      or\n      swap1\n      sstore\n      pop\n        /* \"https://github.com/OpenZeppelin/openzeppelin-contracts/blob/master/contracts/access/Ownable.sol\":3083:3091  newOwner */\n      dup2\n        /* \"https://github.com/OpenZeppelin/openzeppelin-contracts/blob/master/contracts/access/Ownable.sol\":3052:3092  OwnershipTransferred(oldOwner, newOwner) */\n      0xffffffffffffffffffffffffffffffffffffffff\n      and\n        /* \"https://github.com/OpenZeppelin/openzeppelin-contracts/blob/master/contracts/access/Ownable.sol\":3073:3081  oldOwner */\n      dup2\n        /* \"https://github.com/OpenZeppelin/openzeppelin-contracts/blob/master/contracts/access/Ownable.sol\":3052:3092  OwnershipTransferred(oldOwner, newOwner) */\n      0xffffffffffffffffffffffffffffffffffffffff\n      and\n      0x8be0079c531659141344cd1fd0a4f28419497f9722a3daafe3b4186f6b6457e0\n      mload(0x40)\n      mload(0x40)\n      dup1\n      swap2\n      sub\n      swap1\n      log3\n        /* \"https://github.com/OpenZeppelin/openzeppelin-contracts/blob/master/contracts/access/Ownable.sol\":2975:3099  {... */\n      pop\n        /* \"https://github.com/OpenZeppelin/openzeppelin-contracts/blob/master/contracts/access/Ownable.sol\":2912:3099  function _transferOwnership(address newOwner) internal virtual {... */\n      pop\n      jump\t// out\n        /* \"https://github.com/OpenZeppelin/openzeppelin-contracts/blob/master/contracts/utils/ReentrancyGuard.sol\":3749:4041  function _nonReentrantBefore() private {... */\n    tag_164:\n        /* \"https://github.com/OpenZeppelin/openzeppelin-contracts/blob/master/contracts/utils/ReentrancyGuard.sol\":3872:3897  _nonReentrantBeforeView() */\n      tag_198\n        /* \"https://github.com/OpenZeppelin/openzeppelin-contracts/blob/master/contracts/utils/ReentrancyGuard.sol\":3872:3895  _nonReentrantBeforeView */\n      tag_199\n        /* \"https://github.com/OpenZeppelin/openzeppelin-contracts/blob/master/contracts/utils/ReentrancyGuard.sol\":3872:3897  _nonReentrantBeforeView() */\n      jump\t// in\n    tag_198:\n        /* \"https://github.com/OpenZeppelin/openzeppelin-contracts/blob/master/contracts/utils/ReentrancyGuard.sol\":2407:2408  2 */\n      0x02\n        /* \"https://github.com/OpenZeppelin/openzeppelin-contracts/blob/master/contracts/utils/ReentrancyGuard.sol\":3972:4018  _reentrancyGuardStorageSlot().getUint256Slot() */\n      tag_200\n        /* \"https://github.com/OpenZeppelin/openzeppelin-contracts/blob/master/contracts/utils/ReentrancyGuard.sol\":3972:4001  _reentrancyGuardStorageSlot() */\n      tag_201\n        /* \"https://github.com/OpenZeppelin/openzeppelin-contracts/blob/master/contracts/utils/ReentrancyGuard.sol\":3972:3999  _reentrancyGuardStorageSlot */\n      tag_202\n        /* \"https://github.com/OpenZeppelin/openzeppelin-contracts/blob/master/contracts/utils/ReentrancyGuard.sol\":3972:4001  _reentrancyGuardStorageSlot() */\n      jump\t// in\n    tag_201:\n        /* \"https://github.com/OpenZeppelin/openzeppelin-contracts/blob/master/contracts/utils/ReentrancyGuard.sol\":3972:4016  _reentrancyGuardStorageSlot().getUint256Slot */\n      tag_203\n        /* \"https://github.com/OpenZeppelin/openzeppelin-contracts/blob/master/contracts/utils/ReentrancyGuard.sol\":3972:4018  _reentrancyGuardStorageSlot().getUint256Slot() */\n      jump\t// in\n    tag_200:\n        /* \"https://github.com/OpenZeppelin/openzeppelin-contracts/blob/master/contracts/utils/ReentrancyGuard.sol\":3972:4024  _reentrancyGuardStorageSlot().getUint256Slot().value */\n      0x00\n      add\n        /* \"https://github.com/OpenZeppelin/openzeppelin-contracts/blob/master/contracts/utils/ReentrancyGuard.sol\":3972:4034  _reentrancyGuardStorageSlot().getUint256Slot().value = ENTERED */\n      dup2\n      swap1\n      sstore\n      pop\n        /* \"https://github.com/OpenZeppelin/openzeppelin-contracts/blob/master/contracts/utils/ReentrancyGuard.sol\":3749:4041  function _nonReentrantBefore() private {... */\n      jump\t// out\n        /* \"https://github.com/OpenZeppelin/openzeppelin-contracts/blob/master/contracts/utils/ReentrancyGuard.sol\":4047:4300  function _nonReentrantAfter() private {... */\n    tag_188:\n        /* \"https://github.com/OpenZeppelin/openzeppelin-contracts/blob/master/contracts/utils/ReentrancyGuard.sol\":2365:2366  1 */\n      0x01\n        /* \"https://github.com/OpenZeppelin/openzeppelin-contracts/blob/master/contracts/utils/ReentrancyGuard.sol\":4227:4273  _reentrancyGuardStorageSlot().getUint256Slot() */\n      tag_205\n        /* \"https://github.com/OpenZeppelin/openzeppelin-contracts/blob/master/contracts/utils/ReentrancyGuard.sol\":4227:4256  _reentrancyGuardStorageSlot() */\n      tag_206\n        /* \"https://github.com/OpenZeppelin/openzeppelin-contracts/blob/master/contracts/utils/ReentrancyGuard.sol\":4227:4254  _reentrancyGuardStorageSlot */\n      tag_202\n        /* \"https://github.com/OpenZeppelin/openzeppelin-contracts/blob/master/contracts/utils/ReentrancyGuard.sol\":4227:4256  _reentrancyGuardStorageSlot() */\n      jump\t// in\n    tag_206:\n        /* \"https://github.com/OpenZeppelin/openzeppelin-contracts/blob/master/contracts/utils/ReentrancyGuard.sol\":4227:4271  _reentrancyGuardStorageSlot().getUint256Slot */\n      tag_203\n        /* \"https://github.com/OpenZeppelin/openzeppelin-contracts/blob/master/contracts/utils/ReentrancyGuard.sol\":4227:4273  _reentrancyGuardStorageSlot().getUint256Slot() */\n      jump\t// in\n    tag_205:\n        /* \"https://github.com/OpenZeppelin/openzeppelin-contracts/blob/master/contracts/utils/ReentrancyGuard.sol\":4227:4279  _reentrancyGuardStorageSlot().getUint256Slot().value */\n      0x00\n      add\n        /* \"https://github.com/OpenZeppelin/openzeppelin-contracts/blob/master/contracts/utils/ReentrancyGuard.sol\":4227:4293  _reentrancyGuardStorageSlot().getUint256Slot().value = NOT_ENTERED */\n      dup2\n      swap1\n      sstore\n      pop\n        /* \"https://github.com/OpenZeppelin/openzeppelin-contracts/blob/master/contracts/utils/ReentrancyGuard.sol\":4047:4300  function _nonReentrantAfter() private {... */\n      jump\t// out\n        /* \"https://github.com/OpenZeppelin/openzeppelin-contracts/blob/master/contracts/utils/Context.sol\":656:752  function _msgSender() internal view virtual returns (address) {... */\n    tag_191:\n        /* \"https://github.com/OpenZeppelin/openzeppelin-contracts/blob/master/contracts/utils/Context.sol\":709:716  address */\n      0x00\n        /* \"https://github.com/OpenZeppelin/openzeppelin-contracts/blob/master/contracts/utils/Context.sol\":735:745  msg.sender */\n      caller\n        /* \"https://github.com/OpenZeppelin/openzeppelin-contracts/blob/master/contracts/utils/Context.sol\":728:745  return msg.sender */\n      swap1\n      pop\n        /* \"https://github.com/OpenZeppelin/openzeppelin-contracts/blob/master/contracts/utils/Context.sol\":656:752  function _msgSender() internal view virtual returns (address) {... */\n      swap1\n      jump\t// out\n        /* \"https://github.com/OpenZeppelin/openzeppelin-contracts/blob/master/contracts/utils/ReentrancyGuard.sol\":3586:3743  function _nonReentrantBeforeView() private view {... */\n    tag_199:\n        /* \"https://github.com/OpenZeppelin/openzeppelin-contracts/blob/master/contracts/utils/ReentrancyGuard.sol\":3648:3673  _reentrancyGuardEntered() */\n      tag_209\n        /* \"https://github.com/OpenZeppelin/openzeppelin-contracts/blob/master/contracts/utils/ReentrancyGuard.sol\":3648:3671  _reentrancyGuardEntered */\n      tag_210\n        /* \"https://github.com/OpenZeppelin/openzeppelin-contracts/blob/master/contracts/utils/ReentrancyGuard.sol\":3648:3673  _reentrancyGuardEntered() */\n      jump\t// in\n    tag_209:\n        /* \"https://github.com/OpenZeppelin/openzeppelin-contracts/blob/master/contracts/utils/ReentrancyGuard.sol\":3644:3737  if (_reentrancyGuardEntered()) {... */\n      iszero\n      tag_211\n      jumpi\n        /* \"https://github.com/OpenZeppelin/openzeppelin-contracts/blob/master/contracts/utils/ReentrancyGuard.sol\":3696:3726  ReentrancyGuardReentrantCall() */\n      mload(0x40)\n      0x3ee5aeb500000000000000000000000000000000000000000000000000000000\n      dup2\n      mstore\n      0x04\n      add\n      mload(0x40)\n      dup1\n      swap2\n      sub\n      swap1\n      revert\n        /* \"https://github.com/OpenZeppelin/openzeppelin-contracts/blob/master/contracts/utils/ReentrancyGuard.sol\":3644:3737  if (_reentrancyGuardEntered()) {... */\n    tag_211:\n        /* \"https://github.com/OpenZeppelin/openzeppelin-contracts/blob/master/contracts/utils/ReentrancyGuard.sol\":3586:3743  function _nonReentrantBeforeView() private view {... */\n      jump\t// out\n        /* \"https://github.com/OpenZeppelin/openzeppelin-contracts/blob/master/contracts/utils/ReentrancyGuard.sol\":4636:4763  function _reentrancyGuardStorageSlot() internal pure virtual returns (bytes32) {... */\n    tag_202:\n        /* \"https://github.com/OpenZeppelin/openzeppelin-contracts/blob/master/contracts/utils/ReentrancyGuard.sol\":4706:4713  bytes32 */\n      0x00\n        /* \"https://github.com/OpenZeppelin/openzeppelin-contracts/blob/master/contracts/utils/ReentrancyGuard.sol\":1505:1571  0x9b779b17422d0df92223018b32b4d1fa46e071723d6817e2486d003becc55f00 */\n      0x9b779b17422d0df92223018b32b4d1fa46e071723d6817e2486d003becc55f00\n        /* \"https://github.com/OpenZeppelin/openzeppelin-contracts/blob/master/contracts/utils/ReentrancyGuard.sol\":4732:4756  REENTRANCY_GUARD_STORAGE */\n      0x00\n      shl\n        /* \"https://github.com/OpenZeppelin/openzeppelin-contracts/blob/master/contracts/utils/ReentrancyGuard.sol\":4725:4756  return REENTRANCY_GUARD_STORAGE */\n      swap1\n      pop\n        /* \"https://github.com/OpenZeppelin/openzeppelin-contracts/blob/master/contracts/utils/ReentrancyGuard.sol\":4636:4763  function _reentrancyGuardStorageSlot() internal pure virtual returns (bytes32) {... */\n      swap1\n      jump\t// out\n        /* \"https://github.com/OpenZeppelin/openzeppelin-contracts/blob/master/contracts/utils/StorageSlot.sol\":2679:2842  function getUint256Slot(bytes32 slot) internal pure returns (Uint256Slot storage r) {... */\n    tag_203:\n        /* \"https://github.com/OpenZeppelin/openzeppelin-contracts/blob/master/contracts/utils/StorageSlot.sol\":2740:2761  Uint256Slot storage r */\n      0x00\n        /* \"https://github.com/OpenZeppelin/openzeppelin-contracts/blob/master/contracts/utils/StorageSlot.sol\":2822:2826  slot */\n      dup2\n        /* \"https://github.com/OpenZeppelin/openzeppelin-contracts/blob/master/contracts/utils/StorageSlot.sol\":2812:2826  r.slot := slot */\n      swap1\n      pop\n        /* \"https://github.com/OpenZeppelin/openzeppelin-contracts/blob/master/contracts/utils/StorageSlot.sol\":2679:2842  function getUint256Slot(bytes32 slot) internal pure returns (Uint256Slot storage r) {... */\n      swap2\n      swap1\n      pop\n      jump\t// out\n        /* \"https://github.com/OpenZeppelin/openzeppelin-contracts/blob/master/contracts/utils/ReentrancyGuard.sol\":4479:4630  function _reentrancyGuardEntered() internal view returns (bool) {... */\n    tag_210:\n        /* \"https://github.com/OpenZeppelin/openzeppelin-contracts/blob/master/contracts/utils/ReentrancyGuard.sol\":4537:4541  bool */\n      0x00\n        /* \"https://github.com/OpenZeppelin/openzeppelin-contracts/blob/master/contracts/utils/ReentrancyGuard.sol\":2407:2408  2 */\n      0x02\n        /* \"https://github.com/OpenZeppelin/openzeppelin-contracts/blob/master/contracts/utils/ReentrancyGuard.sol\":4560:4606  _reentrancyGuardStorageSlot().getUint256Slot() */\n      tag_215\n        /* \"https://github.com/OpenZeppelin/openzeppelin-contracts/blob/master/contracts/utils/ReentrancyGuard.sol\":4560:4589  _reentrancyGuardStorageSlot() */\n      tag_216\n        /* \"https://github.com/OpenZeppelin/openzeppelin-contracts/blob/master/contracts/utils/ReentrancyGuard.sol\":4560:4587  _reentrancyGuardStorageSlot */\n      tag_202\n        /* \"https://github.com/OpenZeppelin/openzeppelin-contracts/blob/master/contracts/utils/ReentrancyGuard.sol\":4560:4589  _reentrancyGuardStorageSlot() */\n      jump\t// in\n    tag_216:\n        /* \"https://github.com/OpenZeppelin/openzeppelin-contracts/blob/master/contracts/utils/ReentrancyGuard.sol\":4560:4604  _reentrancyGuardStorageSlot().getUint256Slot */\n      tag_203\n        /* \"https://github.com/OpenZeppelin/openzeppelin-contracts/blob/master/contracts/utils/ReentrancyGuard.sol\":4560:4606  _reentrancyGuardStorageSlot().getUint256Slot() */\n      jump\t// in\n    tag_215:\n        /* \"https://github.com/OpenZeppelin/openzeppelin-contracts/blob/master/contracts/utils/ReentrancyGuard.sol\":4560:4612  _reentrancyGuardStorageSlot().getUint256Slot().value */\n      0x00\n      add\n      sload\n        /* \"https://github.com/OpenZeppelin/openzeppelin-contracts/blob/master/contracts/utils/ReentrancyGuard.sol\":4560:4623  _reentrancyGuardStorageSlot().getUint256Slot().value == ENTERED */\n      eq\n        /* \"https://github.com/OpenZeppelin/openzeppelin-contracts/blob/master/contracts/utils/ReentrancyGuard.sol\":4553:4623  return _reentrancyGuardStorageSlot().getUint256Slot().value == ENTERED */\n      swap1\n      pop\n        /* \"https://github.com/OpenZeppelin/openzeppelin-contracts/blob/master/contracts/utils/ReentrancyGuard.sol\":4479:4630  function _reentrancyGuardEntered() internal view returns (bool) {... */\n      swap1\n      jump\t// out\n        /* \"#utility.yul\":88:205   */\n    tag_218:\n        /* \"#utility.yul\":197:198   */\n      0x00\n        /* \"#utility.yul\":194:195   */\n      0x00\n        /* \"#utility.yul\":187:199   */\n      revert\n        /* \"#utility.yul\":211:328   */\n    tag_219:\n        /* \"#utility.yul\":320:321   */\n      0x00\n        /* \"#utility.yul\":317:318   */\n      0x00\n        /* \"#utility.yul\":310:322   */\n      revert\n        /* \"#utility.yul\":334:460   */\n    tag_220:\n        /* \"#utility.yul\":371:378   */\n      0x00\n        /* \"#utility.yul\":411:453   */\n      0xffffffffffffffffffffffffffffffffffffffff\n        /* \"#utility.yul\":404:409   */\n      dup3\n        /* \"#utility.yul\":400:454   */\n      and\n        /* \"#utility.yul\":389:454   */\n      swap1\n      pop\n        /* \"#utility.yul\":334:460   */\n      swap2\n      swap1\n      pop\n      jump\t// out\n        /* \"#utility.yul\":466:562   */\n    tag_221:\n        /* \"#utility.yul\":503:510   */\n      0x00\n        /* \"#utility.yul\":532:556   */\n      tag_306\n        /* \"#utility.yul\":550:555   */\n      dup3\n        /* \"#utility.yul\":532:556   */\n      tag_220\n      jump\t// in\n    tag_306:\n        /* \"#utility.yul\":521:556   */\n      swap1\n      pop\n        /* \"#utility.yul\":466:562   */\n      swap2\n      swap1\n      pop\n      jump\t// out\n        /* \"#utility.yul\":568:690   */\n    tag_222:\n        /* \"#utility.yul\":641:665   */\n      tag_308\n        /* \"#utility.yul\":659:664   */\n      dup2\n        /* \"#utility.yul\":641:665   */\n      tag_221\n      jump\t// in\n    tag_308:\n        /* \"#utility.yul\":634:639   */\n      dup2\n        /* \"#utility.yul\":631:666   */\n      eq\n        /* \"#utility.yul\":621:684   */\n      tag_309\n      jumpi\n        /* \"#utility.yul\":680:681   */\n      0x00\n        /* \"#utility.yul\":677:678   */\n      0x00\n        /* \"#utility.yul\":670:682   */\n      revert\n        /* \"#utility.yul\":621:684   */\n    tag_309:\n        /* \"#utility.yul\":568:690   */\n      pop\n      jump\t// out\n        /* \"#utility.yul\":696:835   */\n    tag_223:\n        /* \"#utility.yul\":742:747   */\n      0x00\n        /* \"#utility.yul\":780:786   */\n      dup2\n        /* \"#utility.yul\":767:787   */\n      calldataload\n        /* \"#utility.yul\":758:787   */\n      swap1\n      pop\n        /* \"#utility.yul\":796:829   */\n      tag_311\n        /* \"#utility.yul\":823:828   */\n      dup2\n        /* \"#utility.yul\":796:829   */\n      tag_222\n      jump\t// in\n    tag_311:\n        /* \"#utility.yul\":696:835   */\n      swap3\n      swap2\n      pop\n      pop\n      jump\t// out\n        /* \"#utility.yul\":841:1170   */\n    tag_23:\n        /* \"#utility.yul\":900:906   */\n      0x00\n        /* \"#utility.yul\":949:951   */\n      0x20\n        /* \"#utility.yul\":937:946   */\n      dup3\n        /* \"#utility.yul\":928:935   */\n      dup5\n        /* \"#utility.yul\":924:947   */\n      sub\n        /* \"#utility.yul\":920:952   */\n      slt\n        /* \"#utility.yul\":917:1036   */\n      iszero\n      tag_313\n      jumpi\n        /* \"#utility.yul\":955:1034   */\n      tag_314\n      tag_218\n      jump\t// in\n    tag_314:\n        /* \"#utility.yul\":917:1036   */\n    tag_313:\n        /* \"#utility.yul\":1075:1076   */\n      0x00\n        /* \"#utility.yul\":1100:1153   */\n      tag_315\n        /* \"#utility.yul\":1145:1152   */\n      dup5\n        /* \"#utility.yul\":1136:1142   */\n      dup3\n        /* \"#utility.yul\":1125:1134   */\n      dup6\n        /* \"#utility.yul\":1121:1143   */\n      add\n        /* \"#utility.yul\":1100:1153   */\n      tag_223\n      jump\t// in\n    tag_315:\n        /* \"#utility.yul\":1090:1153   */\n      swap2\n      pop\n        /* \"#utility.yul\":1046:1163   */\n      pop\n        /* \"#utility.yul\":841:1170   */\n      swap3\n      swap2\n      pop\n      pop\n      jump\t// out\n        /* \"#utility.yul\":1176:1253   */\n    tag_224:\n        /* \"#utility.yul\":1213:1220   */\n      0x00\n        /* \"#utility.yul\":1242:1247   */\n      dup2\n        /* \"#utility.yul\":1231:1247   */\n      swap1\n      pop\n        /* \"#utility.yul\":1176:1253   */\n      swap2\n      swap1\n      pop\n      jump\t// out\n        /* \"#utility.yul\":1259:1377   */\n    tag_225:\n        /* \"#utility.yul\":1346:1370   */\n      tag_318\n        /* \"#utility.yul\":1364:1369   */\n      dup2\n        /* \"#utility.yul\":1346:1370   */\n      tag_224\n      jump\t// in\n    tag_318:\n        /* \"#utility.yul\":1341:1344   */\n      dup3\n        /* \"#utility.yul\":1334:1371   */\n      mstore\n        /* \"#utility.yul\":1259:1377   */\n      pop\n      pop\n      jump\t// out\n        /* \"#utility.yul\":1383:1605   */\n    tag_29:\n        /* \"#utility.yul\":1476:1480   */\n      0x00\n        /* \"#utility.yul\":1514:1516   */\n      0x20\n        /* \"#utility.yul\":1503:1512   */\n      dup3\n        /* \"#utility.yul\":1499:1517   */\n      add\n        /* \"#utility.yul\":1491:1517   */\n      swap1\n      pop\n        /* \"#utility.yul\":1527:1598   */\n      tag_320\n        /* \"#utility.yul\":1595:1596   */\n      0x00\n        /* \"#utility.yul\":1584:1593   */\n      dup4\n        /* \"#utility.yul\":1580:1597   */\n      add\n        /* \"#utility.yul\":1571:1577   */\n      dup5\n        /* \"#utility.yul\":1527:1598   */\n      tag_225\n      jump\t// in\n    tag_320:\n        /* \"#utility.yul\":1383:1605   */\n      swap3\n      swap2\n      pop\n      pop\n      jump\t// out\n        /* \"#utility.yul\":1611:1715   */\n    tag_226:\n        /* \"#utility.yul\":1656:1663   */\n      0x00\n        /* \"#utility.yul\":1685:1709   */\n      tag_322\n        /* \"#utility.yul\":1703:1708   */\n      dup3\n        /* \"#utility.yul\":1685:1709   */\n      tag_220\n      jump\t// in\n    tag_322:\n        /* \"#utility.yul\":1674:1709   */\n      swap1\n      pop\n        /* \"#utility.yul\":1611:1715   */\n      swap2\n      swap1\n      pop\n      jump\t// out\n        /* \"#utility.yul\":1721:1859   */\n    tag_227:\n        /* \"#utility.yul\":1802:1834   */\n      tag_324\n        /* \"#utility.yul\":1828:1833   */\n      dup2\n        /* \"#utility.yul\":1802:1834   */\n      tag_226\n      jump\t// in\n    tag_324:\n        /* \"#utility.yul\":1795:1800   */\n      dup2\n        /* \"#utility.yul\":1792:1835   */\n      eq\n        /* \"#utility.yul\":1782:1853   */\n      tag_325\n      jumpi\n        /* \"#utility.yul\":1849:1850   */\n      0x00\n        /* \"#utility.yul\":1846:1847   */\n      0x00\n        /* \"#utility.yul\":1839:1851   */\n      revert\n        /* \"#utility.yul\":1782:1853   */\n    tag_325:\n        /* \"#utility.yul\":1721:1859   */\n      pop\n      jump\t// out\n        /* \"#utility.yul\":1865:2020   */\n    tag_228:\n        /* \"#utility.yul\":1919:1924   */\n      0x00\n        /* \"#utility.yul\":1957:1963   */\n      dup2\n        /* \"#utility.yul\":1944:1964   */\n      calldataload\n        /* \"#utility.yul\":1935:1964   */\n      swap1\n      pop\n        /* \"#utility.yul\":1973:2014   */\n      tag_327\n        /* \"#utility.yul\":2008:2013   */\n      dup2\n        /* \"#utility.yul\":1973:2014   */\n      tag_227\n      jump\t// in\n    tag_327:\n        /* \"#utility.yul\":1865:2020   */\n      swap3\n      swap2\n      pop\n      pop\n      jump\t// out\n        /* \"#utility.yul\":2026:2148   */\n    tag_229:\n        /* \"#utility.yul\":2099:2123   */\n      tag_329\n        /* \"#utility.yul\":2117:2122   */\n      dup2\n        /* \"#utility.yul\":2099:2123   */\n      tag_224\n      jump\t// in\n    tag_329:\n        /* \"#utility.yul\":2092:2097   */\n      dup2\n        /* \"#utility.yul\":2089:2124   */\n      eq\n        /* \"#utility.yul\":2079:2142   */\n      tag_330\n      jumpi\n        /* \"#utility.yul\":2138:2139   */\n      0x00\n        /* \"#utility.yul\":2135:2136   */\n      0x00\n        /* \"#utility.yul\":2128:2140   */\n      revert\n        /* \"#utility.yul\":2079:2142   */\n    tag_330:\n        /* \"#utility.yul\":2026:2148   */\n      pop\n      jump\t// out\n        /* \"#utility.yul\":2154:2293   */\n    tag_230:\n        /* \"#utility.yul\":2200:2205   */\n      0x00\n        /* \"#utility.yul\":2238:2244   */\n      dup2\n        /* \"#utility.yul\":2225:2245   */\n      calldataload\n        /* \"#utility.yul\":2216:2245   */\n      swap1\n      pop\n        /* \"#utility.yul\":2254:2287   */\n      tag_332\n        /* \"#utility.yul\":2281:2286   */\n      dup2\n        /* \"#utility.yul\":2254:2287   */\n      tag_229\n      jump\t// in\n    tag_332:\n        /* \"#utility.yul\":2154:2293   */\n      swap3\n      swap2\n      pop\n      pop\n      jump\t// out\n        /* \"#utility.yul\":2299:2416   */\n    tag_231:\n        /* \"#utility.yul\":2408:2409   */\n      0x00\n        /* \"#utility.yul\":2405:2406   */\n      0x00\n        /* \"#utility.yul\":2398:2410   */\n      revert\n        /* \"#utility.yul\":2422:2539   */\n    tag_232:\n        /* \"#utility.yul\":2531:2532   */\n      0x00\n        /* \"#utility.yul\":2528:2529   */\n      0x00\n        /* \"#utility.yul\":2521:2533   */\n      revert\n        /* \"#utility.yul\":2545:2662   */\n    tag_233:\n        /* \"#utility.yul\":2654:2655   */\n      0x00\n        /* \"#utility.yul\":2651:2652   */\n      0x00\n        /* \"#utility.yul\":2644:2656   */\n      revert\n        /* \"#utility.yul\":2682:3235   */\n    tag_234:\n        /* \"#utility.yul\":2740:2748   */\n      0x00\n        /* \"#utility.yul\":2750:2756   */\n      0x00\n        /* \"#utility.yul\":2800:2803   */\n      dup4\n        /* \"#utility.yul\":2793:2797   */\n      0x1f\n        /* \"#utility.yul\":2785:2791   */\n      dup5\n        /* \"#utility.yul\":2781:2798   */\n      add\n        /* \"#utility.yul\":2777:2804   */\n      slt\n        /* \"#utility.yul\":2767:2889   */\n      tag_337\n      jumpi\n        /* \"#utility.yul\":2808:2887   */\n      tag_338\n      tag_231\n      jump\t// in\n    tag_338:\n        /* \"#utility.yul\":2767:2889   */\n    tag_337:\n        /* \"#utility.yul\":2921:2927   */\n      dup3\n        /* \"#utility.yul\":2908:2928   */\n      calldataload\n        /* \"#utility.yul\":2898:2928   */\n      swap1\n      pop\n        /* \"#utility.yul\":2951:2969   */\n      0xffffffffffffffff\n        /* \"#utility.yul\":2943:2949   */\n      dup2\n        /* \"#utility.yul\":2940:2970   */\n      gt\n        /* \"#utility.yul\":2937:3054   */\n      iszero\n      tag_339\n      jumpi\n        /* \"#utility.yul\":2973:3052   */\n      tag_340\n      tag_232\n      jump\t// in\n    tag_340:\n        /* \"#utility.yul\":2937:3054   */\n    tag_339:\n        /* \"#utility.yul\":3087:3091   */\n      0x20\n        /* \"#utility.yul\":3079:3085   */\n      dup4\n        /* \"#utility.yul\":3075:3092   */\n      add\n        /* \"#utility.yul\":3063:3092   */\n      swap2\n      pop\n        /* \"#utility.yul\":3141:3144   */\n      dup4\n        /* \"#utility.yul\":3133:3137   */\n      0x01\n        /* \"#utility.yul\":3125:3131   */\n      dup3\n        /* \"#utility.yul\":3121:3138   */\n      mul\n        /* \"#utility.yul\":3111:3119   */\n      dup4\n        /* \"#utility.yul\":3107:3139   */\n      add\n        /* \"#utility.yul\":3104:3145   */\n      gt\n        /* \"#utility.yul\":3101:3229   */\n      iszero\n      tag_341\n      jumpi\n        /* \"#utility.yul\":3148:3227   */\n      tag_342\n      tag_233\n      jump\t// in\n    tag_342:\n        /* \"#utility.yul\":3101:3229   */\n    tag_341:\n        /* \"#utility.yul\":2682:3235   */\n      swap3\n      pop\n      swap3\n      swap1\n      pop\n      jump\t// out\n        /* \"#utility.yul\":3241:4222   */\n    tag_36:\n        /* \"#utility.yul\":3347:3353   */\n      0x00\n        /* \"#utility.yul\":3355:3361   */\n      0x00\n        /* \"#utility.yul\":3363:3369   */\n      0x00\n        /* \"#utility.yul\":3371:3377   */\n      0x00\n        /* \"#utility.yul\":3379:3385   */\n      0x00\n        /* \"#utility.yul\":3428:3431   */\n      0x80\n        /* \"#utility.yul\":3416:3425   */\n      dup7\n        /* \"#utility.yul\":3407:3414   */\n      dup9\n        /* \"#utility.yul\":3403:3426   */\n      sub\n        /* \"#utility.yul\":3399:3432   */\n      slt\n        /* \"#utility.yul\":3396:3516   */\n      iszero\n      tag_344\n      jumpi\n        /* \"#utility.yul\":3435:3514   */\n      tag_345\n      tag_218\n      jump\t// in\n    tag_345:\n        /* \"#utility.yul\":3396:3516   */\n    tag_344:\n        /* \"#utility.yul\":3555:3556   */\n      0x00\n        /* \"#utility.yul\":3580:3641   */\n      tag_346\n        /* \"#utility.yul\":3633:3640   */\n      dup9\n        /* \"#utility.yul\":3624:3630   */\n      dup3\n        /* \"#utility.yul\":3613:3622   */\n      dup10\n        /* \"#utility.yul\":3609:3631   */\n      add\n        /* \"#utility.yul\":3580:3641   */\n      tag_228\n      jump\t// in\n    tag_346:\n        /* \"#utility.yul\":3570:3641   */\n      swap6\n      pop\n        /* \"#utility.yul\":3526:3651   */\n      pop\n        /* \"#utility.yul\":3690:3692   */\n      0x20\n        /* \"#utility.yul\":3716:3769   */\n      tag_347\n        /* \"#utility.yul\":3761:3768   */\n      dup9\n        /* \"#utility.yul\":3752:3758   */\n      dup3\n        /* \"#utility.yul\":3741:3750   */\n      dup10\n        /* \"#utility.yul\":3737:3759   */\n      add\n        /* \"#utility.yul\":3716:3769   */\n      tag_230\n      jump\t// in\n    tag_347:\n        /* \"#utility.yul\":3706:3769   */\n      swap5\n      pop\n        /* \"#utility.yul\":3661:3779   */\n      pop\n        /* \"#utility.yul\":3846:3848   */\n      0x40\n        /* \"#utility.yul\":3835:3844   */\n      dup7\n        /* \"#utility.yul\":3831:3849   */\n      add\n        /* \"#utility.yul\":3818:3850   */\n      calldataload\n        /* \"#utility.yul\":3877:3895   */\n      0xffffffffffffffff\n        /* \"#utility.yul\":3869:3875   */\n      dup2\n        /* \"#utility.yul\":3866:3896   */\n      gt\n        /* \"#utility.yul\":3863:3980   */\n      iszero\n      tag_348\n      jumpi\n        /* \"#utility.yul\":3899:3978   */\n      tag_349\n      tag_219\n      jump\t// in\n    tag_349:\n        /* \"#utility.yul\":3863:3980   */\n    tag_348:\n        /* \"#utility.yul\":4012:4077   */\n      tag_350\n        /* \"#utility.yul\":4069:4076   */\n      dup9\n        /* \"#utility.yul\":4060:4066   */\n      dup3\n        /* \"#utility.yul\":4049:4058   */\n      dup10\n        /* \"#utility.yul\":4045:4067   */\n      add\n        /* \"#utility.yul\":4012:4077   */\n      tag_234\n      jump\t// in\n    tag_350:\n        /* \"#utility.yul\":3994:4077   */\n      swap4\n      pop\n      swap4\n      pop\n        /* \"#utility.yul\":3789:4087   */\n      pop\n        /* \"#utility.yul\":4126:4128   */\n      0x60\n        /* \"#utility.yul\":4152:4205   */\n      tag_351\n        /* \"#utility.yul\":4197:4204   */\n      dup9\n        /* \"#utility.yul\":4188:4194   */\n      dup3\n        /* \"#utility.yul\":4177:4186   */\n      dup10\n        /* \"#utility.yul\":4173:4195   */\n      add\n        /* \"#utility.yul\":4152:4205   */\n      tag_230\n      jump\t// in\n    tag_351:\n        /* \"#utility.yul\":4142:4205   */\n      swap2\n      pop\n        /* \"#utility.yul\":4097:4215   */\n      pop\n        /* \"#utility.yul\":3241:4222   */\n      swap3\n      swap6\n      pop\n      swap3\n      swap6\n      swap1\n      swap4\n      pop\n      jump\t// out\n        /* \"#utility.yul\":4228:4346   */\n    tag_235:\n        /* \"#utility.yul\":4315:4339   */\n      tag_353\n        /* \"#utility.yul\":4333:4338   */\n      dup2\n        /* \"#utility.yul\":4315:4339   */\n      tag_221\n      jump\t// in\n    tag_353:\n        /* \"#utility.yul\":4310:4313   */\n      dup3\n        /* \"#utility.yul\":4303:4340   */\n      mstore\n        /* \"#utility.yul\":4228:4346   */\n      pop\n      pop\n      jump\t// out\n        /* \"#utility.yul\":4352:4574   */\n    tag_42:\n        /* \"#utility.yul\":4445:4449   */\n      0x00\n        /* \"#utility.yul\":4483:4485   */\n      0x20\n        /* \"#utility.yul\":4472:4481   */\n      dup3\n        /* \"#utility.yul\":4468:4486   */\n      add\n        /* \"#utility.yul\":4460:4486   */\n      swap1\n      pop\n        /* \"#utility.yul\":4496:4567   */\n      tag_355\n        /* \"#utility.yul\":4564:4565   */\n      0x00\n        /* \"#utility.yul\":4553:4562   */\n      dup4\n        /* \"#utility.yul\":4549:4566   */\n      add\n        /* \"#utility.yul\":4540:4546   */\n      dup5\n        /* \"#utility.yul\":4496:4567   */\n      tag_235\n      jump\t// in\n    tag_355:\n        /* \"#utility.yul\":4352:4574   */\n      swap3\n      swap2\n      pop\n      pop\n      jump\t// out\n        /* \"#utility.yul\":4580:4694   */\n    tag_236:\n        /* \"#utility.yul\":4647:4653   */\n      0x00\n        /* \"#utility.yul\":4681:4686   */\n      dup2\n        /* \"#utility.yul\":4675:4687   */\n      mload\n        /* \"#utility.yul\":4665:4687   */\n      swap1\n      pop\n        /* \"#utility.yul\":4580:4694   */\n      swap2\n      swap1\n      pop\n      jump\t// out\n        /* \"#utility.yul\":4700:4884   */\n    tag_237:\n        /* \"#utility.yul\":4799:4810   */\n      0x00\n        /* \"#utility.yul\":4833:4839   */\n      dup3\n        /* \"#utility.yul\":4828:4831   */\n      dup3\n        /* \"#utility.yul\":4821:4840   */\n      mstore\n        /* \"#utility.yul\":4873:4877   */\n      0x20\n        /* \"#utility.yul\":4868:4871   */\n      dup3\n        /* \"#utility.yul\":4864:4878   */\n      add\n        /* \"#utility.yul\":4849:4878   */\n      swap1\n      pop\n        /* \"#utility.yul\":4700:4884   */\n      swap3\n      swap2\n      pop\n      pop\n      jump\t// out\n        /* \"#utility.yul\":4890:5022   */\n    tag_238:\n        /* \"#utility.yul\":4957:4961   */\n      0x00\n        /* \"#utility.yul\":4980:4983   */\n      dup2\n        /* \"#utility.yul\":4972:4983   */\n      swap1\n      pop\n        /* \"#utility.yul\":5010:5014   */\n      0x20\n        /* \"#utility.yul\":5005:5008   */\n      dup3\n        /* \"#utility.yul\":5001:5015   */\n      add\n        /* \"#utility.yul\":4993:5015   */\n      swap1\n      pop\n        /* \"#utility.yul\":4890:5022   */\n      swap2\n      swap1\n      pop\n      jump\t// out\n        /* \"#utility.yul\":5028:5136   */\n    tag_239:\n        /* \"#utility.yul\":5105:5129   */\n      tag_360\n        /* \"#utility.yul\":5123:5128   */\n      dup2\n        /* \"#utility.yul\":5105:5129   */\n      tag_221\n      jump\t// in\n    tag_360:\n        /* \"#utility.yul\":5100:5103   */\n      dup3\n        /* \"#utility.yul\":5093:5130   */\n      mstore\n        /* \"#utility.yul\":5028:5136   */\n      pop\n      pop\n      jump\t// out\n        /* \"#utility.yul\":5142:5321   */\n    tag_240:\n        /* \"#utility.yul\":5211:5221   */\n      0x00\n        /* \"#utility.yul\":5232:5278   */\n      tag_362\n        /* \"#utility.yul\":5274:5277   */\n      dup4\n        /* \"#utility.yul\":5266:5272   */\n      dup4\n        /* \"#utility.yul\":5232:5278   */\n      tag_239\n      jump\t// in\n    tag_362:\n        /* \"#utility.yul\":5310:5314   */\n      0x20\n        /* \"#utility.yul\":5305:5308   */\n      dup4\n        /* \"#utility.yul\":5301:5315   */\n      add\n        /* \"#utility.yul\":5287:5315   */\n      swap1\n      pop\n        /* \"#utility.yul\":5142:5321   */\n      swap3\n      swap2\n      pop\n      pop\n      jump\t// out\n        /* \"#utility.yul\":5327:5440   */\n    tag_241:\n        /* \"#utility.yul\":5397:5401   */\n      0x00\n        /* \"#utility.yul\":5429:5433   */\n      0x20\n        /* \"#utility.yul\":5424:5427   */\n      dup3\n        /* \"#utility.yul\":5420:5434   */\n      add\n        /* \"#utility.yul\":5412:5434   */\n      swap1\n      pop\n        /* \"#utility.yul\":5327:5440   */\n      swap2\n      swap1\n      pop\n      jump\t// out\n        /* \"#utility.yul\":5476:6208   */\n    tag_242:\n        /* \"#utility.yul\":5595:5598   */\n      0x00\n        /* \"#utility.yul\":5624:5678   */\n      tag_365\n        /* \"#utility.yul\":5672:5677   */\n      dup3\n        /* \"#utility.yul\":5624:5678   */\n      tag_236\n      jump\t// in\n    tag_365:\n        /* \"#utility.yul\":5694:5780   */\n      tag_366\n        /* \"#utility.yul\":5773:5779   */\n      dup2\n        /* \"#utility.yul\":5768:5771   */\n      dup6\n        /* \"#utility.yul\":5694:5780   */\n      tag_237\n      jump\t// in\n    tag_366:\n        /* \"#utility.yul\":5687:5780   */\n      swap4\n      pop\n        /* \"#utility.yul\":5804:5860   */\n      tag_367\n        /* \"#utility.yul\":5854:5859   */\n      dup4\n        /* \"#utility.yul\":5804:5860   */\n      tag_238\n      jump\t// in\n    tag_367:\n        /* \"#utility.yul\":5883:5890   */\n      dup1\n        /* \"#utility.yul\":5914:5915   */\n      0x00\n        /* \"#utility.yul\":5899:6183   */\n    tag_368:\n        /* \"#utility.yul\":5924:5930   */\n      dup4\n        /* \"#utility.yul\":5921:5922   */\n      dup2\n        /* \"#utility.yul\":5918:5931   */\n      lt\n        /* \"#utility.yul\":5899:6183   */\n      iszero\n      tag_370\n      jumpi\n        /* \"#utility.yul\":6000:6006   */\n      dup2\n        /* \"#utility.yul\":5994:6007   */\n      mload\n        /* \"#utility.yul\":6027:6090   */\n      tag_371\n        /* \"#utility.yul\":6086:6089   */\n      dup9\n        /* \"#utility.yul\":6071:6084   */\n      dup3\n        /* \"#utility.yul\":6027:6090   */\n      tag_240\n      jump\t// in\n    tag_371:\n        /* \"#utility.yul\":6020:6090   */\n      swap8\n      pop\n        /* \"#utility.yul\":6113:6173   */\n      tag_372\n        /* \"#utility.yul\":6166:6172   */\n      dup4\n        /* \"#utility.yul\":6113:6173   */\n      tag_241\n      jump\t// in\n    tag_372:\n        /* \"#utility.yul\":6103:6173   */\n      swap3\n      pop\n        /* \"#utility.yul\":5959:6183   */\n      pop\n        /* \"#utility.yul\":5946:5947   */\n      0x01\n        /* \"#utility.yul\":5943:5944   */\n      dup2\n        /* \"#utility.yul\":5939:5948   */\n      add\n        /* \"#utility.yul\":5934:5948   */\n      swap1\n      pop\n        /* \"#utility.yul\":5899:6183   */\n      jump(tag_368)\n    tag_370:\n        /* \"#utility.yul\":5903:5917   */\n      pop\n        /* \"#utility.yul\":6199:6202   */\n      dup6\n        /* \"#utility.yul\":6192:6202   */\n      swap4\n      pop\n        /* \"#utility.yul\":5600:6208   */\n      pop\n      pop\n      pop\n        /* \"#utility.yul\":5476:6208   */\n      swap3\n      swap2\n      pop\n      pop\n      jump\t// out\n        /* \"#utility.yul\":6214:6587   */\n    tag_47:\n        /* \"#utility.yul\":6357:6361   */\n      0x00\n        /* \"#utility.yul\":6395:6397   */\n      0x20\n        /* \"#utility.yul\":6384:6393   */\n      dup3\n        /* \"#utility.yul\":6380:6398   */\n      add\n        /* \"#utility.yul\":6372:6398   */\n      swap1\n      pop\n        /* \"#utility.yul\":6444:6453   */\n      dup2\n        /* \"#utility.yul\":6438:6442   */\n      dup2\n        /* \"#utility.yul\":6434:6454   */\n      sub\n        /* \"#utility.yul\":6430:6431   */\n      0x00\n        /* \"#utility.yul\":6419:6428   */\n      dup4\n        /* \"#utility.yul\":6415:6432   */\n      add\n        /* \"#utility.yul\":6408:6455   */\n      mstore\n        /* \"#utility.yul\":6472:6580   */\n      tag_374\n        /* \"#utility.yul\":6575:6579   */\n      dup2\n        /* \"#utility.yul\":6566:6572   */\n      dup5\n        /* \"#utility.yul\":6472:6580   */\n      tag_242\n      jump\t// in\n    tag_374:\n        /* \"#utility.yul\":6464:6580   */\n      swap1\n      pop\n        /* \"#utility.yul\":6214:6587   */\n      swap3\n      swap2\n      pop\n      pop\n      jump\t// out\n        /* \"#utility.yul\":6593:6683   */\n    tag_243:\n        /* \"#utility.yul\":6627:6634   */\n      0x00\n        /* \"#utility.yul\":6670:6675   */\n      dup2\n        /* \"#utility.yul\":6663:6676   */\n      iszero\n        /* \"#utility.yul\":6656:6677   */\n      iszero\n        /* \"#utility.yul\":6645:6677   */\n      swap1\n      pop\n        /* \"#utility.yul\":6593:6683   */\n      swap2\n      swap1\n      pop\n      jump\t// out\n        /* \"#utility.yul\":6689:6798   */\n    tag_244:\n        /* \"#utility.yul\":6770:6791   */\n      tag_377\n        /* \"#utility.yul\":6785:6790   */\n      dup2\n        /* \"#utility.yul\":6770:6791   */\n      tag_243\n      jump\t// in\n    tag_377:\n        /* \"#utility.yul\":6765:6768   */\n      dup3\n        /* \"#utility.yul\":6758:6792   */\n      mstore\n        /* \"#utility.yul\":6689:6798   */\n      pop\n      pop\n      jump\t// out\n        /* \"#utility.yul\":6804:7014   */\n    tag_53:\n        /* \"#utility.yul\":6891:6895   */\n      0x00\n        /* \"#utility.yul\":6929:6931   */\n      0x20\n        /* \"#utility.yul\":6918:6927   */\n      dup3\n        /* \"#utility.yul\":6914:6932   */\n      add\n        /* \"#utility.yul\":6906:6932   */\n      swap1\n      pop\n        /* \"#utility.yul\":6942:7007   */\n      tag_379\n        /* \"#utility.yul\":7004:7005   */\n      0x00\n        /* \"#utility.yul\":6993:7002   */\n      dup4\n        /* \"#utility.yul\":6989:7006   */\n      add\n        /* \"#utility.yul\":6980:6986   */\n      dup5\n        /* \"#utility.yul\":6942:7007   */\n      tag_244\n      jump\t// in\n    tag_379:\n        /* \"#utility.yul\":6804:7014   */\n      swap3\n      swap2\n      pop\n      pop\n      jump\t// out\n        /* \"#utility.yul\":7020:7136   */\n    tag_245:\n        /* \"#utility.yul\":7090:7111   */\n      tag_381\n        /* \"#utility.yul\":7105:7110   */\n      dup2\n        /* \"#utility.yul\":7090:7111   */\n      tag_243\n      jump\t// in\n    tag_381:\n        /* \"#utility.yul\":7083:7088   */\n      dup2\n        /* \"#utility.yul\":7080:7112   */\n      eq\n        /* \"#utility.yul\":7070:7130   */\n      tag_382\n      jumpi\n        /* \"#utility.yul\":7126:7127   */\n      0x00\n        /* \"#utility.yul\":7123:7124   */\n      0x00\n        /* \"#utility.yul\":7116:7128   */\n      revert\n        /* \"#utility.yul\":7070:7130   */\n    tag_382:\n        /* \"#utility.yul\":7020:7136   */\n      pop\n      jump\t// out\n        /* \"#utility.yul\":7142:7275   */\n    tag_246:\n        /* \"#utility.yul\":7185:7190   */\n      0x00\n        /* \"#utility.yul\":7223:7229   */\n      dup2\n        /* \"#utility.yul\":7210:7230   */\n      calldataload\n        /* \"#utility.yul\":7201:7230   */\n      swap1\n      pop\n        /* \"#utility.yul\":7239:7269   */\n      tag_384\n        /* \"#utility.yul\":7263:7268   */\n      dup2\n        /* \"#utility.yul\":7239:7269   */\n      tag_245\n      jump\t// in\n    tag_384:\n        /* \"#utility.yul\":7142:7275   */\n      swap3\n      swap2\n      pop\n      pop\n      jump\t// out\n        /* \"#utility.yul\":7281:7749   */\n    tag_57:\n        /* \"#utility.yul\":7346:7352   */\n      0x00\n        /* \"#utility.yul\":7354:7360   */\n      0x00\n        /* \"#utility.yul\":7403:7405   */\n      0x40\n        /* \"#utility.yul\":7391:7400   */\n      dup4\n        /* \"#utility.yul\":7382:7389   */\n      dup6\n        /* \"#utility.yul\":7378:7401   */\n      sub\n        /* \"#utility.yul\":7374:7406   */\n      slt\n        /* \"#utility.yul\":7371:7490   */\n      iszero\n      tag_386\n      jumpi\n        /* \"#utility.yul\":7409:7488   */\n      tag_387\n      tag_218\n      jump\t// in\n    tag_387:\n        /* \"#utility.yul\":7371:7490   */\n    tag_386:\n        /* \"#utility.yul\":7529:7530   */\n      0x00\n        /* \"#utility.yul\":7554:7607   */\n      tag_388\n        /* \"#utility.yul\":7599:7606   */\n      dup6\n        /* \"#utility.yul\":7590:7596   */\n      dup3\n        /* \"#utility.yul\":7579:7588   */\n      dup7\n        /* \"#utility.yul\":7575:7597   */\n      add\n        /* \"#utility.yul\":7554:7607   */\n      tag_230\n      jump\t// in\n    tag_388:\n        /* \"#utility.yul\":7544:7607   */\n      swap3\n      pop\n        /* \"#utility.yul\":7500:7617   */\n      pop\n        /* \"#utility.yul\":7656:7658   */\n      0x20\n        /* \"#utility.yul\":7682:7732   */\n      tag_389\n        /* \"#utility.yul\":7724:7731   */\n      dup6\n        /* \"#utility.yul\":7715:7721   */\n      dup3\n        /* \"#utility.yul\":7704:7713   */\n      dup7\n        /* \"#utility.yul\":7700:7722   */\n      add\n        /* \"#utility.yul\":7682:7732   */\n      tag_246\n      jump\t// in\n    tag_389:\n        /* \"#utility.yul\":7672:7732   */\n      swap2\n      pop\n        /* \"#utility.yul\":7627:7742   */\n      pop\n        /* \"#utility.yul\":7281:7749   */\n      swap3\n      pop\n      swap3\n      swap1\n      pop\n      jump\t// out\n        /* \"#utility.yul\":7755:8084   */\n    tag_76:\n        /* \"#utility.yul\":7814:7820   */\n      0x00\n        /* \"#utility.yul\":7863:7865   */\n      0x20\n        /* \"#utility.yul\":7851:7860   */\n      dup3\n        /* \"#utility.yul\":7842:7849   */\n      dup5\n        /* \"#utility.yul\":7838:7861   */\n      sub\n        /* \"#utility.yul\":7834:7866   */\n      slt\n        /* \"#utility.yul\":7831:7950   */\n      iszero\n      tag_391\n      jumpi\n        /* \"#utility.yul\":7869:7948   */\n      tag_392\n      tag_218\n      jump\t// in\n    tag_392:\n        /* \"#utility.yul\":7831:7950   */\n    tag_391:\n        /* \"#utility.yul\":7989:7990   */\n      0x00\n        /* \"#utility.yul\":8014:8067   */\n      tag_393\n        /* \"#utility.yul\":8059:8066   */\n      dup5\n        /* \"#utility.yul\":8050:8056   */\n      dup3\n        /* \"#utility.yul\":8039:8048   */\n      dup6\n        /* \"#utility.yul\":8035:8057   */\n      add\n        /* \"#utility.yul\":8014:8067   */\n      tag_230\n      jump\t// in\n    tag_393:\n        /* \"#utility.yul\":8004:8067   */\n      swap2\n      pop\n        /* \"#utility.yul\":7960:8077   */\n      pop\n        /* \"#utility.yul\":7755:8084   */\n      swap3\n      swap2\n      pop\n      pop\n      jump\t// out\n        /* \"#utility.yul\":8090:8259   */\n    tag_247:\n        /* \"#utility.yul\":8174:8185   */\n      0x00\n        /* \"#utility.yul\":8208:8214   */\n      dup3\n        /* \"#utility.yul\":8203:8206   */\n      dup3\n        /* \"#utility.yul\":8196:8215   */\n      mstore\n        /* \"#utility.yul\":8248:8252   */\n      0x20\n        /* \"#utility.yul\":8243:8246   */\n      dup3\n        /* \"#utility.yul\":8239:8253   */\n      add\n        /* \"#utility.yul\":8224:8253   */\n      swap1\n      pop\n        /* \"#utility.yul\":8090:8259   */\n      swap3\n      swap2\n      pop\n      pop\n      jump\t// out\n        /* \"#utility.yul\":8265:8425   */\n    tag_248:\n        /* \"#utility.yul\":8405:8417   */\n      0x4e6f74206d656d62657200000000000000000000000000000000000000000000\n        /* \"#utility.yul\":8401:8402   */\n      0x00\n        /* \"#utility.yul\":8393:8399   */\n      dup3\n        /* \"#utility.yul\":8389:8403   */\n      add\n        /* \"#utility.yul\":8382:8418   */\n      mstore\n        /* \"#utility.yul\":8265:8425   */\n      pop\n      jump\t// out\n        /* \"#utility.yul\":8431:8797   */\n    tag_249:\n        /* \"#utility.yul\":8573:8576   */\n      0x00\n        /* \"#utility.yul\":8594:8661   */\n      tag_397\n        /* \"#utility.yul\":8658:8660   */\n      0x0a\n        /* \"#utility.yul\":8653:8656   */\n      dup4\n        /* \"#utility.yul\":8594:8661   */\n      tag_247\n      jump\t// in\n    tag_397:\n        /* \"#utility.yul\":8587:8661   */\n      swap2\n      pop\n        /* \"#utility.yul\":8670:8763   */\n      tag_398\n        /* \"#utility.yul\":8759:8762   */\n      dup3\n        /* \"#utility.yul\":8670:8763   */\n      tag_248\n      jump\t// in\n    tag_398:\n        /* \"#utility.yul\":8788:8790   */\n      0x20\n        /* \"#utility.yul\":8783:8786   */\n      dup3\n        /* \"#utility.yul\":8779:8791   */\n      add\n        /* \"#utility.yul\":8772:8791   */\n      swap1\n      pop\n        /* \"#utility.yul\":8431:8797   */\n      swap2\n      swap1\n      pop\n      jump\t// out\n        /* \"#utility.yul\":8803:9222   */\n    tag_84:\n        /* \"#utility.yul\":8969:8973   */\n      0x00\n        /* \"#utility.yul\":9007:9009   */\n      0x20\n        /* \"#utility.yul\":8996:9005   */\n      dup3\n        /* \"#utility.yul\":8992:9010   */\n      add\n        /* \"#utility.yul\":8984:9010   */\n      swap1\n      pop\n        /* \"#utility.yul\":9056:9065   */\n      dup2\n        /* \"#utility.yul\":9050:9054   */\n      dup2\n        /* \"#utility.yul\":9046:9066   */\n      sub\n        /* \"#utility.yul\":9042:9043   */\n      0x00\n        /* \"#utility.yul\":9031:9040   */\n      dup4\n        /* \"#utility.yul\":9027:9044   */\n      add\n        /* \"#utility.yul\":9020:9067   */\n      mstore\n        /* \"#utility.yul\":9084:9215   */\n      tag_400\n        /* \"#utility.yul\":9210:9214   */\n      dup2\n        /* \"#utility.yul\":9084:9215   */\n      tag_249\n      jump\t// in\n    tag_400:\n        /* \"#utility.yul\":9076:9215   */\n      swap1\n      pop\n        /* \"#utility.yul\":8803:9222   */\n      swap2\n      swap1\n      pop\n      jump\t// out\n        /* \"#utility.yul\":9228:9408   */\n    tag_90:\n        /* \"#utility.yul\":9276:9353   */\n      0x4e487b7100000000000000000000000000000000000000000000000000000000\n        /* \"#utility.yul\":9273:9274   */\n      0x00\n        /* \"#utility.yul\":9266:9354   */\n      mstore\n        /* \"#utility.yul\":9373:9377   */\n      0x32\n        /* \"#utility.yul\":9370:9371   */\n      0x04\n        /* \"#utility.yul\":9363:9378   */\n      mstore\n        /* \"#utility.yul\":9397:9401   */\n      0x24\n        /* \"#utility.yul\":9394:9395   */\n      0x00\n        /* \"#utility.yul\":9387:9402   */\n      revert\n        /* \"#utility.yul\":9414:9594   */\n    tag_250:\n        /* \"#utility.yul\":9462:9539   */\n      0x4e487b7100000000000000000000000000000000000000000000000000000000\n        /* \"#utility.yul\":9459:9460   */\n      0x00\n        /* \"#utility.yul\":9452:9540   */\n      mstore\n        /* \"#utility.yul\":9559:9563   */\n      0x11\n        /* \"#utility.yul\":9556:9557   */\n      0x04\n        /* \"#utility.yul\":9549:9564   */\n      mstore\n        /* \"#utility.yul\":9583:9587   */\n      0x24\n        /* \"#utility.yul\":9580:9581   */\n      0x00\n        /* \"#utility.yul\":9573:9588   */\n      revert\n        /* \"#utility.yul\":9600:9794   */\n    tag_94:\n        /* \"#utility.yul\":9640:9644   */\n      0x00\n        /* \"#utility.yul\":9660:9680   */\n      tag_404\n        /* \"#utility.yul\":9678:9679   */\n      dup3\n        /* \"#utility.yul\":9660:9680   */\n      tag_224\n      jump\t// in\n    tag_404:\n        /* \"#utility.yul\":9655:9680   */\n      swap2\n      pop\n        /* \"#utility.yul\":9694:9714   */\n      tag_405\n        /* \"#utility.yul\":9712:9713   */\n      dup4\n        /* \"#utility.yul\":9694:9714   */\n      tag_224\n      jump\t// in\n    tag_405:\n        /* \"#utility.yul\":9689:9714   */\n      swap3\n      pop\n        /* \"#utility.yul\":9738:9739   */\n      dup3\n        /* \"#utility.yul\":9735:9736   */\n      dup3\n        /* \"#utility.yul\":9731:9740   */\n      sub\n        /* \"#utility.yul\":9723:9740   */\n      swap1\n      pop\n        /* \"#utility.yul\":9762:9763   */\n      dup2\n        /* \"#utility.yul\":9756:9760   */\n      dup2\n        /* \"#utility.yul\":9753:9764   */\n      gt\n        /* \"#utility.yul\":9750:9787   */\n      iszero\n      tag_406\n      jumpi\n        /* \"#utility.yul\":9767:9785   */\n      tag_407\n      tag_250\n      jump\t// in\n    tag_407:\n        /* \"#utility.yul\":9750:9787   */\n    tag_406:\n        /* \"#utility.yul\":9600:9794   */\n      swap3\n      swap2\n      pop\n      pop\n      jump\t// out\n        /* \"#utility.yul\":9800:9980   */\n    tag_103:\n        /* \"#utility.yul\":9848:9925   */\n      0x4e487b7100000000000000000000000000000000000000000000000000000000\n        /* \"#utility.yul\":9845:9846   */\n      0x00\n        /* \"#utility.yul\":9838:9926   */\n      mstore\n        /* \"#utility.yul\":9945:9949   */\n      0x31\n        /* \"#utility.yul\":9942:9943   */\n      0x04\n        /* \"#utility.yul\":9935:9950   */\n      mstore\n        /* \"#utility.yul\":9969:9973   */\n      0x24\n        /* \"#utility.yul\":9966:9967   */\n      0x00\n        /* \"#utility.yul\":9959:9974   */\n      revert\n        /* \"#utility.yul\":9986:10148   */\n    tag_251:\n        /* \"#utility.yul\":10126:10140   */\n      0x4e6f742061206d656d6265720000000000000000000000000000000000000000\n        /* \"#utility.yul\":10122:10123   */\n      0x00\n        /* \"#utility.yul\":10114:10120   */\n      dup3\n        /* \"#utility.yul\":10110:10124   */\n      add\n        /* \"#utility.yul\":10103:10141   */\n      mstore\n        /* \"#utility.yul\":9986:10148   */\n      pop\n      jump\t// out\n        /* \"#utility.yul\":10154:10520   */\n    tag_252:\n        /* \"#utility.yul\":10296:10299   */\n      0x00\n        /* \"#utility.yul\":10317:10384   */\n      tag_411\n        /* \"#utility.yul\":10381:10383   */\n      0x0c\n        /* \"#utility.yul\":10376:10379   */\n      dup4\n        /* \"#utility.yul\":10317:10384   */\n      tag_247\n      jump\t// in\n    tag_411:\n        /* \"#utility.yul\":10310:10384   */\n      swap2\n      pop\n        /* \"#utility.yul\":10393:10486   */\n      tag_412\n        /* \"#utility.yul\":10482:10485   */\n      dup3\n        /* \"#utility.yul\":10393:10486   */\n      tag_251\n      jump\t// in\n    tag_412:\n        /* \"#utility.yul\":10511:10513   */\n      0x20\n        /* \"#utility.yul\":10506:10509   */\n      dup3\n        /* \"#utility.yul\":10502:10514   */\n      add\n        /* \"#utility.yul\":10495:10514   */\n      swap1\n      pop\n        /* \"#utility.yul\":10154:10520   */\n      swap2\n      swap1\n      pop\n      jump\t// out\n        /* \"#utility.yul\":10526:10945   */\n    tag_114:\n        /* \"#utility.yul\":10692:10696   */\n      0x00\n        /* \"#utility.yul\":10730:10732   */\n      0x20\n        /* \"#utility.yul\":10719:10728   */\n      dup3\n        /* \"#utility.yul\":10715:10733   */\n      add\n        /* \"#utility.yul\":10707:10733   */\n      swap1\n      pop\n        /* \"#utility.yul\":10779:10788   */\n      dup2\n        /* \"#utility.yul\":10773:10777   */\n      dup2\n        /* \"#utility.yul\":10769:10789   */\n      sub\n        /* \"#utility.yul\":10765:10766   */\n      0x00\n        /* \"#utility.yul\":10754:10763   */\n      dup4\n        /* \"#utility.yul\":10750:10767   */\n      add\n        /* \"#utility.yul\":10743:10790   */\n      mstore\n        /* \"#utility.yul\":10807:10938   */\n      tag_414\n        /* \"#utility.yul\":10933:10937   */\n      dup2\n        /* \"#utility.yul\":10807:10938   */\n      tag_252\n      jump\t// in\n    tag_414:\n        /* \"#utility.yul\":10799:10938   */\n      swap1\n      pop\n        /* \"#utility.yul\":10526:10945   */\n      swap2\n      swap1\n      pop\n      jump\t// out\n        /* \"#utility.yul\":10951:11115   */\n    tag_253:\n        /* \"#utility.yul\":11091:11107   */\n      0x4e6f7420656e6f75676820455448000000000000000000000000000000000000\n        /* \"#utility.yul\":11087:11088   */\n      0x00\n        /* \"#utility.yul\":11079:11085   */\n      dup3\n        /* \"#utility.yul\":11075:11089   */\n      add\n        /* \"#utility.yul\":11068:11108   */\n      mstore\n        /* \"#utility.yul\":10951:11115   */\n      pop\n      jump\t// out\n        /* \"#utility.yul\":11121:11487   */\n    tag_254:\n        /* \"#utility.yul\":11263:11266   */\n      0x00\n        /* \"#utility.yul\":11284:11351   */\n      tag_417\n        /* \"#utility.yul\":11348:11350   */\n      0x0e\n        /* \"#utility.yul\":11343:11346   */\n      dup4\n        /* \"#utility.yul\":11284:11351   */\n      tag_247\n      jump\t// in\n    tag_417:\n        /* \"#utility.yul\":11277:11351   */\n      swap2\n      pop\n        /* \"#utility.yul\":11360:11453   */\n      tag_418\n        /* \"#utility.yul\":11449:11452   */\n      dup3\n        /* \"#utility.yul\":11360:11453   */\n      tag_253\n      jump\t// in\n    tag_418:\n        /* \"#utility.yul\":11478:11480   */\n      0x20\n        /* \"#utility.yul\":11473:11476   */\n      dup3\n        /* \"#utility.yul\":11469:11481   */\n      add\n        /* \"#utility.yul\":11462:11481   */\n      swap1\n      pop\n        /* \"#utility.yul\":11121:11487   */\n      swap2\n      swap1\n      pop\n      jump\t// out\n        /* \"#utility.yul\":11493:11912   */\n    tag_118:\n        /* \"#utility.yul\":11659:11663   */\n      0x00\n        /* \"#utility.yul\":11697:11699   */\n      0x20\n        /* \"#utility.yul\":11686:11695   */\n      dup3\n        /* \"#utility.yul\":11682:11700   */\n      add\n        /* \"#utility.yul\":11674:11700   */\n      swap1\n      pop\n        /* \"#utility.yul\":11746:11755   */\n      dup2\n        /* \"#utility.yul\":11740:11744   */\n      dup2\n        /* \"#utility.yul\":11736:11756   */\n      sub\n        /* \"#utility.yul\":11732:11733   */\n      0x00\n        /* \"#utility.yul\":11721:11730   */\n      dup4\n        /* \"#utility.yul\":11717:11734   */\n      add\n        /* \"#utility.yul\":11710:11757   */\n      mstore\n        /* \"#utility.yul\":11774:11905   */\n      tag_420\n        /* \"#utility.yul\":11900:11904   */\n      dup2\n        /* \"#utility.yul\":11774:11905   */\n      tag_254\n      jump\t// in\n    tag_420:\n        /* \"#utility.yul\":11766:11905   */\n      swap1\n      pop\n        /* \"#utility.yul\":11493:11912   */\n      swap2\n      swap1\n      pop\n      jump\t// out\n        /* \"#utility.yul\":11918:12151   */\n    tag_120:\n        /* \"#utility.yul\":11957:11960   */\n      0x00\n        /* \"#utility.yul\":11980:12004   */\n      tag_422\n        /* \"#utility.yul\":11998:12003   */\n      dup3\n        /* \"#utility.yul\":11980:12004   */\n      tag_224\n      jump\t// in\n    tag_422:\n        /* \"#utility.yul\":11971:12004   */\n      swap2\n      pop\n        /* \"#utility.yul\":12026:12092   */\n      0xffffffffffffffffffffffffffffffffffffffffffffffffffffffffffffffff\n        /* \"#utility.yul\":12019:12024   */\n      dup3\n        /* \"#utility.yul\":12016:12093   */\n      sub\n        /* \"#utility.yul\":12013:12116   */\n      tag_423\n      jumpi\n        /* \"#utility.yul\":12096:12114   */\n      tag_424\n      tag_250\n      jump\t// in\n    tag_424:\n        /* \"#utility.yul\":12013:12116   */\n    tag_423:\n        /* \"#utility.yul\":12143:12144   */\n      0x01\n        /* \"#utility.yul\":12136:12141   */\n      dup3\n        /* \"#utility.yul\":12132:12145   */\n      add\n        /* \"#utility.yul\":12125:12145   */\n      swap1\n      pop\n        /* \"#utility.yul\":11918:12151   */\n      swap2\n      swap1\n      pop\n      jump\t// out\n        /* \"#utility.yul\":12157:12254   */\n    tag_255:\n        /* \"#utility.yul\":12216:12222   */\n      0x00\n        /* \"#utility.yul\":12244:12247   */\n      dup3\n        /* \"#utility.yul\":12234:12247   */\n      swap1\n      pop\n        /* \"#utility.yul\":12157:12254   */\n      swap3\n      swap2\n      pop\n      pop\n      jump\t// out\n        /* \"#utility.yul\":12260:12440   */\n    tag_256:\n        /* \"#utility.yul\":12308:12385   */\n      0x4e487b7100000000000000000000000000000000000000000000000000000000\n        /* \"#utility.yul\":12305:12306   */\n      0x00\n        /* \"#utility.yul\":12298:12386   */\n      mstore\n        /* \"#utility.yul\":12405:12409   */\n      0x41\n        /* \"#utility.yul\":12402:12403   */\n      0x04\n        /* \"#utility.yul\":12395:12410   */\n      mstore\n        /* \"#utility.yul\":12429:12433   */\n      0x24\n        /* \"#utility.yul\":12426:12427   */\n      0x00\n        /* \"#utility.yul\":12419:12434   */\n      revert\n        /* \"#utility.yul\":12446:12626   */\n    tag_257:\n        /* \"#utility.yul\":12494:12571   */\n      0x4e487b7100000000000000000000000000000000000000000000000000000000\n        /* \"#utility.yul\":12491:12492   */\n      0x00\n        /* \"#utility.yul\":12484:12572   */\n      mstore\n        /* \"#utility.yul\":12591:12595   */\n      0x22\n        /* \"#utility.yul\":12588:12589   */\n      0x04\n        /* \"#utility.yul\":12581:12596   */\n      mstore\n        /* \"#utility.yul\":12615:12619   */\n      0x24\n        /* \"#utility.yul\":12612:12613   */\n      0x00\n        /* \"#utility.yul\":12605:12620   */\n      revert\n        /* \"#utility.yul\":12632:12952   */\n    tag_258:\n        /* \"#utility.yul\":12676:12682   */\n      0x00\n        /* \"#utility.yul\":12713:12714   */\n      0x02\n        /* \"#utility.yul\":12707:12711   */\n      dup3\n        /* \"#utility.yul\":12703:12715   */\n      div\n        /* \"#utility.yul\":12693:12715   */\n      swap1\n      pop\n        /* \"#utility.yul\":12760:12761   */\n      0x01\n        /* \"#utility.yul\":12754:12758   */\n      dup3\n        /* \"#utility.yul\":12750:12762   */\n      and\n        /* \"#utility.yul\":12781:12799   */\n      dup1\n        /* \"#utility.yul\":12771:12852   */\n      tag_429\n      jumpi\n        /* \"#utility.yul\":12837:12841   */\n      0x7f\n        /* \"#utility.yul\":12829:12835   */\n      dup3\n        /* \"#utility.yul\":12825:12842   */\n      and\n        /* \"#utility.yul\":12815:12842   */\n      swap2\n      pop\n        /* \"#utility.yul\":12771:12852   */\n    tag_429:\n        /* \"#utility.yul\":12899:12901   */\n      0x20\n        /* \"#utility.yul\":12891:12897   */\n      dup3\n        /* \"#utility.yul\":12888:12902   */\n      lt\n        /* \"#utility.yul\":12868:12886   */\n      dup2\n        /* \"#utility.yul\":12865:12903   */\n      sub\n        /* \"#utility.yul\":12862:12946   */\n      tag_430\n      jumpi\n        /* \"#utility.yul\":12918:12936   */\n      tag_431\n      tag_257\n      jump\t// in\n    tag_431:\n        /* \"#utility.yul\":12862:12946   */\n    tag_430:\n        /* \"#utility.yul\":12683:12952   */\n      pop\n        /* \"#utility.yul\":12632:12952   */\n      swap2\n      swap1\n      pop\n      jump\t// out\n        /* \"#utility.yul\":12958:13099   */\n    tag_259:\n        /* \"#utility.yul\":13007:13011   */\n      0x00\n        /* \"#utility.yul\":13030:13033   */\n      dup2\n        /* \"#utility.yul\":13022:13033   */\n      swap1\n      pop\n        /* \"#utility.yul\":13053:13056   */\n      dup2\n        /* \"#utility.yul\":13050:13051   */\n      0x00\n        /* \"#utility.yul\":13043:13057   */\n      mstore\n        /* \"#utility.yul\":13087:13091   */\n      0x20\n        /* \"#utility.yul\":13084:13085   */\n      0x00\n        /* \"#utility.yul\":13074:13092   */\n      keccak256\n        /* \"#utility.yul\":13066:13092   */\n      swap1\n      pop\n        /* \"#utility.yul\":12958:13099   */\n      swap2\n      swap1\n      pop\n      jump\t// out\n        /* \"#utility.yul\":13105:13198   */\n    tag_260:\n        /* \"#utility.yul\":13142:13148   */\n      0x00\n        /* \"#utility.yul\":13189:13191   */\n      0x20\n        /* \"#utility.yul\":13184:13186   */\n      0x1f\n        /* \"#utility.yul\":13177:13182   */\n      dup4\n        /* \"#utility.yul\":13173:13187   */\n      add\n        /* \"#utility.yul\":13169:13192   */\n      div\n        /* \"#utility.yul\":13159:13192   */\n      swap1\n      pop\n        /* \"#utility.yul\":13105:13198   */\n      swap2\n      swap1\n      pop\n      jump\t// out\n        /* \"#utility.yul\":13204:13311   */\n    tag_261:\n        /* \"#utility.yul\":13248:13256   */\n      0x00\n        /* \"#utility.yul\":13298:13303   */\n      dup3\n        /* \"#utility.yul\":13292:13296   */\n      dup3\n        /* \"#utility.yul\":13288:13304   */\n      shl\n        /* \"#utility.yul\":13267:13304   */\n      swap1\n      pop\n        /* \"#utility.yul\":13204:13311   */\n      swap3\n      swap2\n      pop\n      pop\n      jump\t// out\n        /* \"#utility.yul\":13317:13710   */\n    tag_262:\n        /* \"#utility.yul\":13386:13392   */\n      0x00\n        /* \"#utility.yul\":13436:13437   */\n      0x08\n        /* \"#utility.yul\":13424:13434   */\n      dup4\n        /* \"#utility.yul\":13420:13438   */\n      mul\n        /* \"#utility.yul\":13459:13556   */\n      tag_436\n        /* \"#utility.yul\":13489:13555   */\n      0xffffffffffffffffffffffffffffffffffffffffffffffffffffffffffffffff\n        /* \"#utility.yul\":13478:13487   */\n      dup3\n        /* \"#utility.yul\":13459:13556   */\n      tag_261\n      jump\t// in\n    tag_436:\n        /* \"#utility.yul\":13577:13616   */\n      tag_437\n        /* \"#utility.yul\":13607:13615   */\n      dup7\n        /* \"#utility.yul\":13596:13605   */\n      dup4\n        /* \"#utility.yul\":13577:13616   */\n      tag_261\n      jump\t// in\n    tag_437:\n        /* \"#utility.yul\":13565:13616   */\n      swap6\n      pop\n        /* \"#utility.yul\":13649:13653   */\n      dup1\n        /* \"#utility.yul\":13645:13654   */\n      not\n        /* \"#utility.yul\":13638:13643   */\n      dup5\n        /* \"#utility.yul\":13634:13655   */\n      and\n        /* \"#utility.yul\":13625:13655   */\n      swap4\n      pop\n        /* \"#utility.yul\":13698:13702   */\n      dup1\n        /* \"#utility.yul\":13688:13696   */\n      dup7\n        /* \"#utility.yul\":13684:13703   */\n      and\n        /* \"#utility.yul\":13677:13682   */\n      dup5\n        /* \"#utility.yul\":13674:13704   */\n      or\n        /* \"#utility.yul\":13664:13704   */\n      swap3\n      pop\n        /* \"#utility.yul\":13393:13710   */\n      pop\n      pop\n        /* \"#utility.yul\":13317:13710   */\n      swap4\n      swap3\n      pop\n      pop\n      pop\n      jump\t// out\n        /* \"#utility.yul\":13716:13776   */\n    tag_263:\n        /* \"#utility.yul\":13744:13747   */\n      0x00\n        /* \"#utility.yul\":13765:13770   */\n      dup2\n        /* \"#utility.yul\":13758:13770   */\n      swap1\n      pop\n        /* \"#utility.yul\":13716:13776   */\n      swap2\n      swap1\n      pop\n      jump\t// out\n        /* \"#utility.yul\":13782:13924   */\n    tag_264:\n        /* \"#utility.yul\":13832:13841   */\n      0x00\n        /* \"#utility.yul\":13865:13918   */\n      tag_440\n        /* \"#utility.yul\":13883:13917   */\n      tag_441\n        /* \"#utility.yul\":13892:13916   */\n      tag_442\n        /* \"#utility.yul\":13910:13915   */\n      dup5\n        /* \"#utility.yul\":13892:13916   */\n      tag_224\n      jump\t// in\n    tag_442:\n        /* \"#utility.yul\":13883:13917   */\n      tag_263\n      jump\t// in\n    tag_441:\n        /* \"#utility.yul\":13865:13918   */\n      tag_224\n      jump\t// in\n    tag_440:\n        /* \"#utility.yul\":13852:13918   */\n      swap1\n      pop\n        /* \"#utility.yul\":13782:13924   */\n      swap2\n      swap1\n      pop\n      jump\t// out\n        /* \"#utility.yul\":13930:14005   */\n    tag_265:\n        /* \"#utility.yul\":13973:13976   */\n      0x00\n        /* \"#utility.yul\":13994:13999   */\n      dup2\n        /* \"#utility.yul\":13987:13999   */\n      swap1\n      pop\n        /* \"#utility.yul\":13930:14005   */\n      swap2\n      swap1\n      pop\n      jump\t// out\n        /* \"#utility.yul\":14011:14280   */\n    tag_266:\n        /* \"#utility.yul\":14121:14160   */\n      tag_445\n        /* \"#utility.yul\":14152:14159   */\n      dup4\n        /* \"#utility.yul\":14121:14160   */\n      tag_264\n      jump\t// in\n    tag_445:\n        /* \"#utility.yul\":14182:14273   */\n      tag_446\n        /* \"#utility.yul\":14231:14272   */\n      tag_447\n        /* \"#utility.yul\":14255:14271   */\n      dup3\n        /* \"#utility.yul\":14231:14272   */\n      tag_265\n      jump\t// in\n    tag_447:\n        /* \"#utility.yul\":14223:14229   */\n      dup5\n        /* \"#utility.yul\":14216:14220   */\n      dup5\n        /* \"#utility.yul\":14210:14221   */\n      sload\n        /* \"#utility.yul\":14182:14273   */\n      tag_262\n      jump\t// in\n    tag_446:\n        /* \"#utility.yul\":14176:14180   */\n      dup3\n        /* \"#utility.yul\":14169:14274   */\n      sstore\n        /* \"#utility.yul\":14087:14280   */\n      pop\n        /* \"#utility.yul\":14011:14280   */\n      pop\n      pop\n      pop\n      jump\t// out\n        /* \"#utility.yul\":14286:14359   */\n    tag_267:\n        /* \"#utility.yul\":14331:14334   */\n      0x00\n        /* \"#utility.yul\":14352:14353   */\n      0x00\n        /* \"#utility.yul\":14345:14353   */\n      swap1\n      pop\n        /* \"#utility.yul\":14286:14359   */\n      swap1\n      jump\t// out\n        /* \"#utility.yul\":14365:14554   */\n    tag_268:\n        /* \"#utility.yul\":14442:14474   */\n      tag_450\n      tag_267\n      jump\t// in\n    tag_450:\n        /* \"#utility.yul\":14483:14548   */\n      tag_451\n        /* \"#utility.yul\":14541:14547   */\n      dup2\n        /* \"#utility.yul\":14533:14539   */\n      dup5\n        /* \"#utility.yul\":14527:14531   */\n      dup5\n        /* \"#utility.yul\":14483:14548   */\n      tag_266\n      jump\t// in\n    tag_451:\n        /* \"#utility.yul\":14418:14554   */\n      pop\n        /* \"#utility.yul\":14365:14554   */\n      pop\n      pop\n      jump\t// out\n        /* \"#utility.yul\":14560:14774   */\n    tag_269:\n        /* \"#utility.yul\":14645:14646   */\n      0x00\n        /* \"#utility.yul\":14630:14768   */\n    tag_453:\n        /* \"#utility.yul\":14655:14664   */\n      dup3\n        /* \"#utility.yul\":14652:14653   */\n      dup2\n        /* \"#utility.yul\":14649:14665   */\n      lt\n        /* \"#utility.yul\":14630:14768   */\n      iszero\n      tag_455\n      jumpi\n        /* \"#utility.yul\":14707:14758   */\n      tag_456\n        /* \"#utility.yul\":14756:14757   */\n      0x00\n        /* \"#utility.yul\":14752:14753   */\n      dup3\n        /* \"#utility.yul\":14741:14750   */\n      dup5\n        /* \"#utility.yul\":14737:14754   */\n      add\n        /* \"#utility.yul\":14707:14758   */\n      tag_268\n      jump\t// in\n    tag_456:\n        /* \"#utility.yul\":14680:14681   */\n      0x01\n        /* \"#utility.yul\":14677:14678   */\n      dup2\n        /* \"#utility.yul\":14673:14682   */\n      add\n        /* \"#utility.yul\":14668:14682   */\n      swap1\n      pop\n        /* \"#utility.yul\":14630:14768   */\n      jump(tag_453)\n    tag_455:\n        /* \"#utility.yul\":14634:14648   */\n      pop\n        /* \"#utility.yul\":14560:14774   */\n      pop\n      pop\n      jump\t// out\n        /* \"#utility.yul\":14780:15526   */\n    tag_270:\n        /* \"#utility.yul\":14881:14883   */\n      0x1f\n        /* \"#utility.yul\":14876:14879   */\n      dup3\n        /* \"#utility.yul\":14873:14884   */\n      gt\n        /* \"#utility.yul\":14870:15519   */\n      iszero\n      tag_458\n      jumpi\n        /* \"#utility.yul\":14910:14920   */\n      dup3\n        /* \"#utility.yul\":14905:14908   */\n      dup3\n        /* \"#utility.yul\":14902:14921   */\n      gt\n        /* \"#utility.yul\":14899:15509   */\n      iszero\n      tag_459\n      jumpi\n        /* \"#utility.yul\":14956:14994   */\n      tag_460\n        /* \"#utility.yul\":14988:14993   */\n      dup2\n        /* \"#utility.yul\":14956:14994   */\n      tag_259\n      jump\t// in\n    tag_460:\n        /* \"#utility.yul\":15031:15053   */\n      tag_461\n        /* \"#utility.yul\":15049:15052   */\n      dup4\n        /* \"#utility.yul\":15031:15053   */\n      tag_260\n      jump\t// in\n    tag_461:\n        /* \"#utility.yul\":15090:15119   */\n      tag_462\n        /* \"#utility.yul\":15108:15118   */\n      dup6\n        /* \"#utility.yul\":15090:15119   */\n      tag_260\n      jump\t// in\n    tag_462:\n        /* \"#utility.yul\":15280:15282   */\n      0x20\n        /* \"#utility.yul\":15268:15278   */\n      dup7\n        /* \"#utility.yul\":15265:15283   */\n      lt\n        /* \"#utility.yul\":15262:15341   */\n      iszero\n      tag_463\n      jumpi\n        /* \"#utility.yul\":15322:15323   */\n      0x00\n        /* \"#utility.yul\":15306:15323   */\n      swap1\n      pop\n        /* \"#utility.yul\":15262:15341   */\n    tag_463:\n        /* \"#utility.yul\":15391:15403   */\n      dup1\n        /* \"#utility.yul\":15381:15389   */\n      dup4\n        /* \"#utility.yul\":15377:15404   */\n      add\n        /* \"#utility.yul\":15421:15495   */\n      tag_464\n        /* \"#utility.yul\":15481:15493   */\n      dup3\n        /* \"#utility.yul\":15467:15479   */\n      dup5\n        /* \"#utility.yul\":15463:15494   */\n      sub\n        /* \"#utility.yul\":15450:15461   */\n      dup3\n        /* \"#utility.yul\":15421:15495   */\n      tag_269\n      jump\t// in\n    tag_464:\n        /* \"#utility.yul\":14922:15509   */\n      pop\n      pop\n      pop\n      pop\n        /* \"#utility.yul\":14899:15509   */\n    tag_459:\n        /* \"#utility.yul\":14870:15519   */\n    tag_458:\n        /* \"#utility.yul\":14780:15526   */\n      pop\n      pop\n      pop\n      jump\t// out\n        /* \"#utility.yul\":15532:15649   */\n    tag_271:\n        /* \"#utility.yul\":15586:15594   */\n      0x00\n        /* \"#utility.yul\":15636:15641   */\n      dup3\n        /* \"#utility.yul\":15630:15634   */\n      dup3\n        /* \"#utility.yul\":15626:15642   */\n      shr\n        /* \"#utility.yul\":15605:15642   */\n      swap1\n      pop\n        /* \"#utility.yul\":15532:15649   */\n      swap3\n      swap2\n      pop\n      pop\n      jump\t// out\n        /* \"#utility.yul\":15655:15824   */\n    tag_272:\n        /* \"#utility.yul\":15699:15705   */\n      0x00\n        /* \"#utility.yul\":15732:15783   */\n      tag_467\n        /* \"#utility.yul\":15780:15781   */\n      0x00\n        /* \"#utility.yul\":15776:15782   */\n      not\n        /* \"#utility.yul\":15768:15773   */\n      dup5\n        /* \"#utility.yul\":15765:15766   */\n      0x08\n        /* \"#utility.yul\":15761:15774   */\n      mul\n        /* \"#utility.yul\":15732:15783   */\n      tag_271\n      jump\t// in\n    tag_467:\n        /* \"#utility.yul\":15728:15784   */\n      not\n        /* \"#utility.yul\":15813:15817   */\n      dup1\n        /* \"#utility.yul\":15807:15811   */\n      dup4\n        /* \"#utility.yul\":15803:15818   */\n      and\n        /* \"#utility.yul\":15793:15818   */\n      swap2\n      pop\n        /* \"#utility.yul\":15706:15824   */\n      pop\n        /* \"#utility.yul\":15655:15824   */\n      swap3\n      swap2\n      pop\n      pop\n      jump\t// out\n        /* \"#utility.yul\":15829:16124   */\n    tag_273:\n        /* \"#utility.yul\":15905:15909   */\n      0x00\n        /* \"#utility.yul\":16051:16080   */\n      tag_469\n        /* \"#utility.yul\":16076:16079   */\n      dup4\n        /* \"#utility.yul\":16070:16074   */\n      dup4\n        /* \"#utility.yul\":16051:16080   */\n      tag_272\n      jump\t// in\n    tag_469:\n        /* \"#utility.yul\":16043:16080   */\n      swap2\n      pop\n        /* \"#utility.yul\":16113:16116   */\n      dup3\n        /* \"#utility.yul\":16110:16111   */\n      0x02\n        /* \"#utility.yul\":16106:16117   */\n      mul\n        /* \"#utility.yul\":16100:16104   */\n      dup3\n        /* \"#utility.yul\":16097:16118   */\n      or\n        /* \"#utility.yul\":16089:16118   */\n      swap1\n      pop\n        /* \"#utility.yul\":15829:16124   */\n      swap3\n      swap2\n      pop\n      pop\n      jump\t// out\n        /* \"#utility.yul\":16129:17532   */\n    tag_122:\n        /* \"#utility.yul\":16253:16297   */\n      tag_471\n        /* \"#utility.yul\":16293:16296   */\n      dup4\n        /* \"#utility.yul\":16288:16291   */\n      dup4\n        /* \"#utility.yul\":16253:16297   */\n      tag_255\n      jump\t// in\n    tag_471:\n        /* \"#utility.yul\":16362:16380   */\n      0xffffffffffffffff\n        /* \"#utility.yul\":16354:16360   */\n      dup2\n        /* \"#utility.yul\":16351:16381   */\n      gt\n        /* \"#utility.yul\":16348:16404   */\n      iszero\n      tag_472\n      jumpi\n        /* \"#utility.yul\":16384:16402   */\n      tag_473\n      tag_256\n      jump\t// in\n    tag_473:\n        /* \"#utility.yul\":16348:16404   */\n    tag_472:\n        /* \"#utility.yul\":16428:16466   */\n      tag_474\n        /* \"#utility.yul\":16460:16464   */\n      dup3\n        /* \"#utility.yul\":16454:16465   */\n      sload\n        /* \"#utility.yul\":16428:16466   */\n      tag_258\n      jump\t// in\n    tag_474:\n        /* \"#utility.yul\":16513:16580   */\n      tag_475\n        /* \"#utility.yul\":16573:16579   */\n      dup3\n        /* \"#utility.yul\":16565:16571   */\n      dup3\n        /* \"#utility.yul\":16559:16563   */\n      dup6\n        /* \"#utility.yul\":16513:16580   */\n      tag_270\n      jump\t// in\n    tag_475:\n        /* \"#utility.yul\":16607:16608   */\n      0x00\n        /* \"#utility.yul\":16636:16638   */\n      0x1f\n        /* \"#utility.yul\":16628:16634   */\n      dup4\n        /* \"#utility.yul\":16625:16639   */\n      gt\n        /* \"#utility.yul\":16653:16654   */\n      0x01\n        /* \"#utility.yul\":16648:17280   */\n      dup2\n      eq\n      tag_477\n      jumpi\n        /* \"#utility.yul\":17324:17325   */\n      0x00\n        /* \"#utility.yul\":17341:17347   */\n      dup5\n        /* \"#utility.yul\":17338:17422   */\n      iszero\n      tag_478\n      jumpi\n        /* \"#utility.yul\":17397:17406   */\n      dup3\n        /* \"#utility.yul\":17392:17395   */\n      dup8\n        /* \"#utility.yul\":17388:17407   */\n      add\n        /* \"#utility.yul\":17375:17408   */\n      calldataload\n        /* \"#utility.yul\":17366:17408   */\n      swap1\n      pop\n        /* \"#utility.yul\":17338:17422   */\n    tag_478:\n        /* \"#utility.yul\":17448:17515   */\n      tag_479\n        /* \"#utility.yul\":17508:17514   */\n      dup6\n        /* \"#utility.yul\":17501:17506   */\n      dup3\n        /* \"#utility.yul\":17448:17515   */\n      tag_273\n      jump\t// in\n    tag_479:\n        /* \"#utility.yul\":17442:17446   */\n      dup7\n        /* \"#utility.yul\":17435:17516   */\n      sstore\n        /* \"#utility.yul\":17297:17526   */\n      pop\n        /* \"#utility.yul\":16618:17526   */\n      jump(tag_476)\n        /* \"#utility.yul\":16648:17280   */\n    tag_477:\n        /* \"#utility.yul\":16700:16704   */\n      0x1f\n        /* \"#utility.yul\":16696:16705   */\n      not\n        /* \"#utility.yul\":16688:16694   */\n      dup5\n        /* \"#utility.yul\":16684:16706   */\n      and\n        /* \"#utility.yul\":16734:16771   */\n      tag_480\n        /* \"#utility.yul\":16766:16770   */\n      dup7\n        /* \"#utility.yul\":16734:16771   */\n      tag_259\n      jump\t// in\n    tag_480:\n        /* \"#utility.yul\":16793:16794   */\n      0x00\n        /* \"#utility.yul\":16807:17022   */\n    tag_481:\n        /* \"#utility.yul\":16821:16828   */\n      dup3\n        /* \"#utility.yul\":16818:16819   */\n      dup2\n        /* \"#utility.yul\":16815:16829   */\n      lt\n        /* \"#utility.yul\":16807:17022   */\n      iszero\n      tag_483\n      jumpi\n        /* \"#utility.yul\":16907:16916   */\n      dup5\n        /* \"#utility.yul\":16902:16905   */\n      dup10\n        /* \"#utility.yul\":16898:16917   */\n      add\n        /* \"#utility.yul\":16885:16918   */\n      calldataload\n        /* \"#utility.yul\":16877:16883   */\n      dup3\n        /* \"#utility.yul\":16870:16919   */\n      sstore\n        /* \"#utility.yul\":16958:16959   */\n      0x01\n        /* \"#utility.yul\":16950:16956   */\n      dup3\n        /* \"#utility.yul\":16946:16960   */\n      add\n        /* \"#utility.yul\":16936:16960   */\n      swap2\n      pop\n        /* \"#utility.yul\":17005:17007   */\n      0x20\n        /* \"#utility.yul\":16994:17003   */\n      dup6\n        /* \"#utility.yul\":16990:17008   */\n      add\n        /* \"#utility.yul\":16977:17008   */\n      swap5\n      pop\n        /* \"#utility.yul\":16844:16848   */\n      0x20\n        /* \"#utility.yul\":16841:16842   */\n      dup2\n        /* \"#utility.yul\":16837:16849   */\n      add\n        /* \"#utility.yul\":16832:16849   */\n      swap1\n      pop\n        /* \"#utility.yul\":16807:17022   */\n      jump(tag_481)\n    tag_483:\n        /* \"#utility.yul\":17050:17056   */\n      dup7\n        /* \"#utility.yul\":17041:17048   */\n      dup4\n        /* \"#utility.yul\":17038:17057   */\n      lt\n        /* \"#utility.yul\":17035:17221   */\n      iszero\n      tag_484\n      jumpi\n        /* \"#utility.yul\":17115:17124   */\n      dup5\n        /* \"#utility.yul\":17110:17113   */\n      dup10\n        /* \"#utility.yul\":17106:17125   */\n      add\n        /* \"#utility.yul\":17093:17126   */\n      calldataload\n        /* \"#utility.yul\":17158:17206   */\n      tag_485\n        /* \"#utility.yul\":17200:17204   */\n      0x1f\n        /* \"#utility.yul\":17192:17198   */\n      dup10\n        /* \"#utility.yul\":17188:17205   */\n      and\n        /* \"#utility.yul\":17177:17186   */\n      dup3\n        /* \"#utility.yul\":17158:17206   */\n      tag_272\n      jump\t// in\n    tag_485:\n        /* \"#utility.yul\":17150:17156   */\n      dup4\n        /* \"#utility.yul\":17143:17207   */\n      sstore\n        /* \"#utility.yul\":17058:17221   */\n      pop\n        /* \"#utility.yul\":17035:17221   */\n    tag_484:\n        /* \"#utility.yul\":17267:17268   */\n      0x01\n        /* \"#utility.yul\":17263:17264   */\n      0x02\n        /* \"#utility.yul\":17255:17261   */\n      dup9\n        /* \"#utility.yul\":17251:17265   */\n      mul\n        /* \"#utility.yul\":17247:17269   */\n      add\n        /* \"#utility.yul\":17241:17245   */\n      dup9\n        /* \"#utility.yul\":17234:17270   */\n      sstore\n        /* \"#utility.yul\":16655:17280   */\n      pop\n      pop\n      pop\n        /* \"#utility.yul\":16618:17526   */\n    tag_476:\n      pop\n        /* \"#utility.yul\":16228:17532   */\n      pop\n      pop\n      pop\n        /* \"#utility.yul\":16129:17532   */\n      pop\n      pop\n      pop\n      jump\t// out\n        /* \"#utility.yul\":17538:17729   */\n    tag_124:\n        /* \"#utility.yul\":17578:17581   */\n      0x00\n        /* \"#utility.yul\":17597:17617   */\n      tag_487\n        /* \"#utility.yul\":17615:17616   */\n      dup3\n        /* \"#utility.yul\":17597:17617   */\n      tag_224\n      jump\t// in\n    tag_487:\n        /* \"#utility.yul\":17592:17617   */\n      swap2\n      pop\n        /* \"#utility.yul\":17631:17651   */\n      tag_488\n        /* \"#utility.yul\":17649:17650   */\n      dup4\n        /* \"#utility.yul\":17631:17651   */\n      tag_224\n      jump\t// in\n    tag_488:\n        /* \"#utility.yul\":17626:17651   */\n      swap3\n      pop\n        /* \"#utility.yul\":17674:17675   */\n      dup3\n        /* \"#utility.yul\":17671:17672   */\n      dup3\n        /* \"#utility.yul\":17667:17676   */\n      add\n        /* \"#utility.yul\":17660:17676   */\n      swap1\n      pop\n        /* \"#utility.yul\":17695:17698   */\n      dup1\n        /* \"#utility.yul\":17692:17693   */\n      dup3\n        /* \"#utility.yul\":17689:17699   */\n      gt\n        /* \"#utility.yul\":17686:17722   */\n      iszero\n      tag_489\n      jumpi\n        /* \"#utility.yul\":17702:17720   */\n      tag_490\n      tag_250\n      jump\t// in\n    tag_490:\n        /* \"#utility.yul\":17686:17722   */\n    tag_489:\n        /* \"#utility.yul\":17538:17729   */\n      swap3\n      swap2\n      pop\n      pop\n      jump\t// out\n        /* \"#utility.yul\":17735:17877   */\n    tag_274:\n        /* \"#utility.yul\":17785:17794   */\n      0x00\n        /* \"#utility.yul\":17818:17871   */\n      tag_492\n        /* \"#utility.yul\":17836:17870   */\n      tag_493\n        /* \"#utility.yul\":17845:17869   */\n      tag_494\n        /* \"#utility.yul\":17863:17868   */\n      dup5\n        /* \"#utility.yul\":17845:17869   */\n      tag_220\n      jump\t// in\n    tag_494:\n        /* \"#utility.yul\":17836:17870   */\n      tag_263\n      jump\t// in\n    tag_493:\n        /* \"#utility.yul\":17818:17871   */\n      tag_220\n      jump\t// in\n    tag_492:\n        /* \"#utility.yul\":17805:17871   */\n      swap1\n      pop\n        /* \"#utility.yul\":17735:17877   */\n      swap2\n      swap1\n      pop\n      jump\t// out\n        /* \"#utility.yul\":17883:18009   */\n    tag_275:\n        /* \"#utility.yul\":17933:17942   */\n      0x00\n        /* \"#utility.yul\":17966:18003   */\n      tag_496\n        /* \"#utility.yul\":17997:18002   */\n      dup3\n        /* \"#utility.yul\":17966:18003   */\n      tag_274\n      jump\t// in\n    tag_496:\n        /* \"#utility.yul\":17953:18003   */\n      swap1\n      pop\n        /* \"#utility.yul\":17883:18009   */\n      swap2\n      swap1\n      pop\n      jump\t// out\n        /* \"#utility.yul\":18015:18149   */\n    tag_276:\n        /* \"#utility.yul\":18073:18082   */\n      0x00\n        /* \"#utility.yul\":18106:18143   */\n      tag_498\n        /* \"#utility.yul\":18137:18142   */\n      dup3\n        /* \"#utility.yul\":18106:18143   */\n      tag_275\n      jump\t// in\n    tag_498:\n        /* \"#utility.yul\":18093:18143   */\n      swap1\n      pop\n        /* \"#utility.yul\":18015:18149   */\n      swap2\n      swap1\n      pop\n      jump\t// out\n        /* \"#utility.yul\":18155:18302   */\n    tag_277:\n        /* \"#utility.yul\":18250:18295   */\n      tag_500\n        /* \"#utility.yul\":18289:18294   */\n      dup2\n        /* \"#utility.yul\":18250:18295   */\n      tag_276\n      jump\t// in\n    tag_500:\n        /* \"#utility.yul\":18245:18248   */\n      dup3\n        /* \"#utility.yul\":18238:18296   */\n      mstore\n        /* \"#utility.yul\":18155:18302   */\n      pop\n      pop\n      jump\t// out\n        /* \"#utility.yul\":18308:18456   */\n    tag_278:\n        /* \"#utility.yul\":18406:18412   */\n      dup3\n        /* \"#utility.yul\":18401:18404   */\n      dup2\n        /* \"#utility.yul\":18396:18399   */\n      dup4\n        /* \"#utility.yul\":18383:18413   */\n      calldatacopy\n        /* \"#utility.yul\":18447:18448   */\n      0x00\n        /* \"#utility.yul\":18438:18444   */\n      dup4\n        /* \"#utility.yul\":18433:18436   */\n      dup4\n        /* \"#utility.yul\":18429:18445   */\n      add\n        /* \"#utility.yul\":18422:18449   */\n      mstore\n        /* \"#utility.yul\":18308:18456   */\n      pop\n      pop\n      pop\n      jump\t// out\n        /* \"#utility.yul\":18462:18564   */\n    tag_279:\n        /* \"#utility.yul\":18503:18509   */\n      0x00\n        /* \"#utility.yul\":18554:18556   */\n      0x1f\n        /* \"#utility.yul\":18550:18557   */\n      not\n        /* \"#utility.yul\":18545:18547   */\n      0x1f\n        /* \"#utility.yul\":18538:18543   */\n      dup4\n        /* \"#utility.yul\":18534:18548   */\n      add\n        /* \"#utility.yul\":18530:18558   */\n      and\n        /* \"#utility.yul\":18520:18558   */\n      swap1\n      pop\n        /* \"#utility.yul\":18462:18564   */\n      swap2\n      swap1\n      pop\n      jump\t// out\n        /* \"#utility.yul\":18594:18911   */\n    tag_280:\n        /* \"#utility.yul\":18692:18695   */\n      0x00\n        /* \"#utility.yul\":18713:18784   */\n      tag_504\n        /* \"#utility.yul\":18777:18783   */\n      dup4\n        /* \"#utility.yul\":18772:18775   */\n      dup6\n        /* \"#utility.yul\":18713:18784   */\n      tag_247\n      jump\t// in\n    tag_504:\n        /* \"#utility.yul\":18706:18784   */\n      swap4\n      pop\n        /* \"#utility.yul\":18794:18850   */\n      tag_505\n        /* \"#utility.yul\":18843:18849   */\n      dup4\n        /* \"#utility.yul\":18838:18841   */\n      dup6\n        /* \"#utility.yul\":18831:18836   */\n      dup5\n        /* \"#utility.yul\":18794:18850   */\n      tag_278\n      jump\t// in\n    tag_505:\n        /* \"#utility.yul\":18875:18904   */\n      tag_506\n        /* \"#utility.yul\":18897:18903   */\n      dup4\n        /* \"#utility.yul\":18875:18904   */\n      tag_279\n      jump\t// in\n    tag_506:\n        /* \"#utility.yul\":18870:18873   */\n      dup5\n        /* \"#utility.yul\":18866:18905   */\n      add\n        /* \"#utility.yul\":18859:18905   */\n      swap1\n      pop\n        /* \"#utility.yul\":18594:18911   */\n      swap4\n      swap3\n      pop\n      pop\n      pop\n      jump\t// out\n        /* \"#utility.yul\":18917:19597   */\n    tag_126:\n        /* \"#utility.yul\":19132:19136   */\n      0x00\n        /* \"#utility.yul\":19170:19173   */\n      0x80\n        /* \"#utility.yul\":19159:19168   */\n      dup3\n        /* \"#utility.yul\":19155:19174   */\n      add\n        /* \"#utility.yul\":19147:19174   */\n      swap1\n      pop\n        /* \"#utility.yul\":19184:19255   */\n      tag_508\n        /* \"#utility.yul\":19252:19253   */\n      0x00\n        /* \"#utility.yul\":19241:19250   */\n      dup4\n        /* \"#utility.yul\":19237:19254   */\n      add\n        /* \"#utility.yul\":19228:19234   */\n      dup9\n        /* \"#utility.yul\":19184:19255   */\n      tag_225\n      jump\t// in\n    tag_508:\n        /* \"#utility.yul\":19265:19345   */\n      tag_509\n        /* \"#utility.yul\":19341:19343   */\n      0x20\n        /* \"#utility.yul\":19330:19339   */\n      dup4\n        /* \"#utility.yul\":19326:19344   */\n      add\n        /* \"#utility.yul\":19317:19323   */\n      dup8\n        /* \"#utility.yul\":19265:19345   */\n      tag_277\n      jump\t// in\n    tag_509:\n        /* \"#utility.yul\":19355:19427   */\n      tag_510\n        /* \"#utility.yul\":19423:19425   */\n      0x40\n        /* \"#utility.yul\":19412:19421   */\n      dup4\n        /* \"#utility.yul\":19408:19426   */\n      add\n        /* \"#utility.yul\":19399:19405   */\n      dup7\n        /* \"#utility.yul\":19355:19427   */\n      tag_225\n      jump\t// in\n    tag_510:\n        /* \"#utility.yul\":19474:19483   */\n      dup2\n        /* \"#utility.yul\":19468:19472   */\n      dup2\n        /* \"#utility.yul\":19464:19484   */\n      sub\n        /* \"#utility.yul\":19459:19461   */\n      0x60\n        /* \"#utility.yul\":19448:19457   */\n      dup4\n        /* \"#utility.yul\":19444:19462   */\n      add\n        /* \"#utility.yul\":19437:19485   */\n      mstore\n        /* \"#utility.yul\":19502:19590   */\n      tag_511\n        /* \"#utility.yul\":19585:19589   */\n      dup2\n        /* \"#utility.yul\":19576:19582   */\n      dup5\n        /* \"#utility.yul\":19568:19574   */\n      dup7\n        /* \"#utility.yul\":19502:19590   */\n      tag_280\n      jump\t// in\n    tag_511:\n        /* \"#utility.yul\":19494:19590   */\n      swap1\n      pop\n        /* \"#utility.yul\":18917:19597   */\n      swap7\n      swap6\n      pop\n      pop\n      pop\n      pop\n      pop\n      pop\n      jump\t// out\n        /* \"#utility.yul\":19603:19765   */\n    tag_281:\n        /* \"#utility.yul\":19743:19757   */\n      0x566f74696e6720656e6465640000000000000000000000000000000000000000\n        /* \"#utility.yul\":19739:19740   */\n      0x00\n        /* \"#utility.yul\":19731:19737   */\n      dup3\n        /* \"#utility.yul\":19727:19741   */\n      add\n        /* \"#utility.yul\":19720:19758   */\n      mstore\n        /* \"#utility.yul\":19603:19765   */\n      pop\n      jump\t// out\n        /* \"#utility.yul\":19771:20137   */\n    tag_282:\n        /* \"#utility.yul\":19913:19916   */\n      0x00\n        /* \"#utility.yul\":19934:20001   */\n      tag_514\n        /* \"#utility.yul\":19998:20000   */\n      0x0c\n        /* \"#utility.yul\":19993:19996   */\n      dup4\n        /* \"#utility.yul\":19934:20001   */\n      tag_247\n      jump\t// in\n    tag_514:\n        /* \"#utility.yul\":19927:20001   */\n      swap2\n      pop\n        /* \"#utility.yul\":20010:20103   */\n      tag_515\n        /* \"#utility.yul\":20099:20102   */\n      dup3\n        /* \"#utility.yul\":20010:20103   */\n      tag_281\n      jump\t// in\n    tag_515:\n        /* \"#utility.yul\":20128:20130   */\n      0x20\n        /* \"#utility.yul\":20123:20126   */\n      dup3\n        /* \"#utility.yul\":20119:20131   */\n      add\n        /* \"#utility.yul\":20112:20131   */\n      swap1\n      pop\n        /* \"#utility.yul\":19771:20137   */\n      swap2\n      swap1\n      pop\n      jump\t// out\n        /* \"#utility.yul\":20143:20562   */\n    tag_137:\n        /* \"#utility.yul\":20309:20313   */\n      0x00\n        /* \"#utility.yul\":20347:20349   */\n      0x20\n        /* \"#utility.yul\":20336:20345   */\n      dup3\n        /* \"#utility.yul\":20332:20350   */\n      add\n        /* \"#utility.yul\":20324:20350   */\n      swap1\n      pop\n        /* \"#utility.yul\":20396:20405   */\n      dup2\n        /* \"#utility.yul\":20390:20394   */\n      dup2\n        /* \"#utility.yul\":20386:20406   */\n      sub\n        /* \"#utility.yul\":20382:20383   */\n      0x00\n        /* \"#utility.yul\":20371:20380   */\n      dup4\n        /* \"#utility.yul\":20367:20384   */\n      add\n        /* \"#utility.yul\":20360:20407   */\n      mstore\n        /* \"#utility.yul\":20424:20555   */\n      tag_517\n        /* \"#utility.yul\":20550:20554   */\n      dup2\n        /* \"#utility.yul\":20424:20555   */\n      tag_282\n      jump\t// in\n    tag_517:\n        /* \"#utility.yul\":20416:20555   */\n      swap1\n      pop\n        /* \"#utility.yul\":20143:20562   */\n      swap2\n      swap1\n      pop\n      jump\t// out\n        /* \"#utility.yul\":20568:20731   */\n    tag_283:\n        /* \"#utility.yul\":20708:20723   */\n      0x416c726561647920766f74656400000000000000000000000000000000000000\n        /* \"#utility.yul\":20704:20705   */\n      0x00\n        /* \"#utility.yul\":20696:20702   */\n      dup3\n        /* \"#utility.yul\":20692:20706   */\n      add\n        /* \"#utility.yul\":20685:20724   */\n      mstore\n        /* \"#utility.yul\":20568:20731   */\n      pop\n      jump\t// out\n        /* \"#utility.yul\":20737:21103   */\n    tag_284:\n        /* \"#utility.yul\":20879:20882   */\n      0x00\n        /* \"#utility.yul\":20900:20967   */\n      tag_520\n        /* \"#utility.yul\":20964:20966   */\n      0x0d\n        /* \"#utility.yul\":20959:20962   */\n      dup4\n        /* \"#utility.yul\":20900:20967   */\n      tag_247\n      jump\t// in\n    tag_520:\n        /* \"#utility.yul\":20893:20967   */\n      swap2\n      pop\n        /* \"#utility.yul\":20976:21069   */\n      tag_521\n        /* \"#utility.yul\":21065:21068   */\n      dup3\n        /* \"#utility.yul\":20976:21069   */\n      tag_283\n      jump\t// in\n    tag_521:\n        /* \"#utility.yul\":21094:21096   */\n      0x20\n        /* \"#utility.yul\":21089:21092   */\n      dup3\n        /* \"#utility.yul\":21085:21097   */\n      add\n        /* \"#utility.yul\":21078:21097   */\n      swap1\n      pop\n        /* \"#utility.yul\":20737:21103   */\n      swap2\n      swap1\n      pop\n      jump\t// out\n        /* \"#utility.yul\":21109:21528   */\n    tag_140:\n        /* \"#utility.yul\":21275:21279   */\n      0x00\n        /* \"#utility.yul\":21313:21315   */\n      0x20\n        /* \"#utility.yul\":21302:21311   */\n      dup3\n        /* \"#utility.yul\":21298:21316   */\n      add\n        /* \"#utility.yul\":21290:21316   */\n      swap1\n      pop\n        /* \"#utility.yul\":21362:21371   */\n      dup2\n        /* \"#utility.yul\":21356:21360   */\n      dup2\n        /* \"#utility.yul\":21352:21372   */\n      sub\n        /* \"#utility.yul\":21348:21349   */\n      0x00\n        /* \"#utility.yul\":21337:21346   */\n      dup4\n        /* \"#utility.yul\":21333:21350   */\n      add\n        /* \"#utility.yul\":21326:21373   */\n      mstore\n        /* \"#utility.yul\":21390:21521   */\n      tag_523\n        /* \"#utility.yul\":21516:21520   */\n      dup2\n        /* \"#utility.yul\":21390:21521   */\n      tag_284\n      jump\t// in\n    tag_523:\n        /* \"#utility.yul\":21382:21521   */\n      swap1\n      pop\n        /* \"#utility.yul\":21109:21528   */\n      swap2\n      swap1\n      pop\n      jump\t// out\n        /* \"#utility.yul\":21534:21964   */\n    tag_146:\n        /* \"#utility.yul\":21677:21681   */\n      0x00\n        /* \"#utility.yul\":21715:21717   */\n      0x60\n        /* \"#utility.yul\":21704:21713   */\n      dup3\n        /* \"#utility.yul\":21700:21718   */\n      add\n        /* \"#utility.yul\":21692:21718   */\n      swap1\n      pop\n        /* \"#utility.yul\":21728:21799   */\n      tag_525\n        /* \"#utility.yul\":21796:21797   */\n      0x00\n        /* \"#utility.yul\":21785:21794   */\n      dup4\n        /* \"#utility.yul\":21781:21798   */\n      add\n        /* \"#utility.yul\":21772:21778   */\n      dup7\n        /* \"#utility.yul\":21728:21799   */\n      tag_225\n      jump\t// in\n    tag_525:\n        /* \"#utility.yul\":21809:21881   */\n      tag_526\n        /* \"#utility.yul\":21877:21879   */\n      0x20\n        /* \"#utility.yul\":21866:21875   */\n      dup4\n        /* \"#utility.yul\":21862:21880   */\n      add\n        /* \"#utility.yul\":21853:21859   */\n      dup6\n        /* \"#utility.yul\":21809:21881   */\n      tag_235\n      jump\t// in\n    tag_526:\n        /* \"#utility.yul\":21891:21957   */\n      tag_527\n        /* \"#utility.yul\":21953:21955   */\n      0x40\n        /* \"#utility.yul\":21942:21951   */\n      dup4\n        /* \"#utility.yul\":21938:21956   */\n      add\n        /* \"#utility.yul\":21929:21935   */\n      dup5\n        /* \"#utility.yul\":21891:21957   */\n      tag_244\n      jump\t// in\n    tag_527:\n        /* \"#utility.yul\":21534:21964   */\n      swap5\n      swap4\n      pop\n      pop\n      pop\n      pop\n      jump\t// out\n        /* \"#utility.yul\":21970:22134   */\n    tag_285:\n        /* \"#utility.yul\":22110:22126   */\n      0x416c7265616479206d656d626572000000000000000000000000000000000000\n        /* \"#utility.yul\":22106:22107   */\n      0x00\n        /* \"#utility.yul\":22098:22104   */\n      dup3\n        /* \"#utility.yul\":22094:22108   */\n      add\n        /* \"#utility.yul\":22087:22127   */\n      mstore\n        /* \"#utility.yul\":21970:22134   */\n      pop\n      jump\t// out\n        /* \"#utility.yul\":22140:22506   */\n    tag_286:\n        /* \"#utility.yul\":22282:22285   */\n      0x00\n        /* \"#utility.yul\":22303:22370   */\n      tag_530\n        /* \"#utility.yul\":22367:22369   */\n      0x0e\n        /* \"#utility.yul\":22362:22365   */\n      dup4\n        /* \"#utility.yul\":22303:22370   */\n      tag_247\n      jump\t// in\n    tag_530:\n        /* \"#utility.yul\":22296:22370   */\n      swap2\n      pop\n        /* \"#utility.yul\":22379:22472   */\n      tag_531\n        /* \"#utility.yul\":22468:22471   */\n      dup3\n        /* \"#utility.yul\":22379:22472   */\n      tag_285\n      jump\t// in\n    tag_531:\n        /* \"#utility.yul\":22497:22499   */\n      0x20\n        /* \"#utility.yul\":22492:22495   */\n      dup3\n        /* \"#utility.yul\":22488:22500   */\n      add\n        /* \"#utility.yul\":22481:22500   */\n      swap1\n      pop\n        /* \"#utility.yul\":22140:22506   */\n      swap2\n      swap1\n      pop\n      jump\t// out\n        /* \"#utility.yul\":22512:22931   */\n    tag_152:\n        /* \"#utility.yul\":22678:22682   */\n      0x00\n        /* \"#utility.yul\":22716:22718   */\n      0x20\n        /* \"#utility.yul\":22705:22714   */\n      dup3\n        /* \"#utility.yul\":22701:22719   */\n      add\n        /* \"#utility.yul\":22693:22719   */\n      swap1\n      pop\n        /* \"#utility.yul\":22765:22774   */\n      dup2\n        /* \"#utility.yul\":22759:22763   */\n      dup2\n        /* \"#utility.yul\":22755:22775   */\n      sub\n        /* \"#utility.yul\":22751:22752   */\n      0x00\n        /* \"#utility.yul\":22740:22749   */\n      dup4\n        /* \"#utility.yul\":22736:22753   */\n      add\n        /* \"#utility.yul\":22729:22776   */\n      mstore\n        /* \"#utility.yul\":22793:22924   */\n      tag_533\n        /* \"#utility.yul\":22919:22923   */\n      dup2\n        /* \"#utility.yul\":22793:22924   */\n      tag_286\n      jump\t// in\n    tag_533:\n        /* \"#utility.yul\":22785:22924   */\n      swap1\n      pop\n        /* \"#utility.yul\":22512:22931   */\n      swap2\n      swap1\n      pop\n      jump\t// out\n        /* \"#utility.yul\":22937:23103   */\n    tag_287:\n        /* \"#utility.yul\":23077:23095   */\n      0x416c726561647920657865637574656400000000000000000000000000000000\n        /* \"#utility.yul\":23073:23074   */\n      0x00\n        /* \"#utility.yul\":23065:23071   */\n      dup3\n        /* \"#utility.yul\":23061:23075   */\n      add\n        /* \"#utility.yul\":23054:23096   */\n      mstore\n        /* \"#utility.yul\":22937:23103   */\n      pop\n      jump\t// out\n        /* \"#utility.yul\":23109:23475   */\n    tag_288:\n        /* \"#utility.yul\":23251:23254   */\n      0x00\n        /* \"#utility.yul\":23272:23339   */\n      tag_536\n        /* \"#utility.yul\":23336:23338   */\n      0x10\n        /* \"#utility.yul\":23331:23334   */\n      dup4\n        /* \"#utility.yul\":23272:23339   */\n      tag_247\n      jump\t// in\n    tag_536:\n        /* \"#utility.yul\":23265:23339   */\n      swap2\n      pop\n        /* \"#utility.yul\":23348:23441   */\n      tag_537\n        /* \"#utility.yul\":23437:23440   */\n      dup3\n        /* \"#utility.yul\":23348:23441   */\n      tag_287\n      jump\t// in\n    tag_537:\n        /* \"#utility.yul\":23466:23468   */\n      0x20\n        /* \"#utility.yul\":23461:23464   */\n      dup3\n        /* \"#utility.yul\":23457:23469   */\n      add\n        /* \"#utility.yul\":23450:23469   */\n      swap1\n      pop\n        /* \"#utility.yul\":23109:23475   */\n      swap2\n      swap1\n      pop\n      jump\t// out\n        /* \"#utility.yul\":23481:23900   */\n    tag_168:\n        /* \"#utility.yul\":23647:23651   */\n      0x00\n        /* \"#utility.yul\":23685:23687   */\n      0x20\n        /* \"#utility.yul\":23674:23683   */\n      dup3\n        /* \"#utility.yul\":23670:23688   */\n      add\n        /* \"#utility.yul\":23662:23688   */\n      swap1\n      pop\n        /* \"#utility.yul\":23734:23743   */\n      dup2\n        /* \"#utility.yul\":23728:23732   */\n      dup2\n        /* \"#utility.yul\":23724:23744   */\n      sub\n        /* \"#utility.yul\":23720:23721   */\n      0x00\n        /* \"#utility.yul\":23709:23718   */\n      dup4\n        /* \"#utility.yul\":23705:23722   */\n      add\n        /* \"#utility.yul\":23698:23745   */\n      mstore\n        /* \"#utility.yul\":23762:23893   */\n      tag_539\n        /* \"#utility.yul\":23888:23892   */\n      dup2\n        /* \"#utility.yul\":23762:23893   */\n      tag_288\n      jump\t// in\n    tag_539:\n        /* \"#utility.yul\":23754:23893   */\n      swap1\n      pop\n        /* \"#utility.yul\":23481:23900   */\n      swap2\n      swap1\n      pop\n      jump\t// out\n        /* \"#utility.yul\":23906:24065   */\n    tag_289:\n        /* \"#utility.yul\":24046:24057   */\n      0x546f6f206561726c790000000000000000000000000000000000000000000000\n        /* \"#utility.yul\":24042:24043   */\n      0x00\n        /* \"#utility.yul\":24034:24040   */\n      dup3\n        /* \"#utility.yul\":24030:24044   */\n      add\n        /* \"#utility.yul\":24023:24058   */\n      mstore\n        /* \"#utility.yul\":23906:24065   */\n      pop\n      jump\t// out\n        /* \"#utility.yul\":24071:24436   */\n    tag_290:\n        /* \"#utility.yul\":24213:24216   */\n      0x00\n        /* \"#utility.yul\":24234:24300   */\n      tag_542\n        /* \"#utility.yul\":24298:24299   */\n      0x09\n        /* \"#utility.yul\":24293:24296   */\n      dup4\n        /* \"#utility.yul\":24234:24300   */\n      tag_247\n      jump\t// in\n    tag_542:\n        /* \"#utility.yul\":24227:24300   */\n      swap2\n      pop\n        /* \"#utility.yul\":24309:24402   */\n      tag_543\n        /* \"#utility.yul\":24398:24401   */\n      dup3\n        /* \"#utility.yul\":24309:24402   */\n      tag_289\n      jump\t// in\n    tag_543:\n        /* \"#utility.yul\":24427:24429   */\n      0x20\n        /* \"#utility.yul\":24422:24425   */\n      dup3\n        /* \"#utility.yul\":24418:24430   */\n      add\n        /* \"#utility.yul\":24411:24430   */\n      swap1\n      pop\n        /* \"#utility.yul\":24071:24436   */\n      swap2\n      swap1\n      pop\n      jump\t// out\n        /* \"#utility.yul\":24442:24861   */\n    tag_171:\n        /* \"#utility.yul\":24608:24612   */\n      0x00\n        /* \"#utility.yul\":24646:24648   */\n      0x20\n        /* \"#utility.yul\":24635:24644   */\n      dup3\n        /* \"#utility.yul\":24631:24649   */\n      add\n        /* \"#utility.yul\":24623:24649   */\n      swap1\n      pop\n        /* \"#utility.yul\":24695:24704   */\n      dup2\n        /* \"#utility.yul\":24689:24693   */\n      dup2\n        /* \"#utility.yul\":24685:24705   */\n      sub\n        /* \"#utility.yul\":24681:24682   */\n      0x00\n        /* \"#utility.yul\":24670:24679   */\n      dup4\n        /* \"#utility.yul\":24666:24683   */\n      add\n        /* \"#utility.yul\":24659:24706   */\n      mstore\n        /* \"#utility.yul\":24723:24854   */\n      tag_545\n        /* \"#utility.yul\":24849:24853   */\n      dup2\n        /* \"#utility.yul\":24723:24854   */\n      tag_290\n      jump\t// in\n    tag_545:\n        /* \"#utility.yul\":24715:24854   */\n      swap1\n      pop\n        /* \"#utility.yul\":24442:24861   */\n      swap2\n      swap1\n      pop\n      jump\t// out\n        /* \"#utility.yul\":24867:25035   */\n    tag_291:\n        /* \"#utility.yul\":25007:25027   */\n      0x51756f72756d206e6f7420726561636865640000000000000000000000000000\n        /* \"#utility.yul\":25003:25004   */\n      0x00\n        /* \"#utility.yul\":24995:25001   */\n      dup3\n        /* \"#utility.yul\":24991:25005   */\n      add\n        /* \"#utility.yul\":24984:25028   */\n      mstore\n        /* \"#utility.yul\":24867:25035   */\n      pop\n      jump\t// out\n        /* \"#utility.yul\":25041:25407   */\n    tag_292:\n        /* \"#utility.yul\":25183:25186   */\n      0x00\n        /* \"#utility.yul\":25204:25271   */\n      tag_548\n        /* \"#utility.yul\":25268:25270   */\n      0x12\n        /* \"#utility.yul\":25263:25266   */\n      dup4\n        /* \"#utility.yul\":25204:25271   */\n      tag_247\n      jump\t// in\n    tag_548:\n        /* \"#utility.yul\":25197:25271   */\n      swap2\n      pop\n        /* \"#utility.yul\":25280:25373   */\n      tag_549\n        /* \"#utility.yul\":25369:25372   */\n      dup3\n        /* \"#utility.yul\":25280:25373   */\n      tag_291\n      jump\t// in\n    tag_549:\n        /* \"#utility.yul\":25398:25400   */\n      0x20\n        /* \"#utility.yul\":25393:25396   */\n      dup3\n        /* \"#utility.yul\":25389:25401   */\n      add\n        /* \"#utility.yul\":25382:25401   */\n      swap1\n      pop\n        /* \"#utility.yul\":25041:25407   */\n      swap2\n      swap1\n      pop\n      jump\t// out\n        /* \"#utility.yul\":25413:25832   */\n    tag_174:\n        /* \"#utility.yul\":25579:25583   */\n      0x00\n        /* \"#utility.yul\":25617:25619   */\n      0x20\n        /* \"#utility.yul\":25606:25615   */\n      dup3\n        /* \"#utility.yul\":25602:25620   */\n      add\n        /* \"#utility.yul\":25594:25620   */\n      swap1\n      pop\n        /* \"#utility.yul\":25666:25675   */\n      dup2\n        /* \"#utility.yul\":25660:25664   */\n      dup2\n        /* \"#utility.yul\":25656:25676   */\n      sub\n        /* \"#utility.yul\":25652:25653   */\n      0x00\n        /* \"#utility.yul\":25641:25650   */\n      dup4\n        /* \"#utility.yul\":25637:25654   */\n      add\n        /* \"#utility.yul\":25630:25677   */\n      mstore\n        /* \"#utility.yul\":25694:25825   */\n      tag_551\n        /* \"#utility.yul\":25820:25824   */\n      dup2\n        /* \"#utility.yul\":25694:25825   */\n      tag_292\n      jump\t// in\n    tag_551:\n        /* \"#utility.yul\":25686:25825   */\n      swap1\n      pop\n        /* \"#utility.yul\":25413:25832   */\n      swap2\n      swap1\n      pop\n      jump\t// out\n        /* \"#utility.yul\":25838:25996   */\n    tag_293:\n        /* \"#utility.yul\":25978:25988   */\n      0x52656a6563746564000000000000000000000000000000000000000000000000\n        /* \"#utility.yul\":25974:25975   */\n      0x00\n        /* \"#utility.yul\":25966:25972   */\n      dup3\n        /* \"#utility.yul\":25962:25976   */\n      add\n        /* \"#utility.yul\":25955:25989   */\n      mstore\n        /* \"#utility.yul\":25838:25996   */\n      pop\n      jump\t// out\n        /* \"#utility.yul\":26002:26367   */\n    tag_294:\n        /* \"#utility.yul\":26144:26147   */\n      0x00\n        /* \"#utility.yul\":26165:26231   */\n      tag_554\n        /* \"#utility.yul\":26229:26230   */\n      0x08\n        /* \"#utility.yul\":26224:26227   */\n      dup4\n        /* \"#utility.yul\":26165:26231   */\n      tag_247\n      jump\t// in\n    tag_554:\n        /* \"#utility.yul\":26158:26231   */\n      swap2\n      pop\n        /* \"#utility.yul\":26240:26333   */\n      tag_555\n        /* \"#utility.yul\":26329:26332   */\n      dup3\n        /* \"#utility.yul\":26240:26333   */\n      tag_293\n      jump\t// in\n    tag_555:\n        /* \"#utility.yul\":26358:26360   */\n      0x20\n        /* \"#utility.yul\":26353:26356   */\n      dup3\n        /* \"#utility.yul\":26349:26361   */\n      add\n        /* \"#utility.yul\":26342:26361   */\n      swap1\n      pop\n        /* \"#utility.yul\":26002:26367   */\n      swap2\n      swap1\n      pop\n      jump\t// out\n        /* \"#utility.yul\":26373:26792   */\n    tag_177:\n        /* \"#utility.yul\":26539:26543   */\n      0x00\n        /* \"#utility.yul\":26577:26579   */\n      0x20\n        /* \"#utility.yul\":26566:26575   */\n      dup3\n        /* \"#utility.yul\":26562:26580   */\n      add\n        /* \"#utility.yul\":26554:26580   */\n      swap1\n      pop\n        /* \"#utility.yul\":26626:26635   */\n      dup2\n        /* \"#utility.yul\":26620:26624   */\n      dup2\n        /* \"#utility.yul\":26616:26636   */\n      sub\n        /* \"#utility.yul\":26612:26613   */\n      0x00\n        /* \"#utility.yul\":26601:26610   */\n      dup4\n        /* \"#utility.yul\":26597:26614   */\n      add\n        /* \"#utility.yul\":26590:26637   */\n      mstore\n        /* \"#utility.yul\":26654:26785   */\n      tag_557\n        /* \"#utility.yul\":26780:26784   */\n      dup2\n        /* \"#utility.yul\":26654:26785   */\n      tag_294\n      jump\t// in\n    tag_557:\n        /* \"#utility.yul\":26646:26785   */\n      swap1\n      pop\n        /* \"#utility.yul\":26373:26792   */\n      swap2\n      swap1\n      pop\n      jump\t// out\n        /* \"#utility.yul\":26798:26945   */\n    tag_295:\n        /* \"#utility.yul\":26899:26910   */\n      0x00\n        /* \"#utility.yul\":26936:26939   */\n      dup2\n        /* \"#utility.yul\":26921:26939   */\n      swap1\n      pop\n        /* \"#utility.yul\":26798:26945   */\n      swap3\n      swap2\n      pop\n      pop\n      jump\t// out\n        /* \"#utility.yul\":26951:27065   */\n    tag_296:\n      pop\n      jump\t// out\n        /* \"#utility.yul\":27071:27469   */\n    tag_297:\n        /* \"#utility.yul\":27230:27233   */\n      0x00\n        /* \"#utility.yul\":27251:27334   */\n      tag_561\n        /* \"#utility.yul\":27332:27333   */\n      0x00\n        /* \"#utility.yul\":27327:27330   */\n      dup4\n        /* \"#utility.yul\":27251:27334   */\n      tag_295\n      jump\t// in\n    tag_561:\n        /* \"#utility.yul\":27244:27334   */\n      swap2\n      pop\n        /* \"#utility.yul\":27343:27436   */\n      tag_562\n        /* \"#utility.yul\":27432:27435   */\n      dup3\n        /* \"#utility.yul\":27343:27436   */\n      tag_296\n      jump\t// in\n    tag_562:\n        /* \"#utility.yul\":27461:27462   */\n      0x00\n        /* \"#utility.yul\":27456:27459   */\n      dup3\n        /* \"#utility.yul\":27452:27463   */\n      add\n        /* \"#utility.yul\":27445:27463   */\n      swap1\n      pop\n        /* \"#utility.yul\":27071:27469   */\n      swap2\n      swap1\n      pop\n      jump\t// out\n        /* \"#utility.yul\":27475:27854   */\n    tag_179:\n        /* \"#utility.yul\":27659:27662   */\n      0x00\n        /* \"#utility.yul\":27681:27828   */\n      tag_564\n        /* \"#utility.yul\":27824:27827   */\n      dup3\n        /* \"#utility.yul\":27681:27828   */\n      tag_297\n      jump\t// in\n    tag_564:\n        /* \"#utility.yul\":27674:27828   */\n      swap2\n      pop\n        /* \"#utility.yul\":27845:27848   */\n      dup2\n        /* \"#utility.yul\":27838:27848   */\n      swap1\n      pop\n        /* \"#utility.yul\":27475:27854   */\n      swap2\n      swap1\n      pop\n      jump\t// out\n        /* \"#utility.yul\":27860:28025   */\n    tag_298:\n        /* \"#utility.yul\":28000:28017   */\n      0x5472616e73666572206661696c65640000000000000000000000000000000000\n        /* \"#utility.yul\":27996:27997   */\n      0x00\n        /* \"#utility.yul\":27988:27994   */\n      dup3\n        /* \"#utility.yul\":27984:27998   */\n      add\n        /* \"#utility.yul\":27977:28018   */\n      mstore\n        /* \"#utility.yul\":27860:28025   */\n      pop\n      jump\t// out\n        /* \"#utility.yul\":28031:28397   */\n    tag_299:\n        /* \"#utility.yul\":28173:28176   */\n      0x00\n        /* \"#utility.yul\":28194:28261   */\n      tag_567\n        /* \"#utility.yul\":28258:28260   */\n      0x0f\n        /* \"#utility.yul\":28253:28256   */\n      dup4\n        /* \"#utility.yul\":28194:28261   */\n      tag_247\n      jump\t// in\n    tag_567:\n        /* \"#utility.yul\":28187:28261   */\n      swap2\n      pop\n        /* \"#utility.yul\":28270:28363   */\n      tag_568\n        /* \"#utility.yul\":28359:28362   */\n      dup3\n        /* \"#utility.yul\":28270:28363   */\n      tag_298\n      jump\t// in\n    tag_568:\n        /* \"#utility.yul\":28388:28390   */\n      0x20\n        /* \"#utility.yul\":28383:28386   */\n      dup3\n        /* \"#utility.yul\":28379:28391   */\n      add\n        /* \"#utility.yul\":28372:28391   */\n      swap1\n      pop\n        /* \"#utility.yul\":28031:28397   */\n      swap2\n      swap1\n      pop\n      jump\t// out\n        /* \"#utility.yul\":28403:28822   */\n    tag_185:\n        /* \"#utility.yul\":28569:28573   */\n      0x00\n        /* \"#utility.yul\":28607:28609   */\n      0x20\n        /* \"#utility.yul\":28596:28605   */\n      dup3\n        /* \"#utility.yul\":28592:28610   */\n      add\n        /* \"#utility.yul\":28584:28610   */\n      swap1\n      pop\n        /* \"#utility.yul\":28656:28665   */\n      dup2\n        /* \"#utility.yul\":28650:28654   */\n      dup2\n        /* \"#utility.yul\":28646:28666   */\n      sub\n        /* \"#utility.yul\":28642:28643   */\n      0x00\n        /* \"#utility.yul\":28631:28640   */\n      dup4\n        /* \"#utility.yul\":28627:28644   */\n      add\n        /* \"#utility.yul\":28620:28667   */\n      mstore\n        /* \"#utility.yul\":28684:28815   */\n      tag_570\n        /* \"#utility.yul\":28810:28814   */\n      dup2\n        /* \"#utility.yul\":28684:28815   */\n      tag_299\n      jump\t// in\n    tag_570:\n        /* \"#utility.yul\":28676:28815   */\n      swap1\n      pop\n        /* \"#utility.yul\":28403:28822   */\n      swap2\n      swap1\n      pop\n      jump\t// out\n\n    auxdata: 0xa264697066735822122060baf06024a6a793d84ab12561f1ef3702db1d63ca7aedd49118fc1b63edf26064736f6c63430008210033\n}\n",
				"bytecode": {
					"linkReferences": {},
					"object": "608060405234801561000f575f5ffd5b506040516121b43803806121b48339818101604052810190610031919061020d565b335f73ffffffffffffffffffffffffffffffffffffffff168173ffffffffffffffffffffffffffffffffffffffff16036100a2575f6040517f1e4fbdf70000000000000000000000000000000000000000000000000000000081526004016100999190610277565b60405180910390fd5b6100b1816100e360201b60201c565b5060016100d06100c56101a460201b60201c565b6101cd60201b60201c565b5f01819055508060058190555050610290565b5f5f5f9054906101000a900473ffffffffffffffffffffffffffffffffffffffff169050815f5f6101000a81548173ffffffffffffffffffffffffffffffffffffffff021916908373ffffffffffffffffffffffffffffffffffffffff1602179055508173ffffffffffffffffffffffffffffffffffffffff168173ffffffffffffffffffffffffffffffffffffffff167f8be0079c531659141344cd1fd0a4f28419497f9722a3daafe3b4186f6b6457e060405160405180910390a35050565b5f7f9b779b17422d0df92223018b32b4d1fa46e071723d6817e2486d003becc55f005f1b905090565b5f819050919050565b5f5ffd5b5f819050919050565b6101ec816101da565b81146101f6575f5ffd5b50565b5f81519050610207816101e3565b92915050565b5f60208284031215610222576102216101d6565b5b5f61022f848285016101f9565b91505092915050565b5f73ffffffffffffffffffffffffffffffffffffffff82169050919050565b5f61026182610238565b9050919050565b61027181610257565b82525050565b5f60208201905061028a5f830184610268565b92915050565b611f178061029d5f395ff3fe6080604052600436106100c5575f3560e01c8063a230c5241161007e578063d0e30db011610058578063d0e30db014610240578063da35c6641461024a578063f2fde38b14610274578063fe0d94c11461029c576100cc565b8063a230c524146101b4578063c9d27afe146101f0578063ca6d56dc14610218576100cc565b80630b1ca49a146100d05780631703a018146100f8578063715018a6146101225780637d10707b146101385780638da5cb5b146101605780639eab52531461018a576100cc565b366100cc57005b5f5ffd5b3480156100db575f5ffd5b506100f660048036038101906100f1919061114a565b6102c4565b005b348015610103575f5ffd5b5061010c610560565b604051610119919061118d565b60405180910390f35b34801561012d575f5ffd5b50610136610566565b005b348015610143575f5ffd5b5061015e6004803603810190610159919061126c565b610579565b005b34801561016b575f5ffd5b50610174610739565b60405161018191906112ff565b60405180910390f35b348015610195575f5ffd5b5061019e610760565b6040516101ab91906113cf565b60405180910390f35b3480156101bf575f5ffd5b506101da60048036038101906101d5919061114a565b6107eb565b6040516101e79190611409565b60405180910390f35b3480156101fb575f5ffd5b506102166004803603810190610211919061144c565b610808565b005b348015610223575f5ffd5b5061023e6004803603810190610239919061114a565b610a4c565b005b610248610bcc565b005b348015610255575f5ffd5b5061025e610bce565b60405161026b919061118d565b60405180910390f35b34801561027f575f5ffd5b5061029a6004803603810190610295919061114a565b610bd4565b005b3480156102a7575f5ffd5b506102c260048036038101906102bd919061148a565b610c58565b005b6102cc610ece565b60015f8273ffffffffffffffffffffffffffffffffffffffff1673ffffffffffffffffffffffffffffffffffffffff1681526020019081526020015f205f9054906101000a900460ff16610355576040517f08c379a000000000000000000000000000000000000000000000000000000000815260040161034c9061150f565b60405180910390fd5b5f60015f8373ffffffffffffffffffffffffffffffffffffffff1673ffffffffffffffffffffffffffffffffffffffff1681526020019081526020015f205f6101000a81548160ff0219169083151502179055505f5f90505b600280549050811015610525578173ffffffffffffffffffffffffffffffffffffffff16600282815481106103e6576103e561152d565b5b905f5260205f20015f9054906101000a900473ffffffffffffffffffffffffffffffffffffffff1673ffffffffffffffffffffffffffffffffffffffff1603610518576002600160028054905061043d9190611587565b8154811061044e5761044d61152d565b5b905f5260205f20015f9054906101000a900473ffffffffffffffffffffffffffffffffffffffff166002828154811061048a5761048961152d565b5b905f5260205f20015f6101000a81548173ffffffffffffffffffffffffffffffffffffffff021916908373ffffffffffffffffffffffffffffffffffffffff16021790555060028054806104e1576104e06115ba565b5b600190038181905f5260205f20015f6101000a81549073ffffffffffffffffffffffffffffffffffffffff02191690559055610525565b80806001019150506103ae565b507f6e76fb4c77256006d9c38ec7d82b45a8c8f3c27b1d6766fffc42dfb8de6844928160405161055591906112ff565b60405180910390a150565b60055481565b61056e610ece565b6105775f610f55565b565b60015f3373ffffffffffffffffffffffffffffffffffffffff1673ffffffffffffffffffffffffffffffffffffffff1681526020019081526020015f205f9054906101000a900460ff16610602576040517f08c379a00000000000000000000000000000000000000000000000000000000081526004016105f990611631565b60405180910390fd5b83471015610645576040517f08c379a000000000000000000000000000000000000000000000000000000000815260040161063c90611699565b60405180910390fd5b60035f815480929190610657906116b7565b91905055505f60045f60035481526020019081526020015f209050600354815f018190555085816001015f6101000a81548173ffffffffffffffffffffffffffffffffffffffff021916908373ffffffffffffffffffffffffffffffffffffffff16021790555084816002018190555083838260030191826106da929190611943565b5081426106e79190611a10565b81600401819055507f85b1e5bd1e58840265c40582ff09f8cbfab823e041a824467b654a99b5156d39815f015487878787604051610729959493929190611adf565b60405180910390a1505050505050565b5f5f5f9054906101000a900473ffffffffffffffffffffffffffffffffffffffff16905090565b606060028054806020026020016040519081016040528092919081815260200182805480156107e157602002820191905f5260205f20905b815f9054906101000a900473ffffffffffffffffffffffffffffffffffffffff1673ffffffffffffffffffffffffffffffffffffffff1681526020019060010190808311610798575b5050505050905090565b6001602052805f5260405f205f915054906101000a900460ff1681565b60015f3373ffffffffffffffffffffffffffffffffffffffff1673ffffffffffffffffffffffffffffffffffffffff1681526020019081526020015f205f9054906101000a900460ff16610891576040517f08c379a000000000000000000000000000000000000000000000000000000000815260040161088890611631565b60405180910390fd5b5f60045f8481526020019081526020015f209050806004015442106108eb576040517f08c379a00000000000000000000000000000000000000000000000000000000081526004016108e290611b75565b60405180910390fd5b806008015f3373ffffffffffffffffffffffffffffffffffffffff1673ffffffffffffffffffffffffffffffffffffffff1681526020019081526020015f205f9054906101000a900460ff1615610977576040517f08c379a000000000000000000000000000000000000000000000000000000000815260040161096e90611bdd565b60405180910390fd5b6001816008015f3373ffffffffffffffffffffffffffffffffffffffff1673ffffffffffffffffffffffffffffffffffffffff1681526020019081526020015f205f6101000a81548160ff02191690831515021790555081156109f257806006015f8154809291906109e8906116b7565b9190505550610a0c565b806007015f815480929190610a06906116b7565b91905055505b7ff2913dbe661ee2acc4a046d8fbcdc792373bda34c41c6086484b5345e5785e5f833384604051610a3f93929190611bfb565b60405180910390a1505050565b610a54610ece565b60015f8273ffffffffffffffffffffffffffffffffffffffff1673ffffffffffffffffffffffffffffffffffffffff1681526020019081526020015f205f9054906101000a900460ff1615610ade576040517f08c379a0000000000000000000000000000000000000000000000000000000008152600401610ad590611c7a565b60405180910390fd5b6001805f8373ffffffffffffffffffffffffffffffffffffffff1673ffffffffffffffffffffffffffffffffffffffff1681526020019081526020015f205f6101000a81548160ff021916908315150217905550600281908060018154018082558091505060019003905f5260205f20015f9091909190916101000a81548173ffffffffffffffffffffffffffffffffffffffff021916908373ffffffffffffffffffffffffffffffffffffffff1602179055507fb251eb052afc73ffd02ffe85ad79990a8b3fed60d76dbc2fa2fdd7123dffd91481604051610bc191906112ff565b60405180910390a150565b565b60035481565b610bdc610ece565b5f73ffffffffffffffffffffffffffffffffffffffff168173ffffffffffffffffffffffffffffffffffffffff1603610c4c575f6040517f1e4fbdf7000000000000000000000000000000000000000000000000000000008152600401610c4391906112ff565b60405180910390fd5b610c5581610f55565b50565b610c60611016565b5f60045f8381526020019081526020015f209050806005015f9054906101000a900460ff1615610cc5576040517f08c379a0000000000000000000000000000000000000000000000000000000008152600401610cbc90611ce2565b60405180910390fd5b8060040154421015610d0c576040517f08c379a0000000000000000000000000000000000000000000000000000000008152600401610d0390611d4a565b60405180910390fd5b60055481600601541015610d55576040517f08c379a0000000000000000000000000000000000000000000000000000000008152600401610d4c90611db2565b60405180910390fd5b8060070154816006015411610d9f576040517f08c379a0000000000000000000000000000000000000000000000000000000008152600401610d9690611e1a565b60405180910390fd5b6001816005015f6101000a81548160ff0219169083151502179055505f816001015f9054906101000a900473ffffffffffffffffffffffffffffffffffffffff1673ffffffffffffffffffffffffffffffffffffffff168260020154604051610e0790611e65565b5f6040518083038185875af1925050503d805f8114610e41576040519150601f19603f3d011682016040523d82523d5f602084013e610e46565b606091505b5050905080610e8a576040517f08c379a0000000000000000000000000000000000000000000000000000000008152600401610e8190611ec3565b60405180910390fd5b7fbcf6a68a2f901be4a23a41b53acd7697893a7e34def4e28acba584da75283b6783604051610eb9919061118d565b60405180910390a15050610ecb611038565b50565b610ed6611052565b73ffffffffffffffffffffffffffffffffffffffff16610ef4610739565b73ffffffffffffffffffffffffffffffffffffffff1614610f5357610f17611052565b6040517f118cdaa7000000000000000000000000000000000000000000000000000000008152600401610f4a91906112ff565b60405180910390fd5b565b5f5f5f9054906101000a900473ffffffffffffffffffffffffffffffffffffffff169050815f5f6101000a81548173ffffffffffffffffffffffffffffffffffffffff021916908373ffffffffffffffffffffffffffffffffffffffff1602179055508173ffffffffffffffffffffffffffffffffffffffff168173ffffffffffffffffffffffffffffffffffffffff167f8be0079c531659141344cd1fd0a4f28419497f9722a3daafe3b4186f6b6457e060405160405180910390a35050565b61101e611059565b600261103061102b61109a565b6110c3565b5f0181905550565b600161104a61104561109a565b6110c3565b5f0181905550565b5f33905090565b6110616110cc565b15611098576040517f3ee5aeb500000000000000000000000000000000000000000000000000000000815260040160405180910390fd5b565b5f7f9b779b17422d0df92223018b32b4d1fa46e071723d6817e2486d003becc55f005f1b905090565b5f819050919050565b5f60026110df6110da61109a565b6110c3565b5f015414905090565b5f5ffd5b5f5ffd5b5f73ffffffffffffffffffffffffffffffffffffffff82169050919050565b5f611119826110f0565b9050919050565b6111298161110f565b8114611133575f5ffd5b50565b5f8135905061114481611120565b92915050565b5f6020828403121561115f5761115e6110e8565b5b5f61116c84828501611136565b91505092915050565b5f819050919050565b61118781611175565b82525050565b5f6020820190506111a05f83018461117e565b92915050565b5f6111b0826110f0565b9050919050565b6111c0816111a6565b81146111ca575f5ffd5b50565b5f813590506111db816111b7565b92915050565b6111ea81611175565b81146111f4575f5ffd5b50565b5f81359050611205816111e1565b92915050565b5f5ffd5b5f5ffd5b5f5ffd5b5f5f83601f84011261122c5761122b61120b565b5b8235905067ffffffffffffffff8111156112495761124861120f565b5b60208301915083600182028301111561126557611264611213565b5b9250929050565b5f5f5f5f5f60808688031215611285576112846110e8565b5b5f611292888289016111cd565b95505060206112a3888289016111f7565b945050604086013567ffffffffffffffff8111156112c4576112c36110ec565b5b6112d088828901611217565b935093505060606112e3888289016111f7565b9150509295509295909350565b6112f98161110f565b82525050565b5f6020820190506113125f8301846112f0565b92915050565b5f81519050919050565b5f82825260208201905092915050565b5f819050602082019050919050565b61134a8161110f565b82525050565b5f61135b8383611341565b60208301905092915050565b5f602082019050919050565b5f61137d82611318565b6113878185611322565b935061139283611332565b805f5b838110156113c25781516113a98882611350565b97506113b483611367565b925050600181019050611395565b5085935050505092915050565b5f6020820190508181035f8301526113e78184611373565b905092915050565b5f8115159050919050565b611403816113ef565b82525050565b5f60208201905061141c5f8301846113fa565b92915050565b61142b816113ef565b8114611435575f5ffd5b50565b5f8135905061144681611422565b92915050565b5f5f60408385031215611462576114616110e8565b5b5f61146f858286016111f7565b925050602061148085828601611438565b9150509250929050565b5f6020828403121561149f5761149e6110e8565b5b5f6114ac848285016111f7565b91505092915050565b5f82825260208201905092915050565b7f4e6f74206d656d626572000000000000000000000000000000000000000000005f82015250565b5f6114f9600a836114b5565b9150611504826114c5565b602082019050919050565b5f6020820190508181035f830152611526816114ed565b9050919050565b7f4e487b71000000000000000000000000000000000000000000000000000000005f52603260045260245ffd5b7f4e487b71000000000000000000000000000000000000000000000000000000005f52601160045260245ffd5b5f61159182611175565b915061159c83611175565b92508282039050818111156115b4576115b361155a565b5b92915050565b7f4e487b71000000000000000000000000000000000000000000000000000000005f52603160045260245ffd5b7f4e6f742061206d656d62657200000000000000000000000000000000000000005f82015250565b5f61161b600c836114b5565b9150611626826115e7565b602082019050919050565b5f6020820190508181035f8301526116488161160f565b9050919050565b7f4e6f7420656e6f756768204554480000000000000000000000000000000000005f82015250565b5f611683600e836114b5565b915061168e8261164f565b602082019050919050565b5f6020820190508181035f8301526116b081611677565b9050919050565b5f6116c182611175565b91507fffffffffffffffffffffffffffffffffffffffffffffffffffffffffffffffff82036116f3576116f261155a565b5b600182019050919050565b5f82905092915050565b7f4e487b71000000000000000000000000000000000000000000000000000000005f52604160045260245ffd5b7f4e487b71000000000000000000000000000000000000000000000000000000005f52602260045260245ffd5b5f600282049050600182168061177957607f821691505b60208210810361178c5761178b611735565b5b50919050565b5f819050815f5260205f209050919050565b5f6020601f8301049050919050565b5f82821b905092915050565b5f600883026117ee7fffffffffffffffffffffffffffffffffffffffffffffffffffffffffffffffff826117b3565b6117f886836117b3565b95508019841693508086168417925050509392505050565b5f819050919050565b5f61183361182e61182984611175565b611810565b611175565b9050919050565b5f819050919050565b61184c83611819565b6118606118588261183a565b8484546117bf565b825550505050565b5f5f905090565b611877611868565b611882818484611843565b505050565b5f5b828110156118a85761189d5f82840161186f565b600181019050611889565b505050565b601f8211156118fb57828211156118fa576118c781611792565b6118d0836117a4565b6118d9856117a4565b60208610156118e6575f90505b8083016118f582840382611887565b505050505b5b505050565b5f82821c905092915050565b5f61191b5f1984600802611900565b1980831691505092915050565b5f611933838361190c565b9150826002028217905092915050565b61194d83836116fe565b67ffffffffffffffff81111561196657611965611708565b5b6119708254611762565b61197b8282856118ad565b5f601f8311600181146119a8575f8415611996578287013590505b6119a08582611928565b865550611a07565b601f1984166119b686611792565b5f5b828110156119dd578489013582556001820191506020850194506020810190506119b8565b868310156119fa57848901356119f6601f89168261190c565b8355505b6001600288020188555050505b50505050505050565b5f611a1a82611175565b9150611a2583611175565b9250828201905080821115611a3d57611a3c61155a565b5b92915050565b5f611a5d611a58611a53846110f0565b611810565b6110f0565b9050919050565b5f611a6e82611a43565b9050919050565b5f611a7f82611a64565b9050919050565b611a8f81611a75565b82525050565b828183375f83830152505050565b5f601f19601f8301169050919050565b5f611abe83856114b5565b9350611acb838584611a95565b611ad483611aa3565b840190509392505050565b5f608082019050611af25f83018861117e565b611aff6020830187611a86565b611b0c604083018661117e565b8181036060830152611b1f818486611ab3565b90509695505050505050565b7f566f74696e6720656e64656400000000000000000000000000000000000000005f82015250565b5f611b5f600c836114b5565b9150611b6a82611b2b565b602082019050919050565b5f6020820190508181035f830152611b8c81611b53565b9050919050565b7f416c726561647920766f746564000000000000000000000000000000000000005f82015250565b5f611bc7600d836114b5565b9150611bd282611b93565b602082019050919050565b5f6020820190508181035f830152611bf481611bbb565b9050919050565b5f606082019050611c0e5f83018661117e565b611c1b60208301856112f0565b611c2860408301846113fa565b949350505050565b7f416c7265616479206d656d6265720000000000000000000000000000000000005f82015250565b5f611c64600e836114b5565b9150611c6f82611c30565b602082019050919050565b5f6020820190508181035f830152611c9181611c58565b9050919050565b7f416c7265616479206578656375746564000000000000000000000000000000005f82015250565b5f611ccc6010836114b5565b9150611cd782611c98565b602082019050919050565b5f6020820190508181035f830152611cf981611cc0565b9050919050565b7f546f6f206561726c7900000000000000000000000000000000000000000000005f82015250565b5f611d346009836114b5565b9150611d3f82611d00565b602082019050919050565b5f6020820190508181035f830152611d6181611d28565b9050919050565b7f51756f72756d206e6f74207265616368656400000000000000000000000000005f82015250565b5f611d9c6012836114b5565b9150611da782611d68565b602082019050919050565b5f6020820190508181035f830152611dc981611d90565b9050919050565b7f52656a65637465640000000000000000000000000000000000000000000000005f82015250565b5f611e046008836114b5565b9150611e0f82611dd0565b602082019050919050565b5f6020820190508181035f830152611e3181611df8565b9050919050565b5f81905092915050565b50565b5f611e505f83611e38565b9150611e5b82611e42565b5f82019050919050565b5f611e6f82611e45565b9150819050919050565b7f5472616e73666572206661696c656400000000000000000000000000000000005f82015250565b5f611ead600f836114b5565b9150611eb882611e79565b602082019050919050565b5f6020820190508181035f830152611eda81611ea1565b905091905056fea264697066735822122060baf06024a6a793d84ab12561f1ef3702db1d63ca7aedd49118fc1b63edf26064736f6c63430008210033",
					"opcodes": "PUSH1 0x80 PUSH1 0x40 MSTORE CALLVALUE DUP1 ISZERO PUSH2 0xF JUMPI PUSH0 PUSH0 REVERT JUMPDEST POP PUSH1 0x40 MLOAD PUSH2 0x21B4 CODESIZE SUB DUP1 PUSH2 0x21B4 DUP4 CODECOPY DUP2 DUP2 ADD PUSH1 0x40 MSTORE DUP2 ADD SWAP1 PUSH2 0x31 SWAP2 SWAP1 PUSH2 0x20D JUMP JUMPDEST CALLER PUSH0 PUSH20 0xFFFFFFFFFFFFFFFFFFFFFFFFFFFFFFFFFFFFFFFF AND DUP2 PUSH20 0xFFFFFFFFFFFFFFFFFFFFFFFFFFFFFFFFFFFFFFFF AND SUB PUSH2 0xA2 JUMPI PUSH0 PUSH1 0x40 MLOAD PUSH32 0x1E4FBDF700000000000000000000000000000000000000000000000000000000 DUP2 MSTORE PUSH1 0x4 ADD PUSH2 0x99 SWAP2 SWAP1 PUSH2 0x277 JUMP JUMPDEST PUSH1 0x40 MLOAD DUP1 SWAP2 SUB SWAP1 REVERT JUMPDEST PUSH2 0xB1 DUP2 PUSH2 0xE3 PUSH1 0x20 SHL PUSH1 0x20 SHR JUMP JUMPDEST POP PUSH1 0x1 PUSH2 0xD0 PUSH2 0xC5 PUSH2 0x1A4 PUSH1 0x20 SHL PUSH1 0x20 SHR JUMP JUMPDEST PUSH2 0x1CD PUSH1 0x20 SHL PUSH1 0x20 SHR JUMP JUMPDEST PUSH0 ADD DUP2 SWAP1 SSTORE POP DUP1 PUSH1 0x5 DUP2 SWAP1 SSTORE POP POP PUSH2 0x290 JUMP JUMPDEST PUSH0 PUSH0 PUSH0 SWAP1 SLOAD SWAP1 PUSH2 0x100 EXP SWAP1 DIV PUSH20 0xFFFFFFFFFFFFFFFFFFFFFFFFFFFFFFFFFFFFFFFF AND SWAP1 POP DUP2 PUSH0 PUSH0 PUSH2 0x100 EXP DUP2 SLOAD DUP2 PUSH20 0xFFFFFFFFFFFFFFFFFFFFFFFFFFFFFFFFFFFFFFFF MUL NOT AND SWAP1 DUP4 PUSH20 0xFFFFFFFFFFFFFFFFFFFFFFFFFFFFFFFFFFFFFFFF AND MUL OR SWAP1 SSTORE POP DUP2 PUSH20 0xFFFFFFFFFFFFFFFFFFFFFFFFFFFFFFFFFFFFFFFF AND DUP2 PUSH20 0xFFFFFFFFFFFFFFFFFFFFFFFFFFFFFFFFFFFFFFFF AND PUSH32 0x8BE0079C531659141344CD1FD0A4F28419497F9722A3DAAFE3B4186F6B6457E0 PUSH1 0x40 MLOAD PUSH1 0x40 MLOAD DUP1 SWAP2 SUB SWAP1 LOG3 POP POP JUMP JUMPDEST PUSH0 PUSH32 0x9B779B17422D0DF92223018B32B4D1FA46E071723D6817E2486D003BECC55F00 PUSH0 SHL SWAP1 POP SWAP1 JUMP JUMPDEST PUSH0 DUP2 SWAP1 POP SWAP2 SWAP1 POP JUMP JUMPDEST PUSH0 PUSH0 REVERT JUMPDEST PUSH0 DUP2 SWAP1 POP SWAP2 SWAP1 POP JUMP JUMPDEST PUSH2 0x1EC DUP2 PUSH2 0x1DA JUMP JUMPDEST DUP2 EQ PUSH2 0x1F6 JUMPI PUSH0 PUSH0 REVERT JUMPDEST POP JUMP JUMPDEST PUSH0 DUP2 MLOAD SWAP1 POP PUSH2 0x207 DUP2 PUSH2 0x1E3 JUMP JUMPDEST SWAP3 SWAP2 POP POP JUMP JUMPDEST PUSH0 PUSH1 0x20 DUP3 DUP5 SUB SLT ISZERO PUSH2 0x222 JUMPI PUSH2 0x221 PUSH2 0x1D6 JUMP JUMPDEST JUMPDEST PUSH0 PUSH2 0x22F DUP5 DUP3 DUP6 ADD PUSH2 0x1F9 JUMP JUMPDEST SWAP2 POP POP SWAP3 SWAP2 POP POP JUMP JUMPDEST PUSH0 PUSH20 0xFFFFFFFFFFFFFFFFFFFFFFFFFFFFFFFFFFFFFFFF DUP3 AND SWAP1 POP SWAP2 SWAP1 POP JUMP JUMPDEST PUSH0 PUSH2 0x261 DUP3 PUSH2 0x238 JUMP JUMPDEST SWAP1 POP SWAP2 SWAP1 POP JUMP JUMPDEST PUSH2 0x271 DUP2 PUSH2 0x257 JUMP JUMPDEST DUP3 MSTORE POP POP JUMP JUMPDEST PUSH0 PUSH1 0x20 DUP3 ADD SWAP1 POP PUSH2 0x28A PUSH0 DUP4 ADD DUP5 PUSH2 0x268 JUMP JUMPDEST SWAP3 SWAP2 POP POP JUMP JUMPDEST PUSH2 0x1F17 DUP1 PUSH2 0x29D PUSH0 CODECOPY PUSH0 RETURN INVALID PUSH1 0x80 PUSH1 0x40 MSTORE PUSH1 0x4 CALLDATASIZE LT PUSH2 0xC5 JUMPI PUSH0 CALLDATALOAD PUSH1 0xE0 SHR DUP1 PUSH4 0xA230C524 GT PUSH2 0x7E JUMPI DUP1 PUSH4 0xD0E30DB0 GT PUSH2 0x58 JUMPI DUP1 PUSH4 0xD0E30DB0 EQ PUSH2 0x240 JUMPI DUP1 PUSH4 0xDA35C664 EQ PUSH2 0x24A JUMPI DUP1 PUSH4 0xF2FDE38B EQ PUSH2 0x274 JUMPI DUP1 PUSH4 0xFE0D94C1 EQ PUSH2 0x29C JUMPI PUSH2 0xCC JUMP JUMPDEST DUP1 PUSH4 0xA230C524 EQ PUSH2 0x1B4 JUMPI DUP1 PUSH4 0xC9D27AFE EQ PUSH2 0x1F0 JUMPI DUP1 PUSH4 0xCA6D56DC EQ PUSH2 0x218 JUMPI PUSH2 0xCC JUMP JUMPDEST DUP1 PUSH4 0xB1CA49A EQ PUSH2 0xD0 JUMPI DUP1 PUSH4 0x1703A018 EQ PUSH2 0xF8 JUMPI DUP1 PUSH4 0x715018A6 EQ PUSH2 0x122 JUMPI DUP1 PUSH4 0x7D10707B EQ PUSH2 0x138 JUMPI DUP1 PUSH4 0x8DA5CB5B EQ PUSH2 0x160 JUMPI DUP1 PUSH4 0x9EAB5253 EQ PUSH2 0x18A JUMPI PUSH2 0xCC JUMP JUMPDEST CALLDATASIZE PUSH2 0xCC JUMPI STOP JUMPDEST PUSH0 PUSH0 REVERT JUMPDEST CALLVALUE DUP1 ISZERO PUSH2 0xDB JUMPI PUSH0 PUSH0 REVERT JUMPDEST POP PUSH2 0xF6 PUSH1 0x4 DUP1 CALLDATASIZE SUB DUP2 ADD SWAP1 PUSH2 0xF1 SWAP2 SWAP1 PUSH2 0x114A JUMP JUMPDEST PUSH2 0x2C4 JUMP JUMPDEST STOP JUMPDEST CALLVALUE DUP1 ISZERO PUSH2 0x103 JUMPI PUSH0 PUSH0 REVERT JUMPDEST POP PUSH2 0x10C PUSH2 0x560 JUMP JUMPDEST PUSH1 0x40 MLOAD PUSH2 0x119 SWAP2 SWAP1 PUSH2 0x118D JUMP JUMPDEST PUSH1 0x40 MLOAD DUP1 SWAP2 SUB SWAP1 RETURN JUMPDEST CALLVALUE DUP1 ISZERO PUSH2 0x12D JUMPI PUSH0 PUSH0 REVERT JUMPDEST POP PUSH2 0x136 PUSH2 0x566 JUMP JUMPDEST STOP JUMPDEST CALLVALUE DUP1 ISZERO PUSH2 0x143 JUMPI PUSH0 PUSH0 REVERT JUMPDEST POP PUSH2 0x15E PUSH1 0x4 DUP1 CALLDATASIZE SUB DUP2 ADD SWAP1 PUSH2 0x159 SWAP2 SWAP1 PUSH2 0x126C JUMP JUMPDEST PUSH2 0x579 JUMP JUMPDEST STOP JUMPDEST CALLVALUE DUP1 ISZERO PUSH2 0x16B JUMPI PUSH0 PUSH0 REVERT JUMPDEST POP PUSH2 0x174 PUSH2 0x739 JUMP JUMPDEST PUSH1 0x40 MLOAD PUSH2 0x181 SWAP2 SWAP1 PUSH2 0x12FF JUMP JUMPDEST PUSH1 0x40 MLOAD DUP1 SWAP2 SUB SWAP1 RETURN JUMPDEST CALLVALUE DUP1 ISZERO PUSH2 0x195 JUMPI PUSH0 PUSH0 REVERT JUMPDEST POP PUSH2 0x19E PUSH2 0x760 JUMP JUMPDEST PUSH1 0x40 MLOAD PUSH2 0x1AB SWAP2 SWAP1 PUSH2 0x13CF JUMP JUMPDEST PUSH1 0x40 MLOAD DUP1 SWAP2 SUB SWAP1 RETURN JUMPDEST CALLVALUE DUP1 ISZERO PUSH2 0x1BF JUMPI PUSH0 PUSH0 REVERT JUMPDEST POP PUSH2 0x1DA PUSH1 0x4 DUP1 CALLDATASIZE SUB DUP2 ADD SWAP1 PUSH2 0x1D5 SWAP2 SWAP1 PUSH2 0x114A JUMP JUMPDEST PUSH2 0x7EB JUMP JUMPDEST PUSH1 0x40 MLOAD PUSH2 0x1E7 SWAP2 SWAP1 PUSH2 0x1409 JUMP JUMPDEST PUSH1 0x40 MLOAD DUP1 SWAP2 SUB SWAP1 RETURN JUMPDEST CALLVALUE DUP1 ISZERO PUSH2 0x1FB JUMPI PUSH0 PUSH0 REVERT JUMPDEST POP PUSH2 0x216 PUSH1 0x4 DUP1 CALLDATASIZE SUB DUP2 ADD SWAP1 PUSH2 0x211 SWAP2 SWAP1 PUSH2 0x144C JUMP JUMPDEST PUSH2 0x808 JUMP JUMPDEST STOP JUMPDEST CALLVALUE DUP1 ISZERO PUSH2 0x223 JUMPI PUSH0 PUSH0 REVERT JUMPDEST POP PUSH2 0x23E PUSH1 0x4 DUP1 CALLDATASIZE SUB DUP2 ADD SWAP1 PUSH2 0x239 SWAP2 SWAP1 PUSH2 0x114A JUMP JUMPDEST PUSH2 0xA4C JUMP JUMPDEST STOP JUMPDEST PUSH2 0x248 PUSH2 0xBCC JUMP JUMPDEST STOP JUMPDEST CALLVALUE DUP1 ISZERO PUSH2 0x255 JUMPI PUSH0 PUSH0 REVERT JUMPDEST POP PUSH2 0x25E PUSH2 0xBCE JUMP JUMPDEST PUSH1 0x40 MLOAD PUSH2 0x26B SWAP2 SWAP1 PUSH2 0x118D JUMP JUMPDEST PUSH1 0x40 MLOAD DUP1 SWAP2 SUB SWAP1 RETURN JUMPDEST CALLVALUE DUP1 ISZERO PUSH2 0x27F JUMPI PUSH0 PUSH0 REVERT JUMPDEST POP PUSH2 0x29A PUSH1 0x4 DUP1 CALLDATASIZE SUB DUP2 ADD SWAP1 PUSH2 0x295 SWAP2 SWAP1 PUSH2 0x114A JUMP JUMPDEST PUSH2 0xBD4 JUMP JUMPDEST STOP JUMPDEST CALLVALUE DUP1 ISZERO PUSH2 0x2A7 JUMPI PUSH0 PUSH0 REVERT JUMPDEST POP PUSH2 0x2C2 PUSH1 0x4 DUP1 CALLDATASIZE SUB DUP2 ADD SWAP1 PUSH2 0x2BD SWAP2 SWAP1 PUSH2 0x148A JUMP JUMPDEST PUSH2 0xC58 JUMP JUMPDEST STOP JUMPDEST PUSH2 0x2CC PUSH2 0xECE JUMP JUMPDEST PUSH1 0x1 PUSH0 DUP3 PUSH20 0xFFFFFFFFFFFFFFFFFFFFFFFFFFFFFFFFFFFFFFFF AND PUSH20 0xFFFFFFFFFFFFFFFFFFFFFFFFFFFFFFFFFFFFFFFF AND DUP2 MSTORE PUSH1 0x20 ADD SWAP1 DUP2 MSTORE PUSH1 0x20 ADD PUSH0 KECCAK256 PUSH0 SWAP1 SLOAD SWAP1 PUSH2 0x100 EXP SWAP1 DIV PUSH1 0xFF AND PUSH2 0x355 JUMPI PUSH1 0x40 MLOAD PUSH32 0x8C379A000000000000000000000000000000000000000000000000000000000 DUP2 MSTORE PUSH1 0x4 ADD PUSH2 0x34C SWAP1 PUSH2 0x150F JUMP JUMPDEST PUSH1 0x40 MLOAD DUP1 SWAP2 SUB SWAP1 REVERT JUMPDEST PUSH0 PUSH1 0x1 PUSH0 DUP4 PUSH20 0xFFFFFFFFFFFFFFFFFFFFFFFFFFFFFFFFFFFFFFFF AND PUSH20 0xFFFFFFFFFFFFFFFFFFFFFFFFFFFFFFFFFFFFFFFF AND DUP2 MSTORE PUSH1 0x20 ADD SWAP1 DUP2 MSTORE PUSH1 0x20 ADD PUSH0 KECCAK256 PUSH0 PUSH2 0x100 EXP DUP2 SLOAD DUP2 PUSH1 0xFF MUL NOT AND SWAP1 DUP4 ISZERO ISZERO MUL OR SWAP1 SSTORE POP PUSH0 PUSH0 SWAP1 POP JUMPDEST PUSH1 0x2 DUP1 SLOAD SWAP1 POP DUP2 LT ISZERO PUSH2 0x525 JUMPI DUP2 PUSH20 0xFFFFFFFFFFFFFFFFFFFFFFFFFFFFFFFFFFFFFFFF AND PUSH1 0x2 DUP3 DUP2 SLOAD DUP2 LT PUSH2 0x3E6 JUMPI PUSH2 0x3E5 PUSH2 0x152D JUMP JUMPDEST JUMPDEST SWAP1 PUSH0 MSTORE PUSH1 0x20 PUSH0 KECCAK256 ADD PUSH0 SWAP1 SLOAD SWAP1 PUSH2 0x100 EXP SWAP1 DIV PUSH20 0xFFFFFFFFFFFFFFFFFFFFFFFFFFFFFFFFFFFFFFFF AND PUSH20 0xFFFFFFFFFFFFFFFFFFFFFFFFFFFFFFFFFFFFFFFF AND SUB PUSH2 0x518 JUMPI PUSH1 0x2 PUSH1 0x1 PUSH1 0x2 DUP1 SLOAD SWAP1 POP PUSH2 0x43D SWAP2 SWAP1 PUSH2 0x1587 JUMP JUMPDEST DUP2 SLOAD DUP2 LT PUSH2 0x44E JUMPI PUSH2 0x44D PUSH2 0x152D JUMP JUMPDEST JUMPDEST SWAP1 PUSH0 MSTORE PUSH1 0x20 PUSH0 KECCAK256 ADD PUSH0 SWAP1 SLOAD SWAP1 PUSH2 0x100 EXP SWAP1 DIV PUSH20 0xFFFFFFFFFFFFFFFFFFFFFFFFFFFFFFFFFFFFFFFF AND PUSH1 0x2 DUP3 DUP2 SLOAD DUP2 LT PUSH2 0x48A JUMPI PUSH2 0x489 PUSH2 0x152D JUMP JUMPDEST JUMPDEST SWAP1 PUSH0 MSTORE PUSH1 0x20 PUSH0 KECCAK256 ADD PUSH0 PUSH2 0x100 EXP DUP2 SLOAD DUP2 PUSH20 0xFFFFFFFFFFFFFFFFFFFFFFFFFFFFFFFFFFFFFFFF MUL NOT AND SWAP1 DUP4 PUSH20 0xFFFFFFFFFFFFFFFFFFFFFFFFFFFFFFFFFFFFFFFF AND MUL OR SWAP1 SSTORE POP PUSH1 0x2 DUP1 SLOAD DUP1 PUSH2 0x4E1 JUMPI PUSH2 0x4E0 PUSH2 0x15BA JUMP JUMPDEST JUMPDEST PUSH1 0x1 SWAP1 SUB DUP2 DUP2 SWAP1 PUSH0 MSTORE PUSH1 0x20 PUSH0 KECCAK256 ADD PUSH0 PUSH2 0x100 EXP DUP2 SLOAD SWAP1 PUSH20 0xFFFFFFFFFFFFFFFFFFFFFFFFFFFFFFFFFFFFFFFF MUL NOT AND SWAP1 SSTORE SWAP1 SSTORE PUSH2 0x525 JUMP JUMPDEST DUP1 DUP1 PUSH1 0x1 ADD SWAP2 POP POP PUSH2 0x3AE JUMP JUMPDEST POP PUSH32 0x6E76FB4C77256006D9C38EC7D82B45A8C8F3C27B1D6766FFFC42DFB8DE684492 DUP2 PUSH1 0x40 MLOAD PUSH2 0x555 SWAP2 SWAP1 PUSH2 0x12FF JUMP JUMPDEST PUSH1 0x40 MLOAD DUP1 SWAP2 SUB SWAP1 LOG1 POP JUMP JUMPDEST PUSH1 0x5 SLOAD DUP2 JUMP JUMPDEST PUSH2 0x56E PUSH2 0xECE JUMP JUMPDEST PUSH2 0x577 PUSH0 PUSH2 0xF55 JUMP JUMPDEST JUMP JUMPDEST PUSH1 0x1 PUSH0 CALLER PUSH20 0xFFFFFFFFFFFFFFFFFFFFFFFFFFFFFFFFFFFFFFFF AND PUSH20 0xFFFFFFFFFFFFFFFFFFFFFFFFFFFFFFFFFFFFFFFF AND DUP2 MSTORE PUSH1 0x20 ADD SWAP1 DUP2 MSTORE PUSH1 0x20 ADD PUSH0 KECCAK256 PUSH0 SWAP1 SLOAD SWAP1 PUSH2 0x100 EXP SWAP1 DIV PUSH1 0xFF AND PUSH2 0x602 JUMPI PUSH1 0x40 MLOAD PUSH32 0x8C379A000000000000000000000000000000000000000000000000000000000 DUP2 MSTORE PUSH1 0x4 ADD PUSH2 0x5F9 SWAP1 PUSH2 0x1631 JUMP JUMPDEST PUSH1 0x40 MLOAD DUP1 SWAP2 SUB SWAP1 REVERT JUMPDEST DUP4 SELFBALANCE LT ISZERO PUSH2 0x645 JUMPI PUSH1 0x40 MLOAD PUSH32 0x8C379A000000000000000000000000000000000000000000000000000000000 DUP2 MSTORE PUSH1 0x4 ADD PUSH2 0x63C SWAP1 PUSH2 0x1699 JUMP JUMPDEST PUSH1 0x40 MLOAD DUP1 SWAP2 SUB SWAP1 REVERT JUMPDEST PUSH1 0x3 PUSH0 DUP2 SLOAD DUP1 SWAP3 SWAP2 SWAP1 PUSH2 0x657 SWAP1 PUSH2 0x16B7 JUMP JUMPDEST SWAP2 SWAP1 POP SSTORE POP PUSH0 PUSH1 0x4 PUSH0 PUSH1 0x3 SLOAD DUP2 MSTORE PUSH1 0x20 ADD SWAP1 DUP2 MSTORE PUSH1 0x20 ADD PUSH0 KECCAK256 SWAP1 POP PUSH1 0x3 SLOAD DUP2 PUSH0 ADD DUP2 SWAP1 SSTORE POP DUP6 DUP2 PUSH1 0x1 ADD PUSH0 PUSH2 0x100 EXP DUP2 SLOAD DUP2 PUSH20 0xFFFFFFFFFFFFFFFFFFFFFFFFFFFFFFFFFFFFFFFF MUL NOT AND SWAP1 DUP4 PUSH20 0xFFFFFFFFFFFFFFFFFFFFFFFFFFFFFFFFFFFFFFFF AND MUL OR SWAP1 SSTORE POP DUP5 DUP2 PUSH1 0x2 ADD DUP2 SWAP1 SSTORE POP DUP4 DUP4 DUP3 PUSH1 0x3 ADD SWAP2 DUP3 PUSH2 0x6DA SWAP3 SWAP2 SWAP1 PUSH2 0x1943 JUMP JUMPDEST POP DUP2 TIMESTAMP PUSH2 0x6E7 SWAP2 SWAP1 PUSH2 0x1A10 JUMP JUMPDEST DUP2 PUSH1 0x4 ADD DUP2 SWAP1 SSTORE POP PUSH32 0x85B1E5BD1E58840265C40582FF09F8CBFAB823E041A824467B654A99B5156D39 DUP2 PUSH0 ADD SLOAD DUP8 DUP8 DUP8 DUP8 PUSH1 0x40 MLOAD PUSH2 0x729 SWAP6 SWAP5 SWAP4 SWAP3 SWAP2 SWAP1 PUSH2 0x1ADF JUMP JUMPDEST PUSH1 0x40 MLOAD DUP1 SWAP2 SUB SWAP1 LOG1 POP POP POP POP POP POP JUMP JUMPDEST PUSH0 PUSH0 PUSH0 SWAP1 SLOAD SWAP1 PUSH2 0x100 EXP SWAP1 DIV PUSH20 0xFFFFFFFFFFFFFFFFFFFFFFFFFFFFFFFFFFFFFFFF AND SWAP1 POP SWAP1 JUMP JUMPDEST PUSH1 0x60 PUSH1 0x2 DUP1 SLOAD DUP1 PUSH1 0x20 MUL PUSH1 0x20 ADD PUSH1 0x40 MLOAD SWAP1 DUP2 ADD PUSH1 0x40 MSTORE DUP1 SWAP3 SWAP2 SWAP1 DUP2 DUP2 MSTORE PUSH1 0x20 ADD DUP3 DUP1 SLOAD DUP1 ISZERO PUSH2 0x7E1 JUMPI PUSH1 0x20 MUL DUP3 ADD SWAP2 SWAP1 PUSH0 MSTORE PUSH1 0x20 PUSH0 KECCAK256 SWAP1 JUMPDEST DUP2 PUSH0 SWAP1 SLOAD SWAP1 PUSH2 0x100 EXP SWAP1 DIV PUSH20 0xFFFFFFFFFFFFFFFFFFFFFFFFFFFFFFFFFFFFFFFF AND PUSH20 0xFFFFFFFFFFFFFFFFFFFFFFFFFFFFFFFFFFFFFFFF AND DUP2 MSTORE PUSH1 0x20 ADD SWAP1 PUSH1 0x1 ADD SWAP1 DUP1 DUP4 GT PUSH2 0x798 JUMPI JUMPDEST POP POP POP POP POP SWAP1 POP SWAP1 JUMP JUMPDEST PUSH1 0x1 PUSH1 0x20 MSTORE DUP1 PUSH0 MSTORE PUSH1 0x40 PUSH0 KECCAK256 PUSH0 SWAP2 POP SLOAD SWAP1 PUSH2 0x100 EXP SWAP1 DIV PUSH1 0xFF AND DUP2 JUMP JUMPDEST PUSH1 0x1 PUSH0 CALLER PUSH20 0xFFFFFFFFFFFFFFFFFFFFFFFFFFFFFFFFFFFFFFFF AND PUSH20 0xFFFFFFFFFFFFFFFFFFFFFFFFFFFFFFFFFFFFFFFF AND DUP2 MSTORE PUSH1 0x20 ADD SWAP1 DUP2 MSTORE PUSH1 0x20 ADD PUSH0 KECCAK256 PUSH0 SWAP1 SLOAD SWAP1 PUSH2 0x100 EXP SWAP1 DIV PUSH1 0xFF AND PUSH2 0x891 JUMPI PUSH1 0x40 MLOAD PUSH32 0x8C379A000000000000000000000000000000000000000000000000000000000 DUP2 MSTORE PUSH1 0x4 ADD PUSH2 0x888 SWAP1 PUSH2 0x1631 JUMP JUMPDEST PUSH1 0x40 MLOAD DUP1 SWAP2 SUB SWAP1 REVERT JUMPDEST PUSH0 PUSH1 0x4 PUSH0 DUP5 DUP2 MSTORE PUSH1 0x20 ADD SWAP1 DUP2 MSTORE PUSH1 0x20 ADD PUSH0 KECCAK256 SWAP1 POP DUP1 PUSH1 0x4 ADD SLOAD TIMESTAMP LT PUSH2 0x8EB JUMPI PUSH1 0x40 MLOAD PUSH32 0x8C379A000000000000000000000000000000000000000000000000000000000 DUP2 MSTORE PUSH1 0x4 ADD PUSH2 0x8E2 SWAP1 PUSH2 0x1B75 JUMP JUMPDEST PUSH1 0x40 MLOAD DUP1 SWAP2 SUB SWAP1 REVERT JUMPDEST DUP1 PUSH1 0x8 ADD PUSH0 CALLER PUSH20 0xFFFFFFFFFFFFFFFFFFFFFFFFFFFFFFFFFFFFFFFF AND PUSH20 0xFFFFFFFFFFFFFFFFFFFFFFFFFFFFFFFFFFFFFFFF AND DUP2 MSTORE PUSH1 0x20 ADD SWAP1 DUP2 MSTORE PUSH1 0x20 ADD PUSH0 KECCAK256 PUSH0 SWAP1 SLOAD SWAP1 PUSH2 0x100 EXP SWAP1 DIV PUSH1 0xFF AND ISZERO PUSH2 0x977 JUMPI PUSH1 0x40 MLOAD PUSH32 0x8C379A000000000000000000000000000000000000000000000000000000000 DUP2 MSTORE PUSH1 0x4 ADD PUSH2 0x96E SWAP1 PUSH2 0x1BDD JUMP JUMPDEST PUSH1 0x40 MLOAD DUP1 SWAP2 SUB SWAP1 REVERT JUMPDEST PUSH1 0x1 DUP2 PUSH1 0x8 ADD PUSH0 CALLER PUSH20 0xFFFFFFFFFFFFFFFFFFFFFFFFFFFFFFFFFFFFFFFF AND PUSH20 0xFFFFFFFFFFFFFFFFFFFFFFFFFFFFFFFFFFFFFFFF AND DUP2 MSTORE PUSH1 0x20 ADD SWAP1 DUP2 MSTORE PUSH1 0x20 ADD PUSH0 KECCAK256 PUSH0 PUSH2 0x100 EXP DUP2 SLOAD DUP2 PUSH1 0xFF MUL NOT AND SWAP1 DUP4 ISZERO ISZERO MUL OR SWAP1 SSTORE POP DUP2 ISZERO PUSH2 0x9F2 JUMPI DUP1 PUSH1 0x6 ADD PUSH0 DUP2 SLOAD DUP1 SWAP3 SWAP2 SWAP1 PUSH2 0x9E8 SWAP1 PUSH2 0x16B7 JUMP JUMPDEST SWAP2 SWAP1 POP SSTORE POP PUSH2 0xA0C JUMP JUMPDEST DUP1 PUSH1 0x7 ADD PUSH0 DUP2 SLOAD DUP1 SWAP3 SWAP2 SWAP1 PUSH2 0xA06 SWAP1 PUSH2 0x16B7 JUMP JUMPDEST SWAP2 SWAP1 POP SSTORE POP JUMPDEST PUSH32 0xF2913DBE661EE2ACC4A046D8FBCDC792373BDA34C41C6086484B5345E5785E5F DUP4 CALLER DUP5 PUSH1 0x40 MLOAD PUSH2 0xA3F SWAP4 SWAP3 SWAP2 SWAP1 PUSH2 0x1BFB JUMP JUMPDEST PUSH1 0x40 MLOAD DUP1 SWAP2 SUB SWAP1 LOG1 POP POP POP JUMP JUMPDEST PUSH2 0xA54 PUSH2 0xECE JUMP JUMPDEST PUSH1 0x1 PUSH0 DUP3 PUSH20 0xFFFFFFFFFFFFFFFFFFFFFFFFFFFFFFFFFFFFFFFF AND PUSH20 0xFFFFFFFFFFFFFFFFFFFFFFFFFFFFFFFFFFFFFFFF AND DUP2 MSTORE PUSH1 0x20 ADD SWAP1 DUP2 MSTORE PUSH1 0x20 ADD PUSH0 KECCAK256 PUSH0 SWAP1 SLOAD SWAP1 PUSH2 0x100 EXP SWAP1 DIV PUSH1 0xFF AND ISZERO PUSH2 0xADE JUMPI PUSH1 0x40 MLOAD PUSH32 0x8C379A000000000000000000000000000000000000000000000000000000000 DUP2 MSTORE PUSH1 0x4 ADD PUSH2 0xAD5 SWAP1 PUSH2 0x1C7A JUMP JUMPDEST PUSH1 0x40 MLOAD DUP1 SWAP2 SUB SWAP1 REVERT JUMPDEST PUSH1 0x1 DUP1 PUSH0 DUP4 PUSH20 0xFFFFFFFFFFFFFFFFFFFFFFFFFFFFFFFFFFFFFFFF AND PUSH20 0xFFFFFFFFFFFFFFFFFFFFFFFFFFFFFFFFFFFFFFFF AND DUP2 MSTORE PUSH1 0x20 ADD SWAP1 DUP2 MSTORE PUSH1 0x20 ADD PUSH0 KECCAK256 PUSH0 PUSH2 0x100 EXP DUP2 SLOAD DUP2 PUSH1 0xFF MUL NOT AND SWAP1 DUP4 ISZERO ISZERO MUL OR SWAP1 SSTORE POP PUSH1 0x2 DUP2 SWAP1 DUP1 PUSH1 0x1 DUP2 SLOAD ADD DUP1 DUP3 SSTORE DUP1 SWAP2 POP POP PUSH1 0x1 SWAP1 SUB SWAP1 PUSH0 MSTORE PUSH1 0x20 PUSH0 KECCAK256 ADD PUSH0 SWAP1 SWAP2 SWAP1 SWAP2 SWAP1 SWAP2 PUSH2 0x100 EXP DUP2 SLOAD DUP2 PUSH20 0xFFFFFFFFFFFFFFFFFFFFFFFFFFFFFFFFFFFFFFFF MUL NOT AND SWAP1 DUP4 PUSH20 0xFFFFFFFFFFFFFFFFFFFFFFFFFFFFFFFFFFFFFFFF AND MUL OR SWAP1 SSTORE POP PUSH32 0xB251EB052AFC73FFD02FFE85AD79990A8B3FED60D76DBC2FA2FDD7123DFFD914 DUP2 PUSH1 0x40 MLOAD PUSH2 0xBC1 SWAP2 SWAP1 PUSH2 0x12FF JUMP JUMPDEST PUSH1 0x40 MLOAD DUP1 SWAP2 SUB SWAP1 LOG1 POP JUMP JUMPDEST JUMP JUMPDEST PUSH1 0x3 SLOAD DUP2 JUMP JUMPDEST PUSH2 0xBDC PUSH2 0xECE JUMP JUMPDEST PUSH0 PUSH20 0xFFFFFFFFFFFFFFFFFFFFFFFFFFFFFFFFFFFFFFFF AND DUP2 PUSH20 0xFFFFFFFFFFFFFFFFFFFFFFFFFFFFFFFFFFFFFFFF AND SUB PUSH2 0xC4C JUMPI PUSH0 PUSH1 0x40 MLOAD PUSH32 0x1E4FBDF700000000000000000000000000000000000000000000000000000000 DUP2 MSTORE PUSH1 0x4 ADD PUSH2 0xC43 SWAP2 SWAP1 PUSH2 0x12FF JUMP JUMPDEST PUSH1 0x40 MLOAD DUP1 SWAP2 SUB SWAP1 REVERT JUMPDEST PUSH2 0xC55 DUP2 PUSH2 0xF55 JUMP JUMPDEST POP JUMP JUMPDEST PUSH2 0xC60 PUSH2 0x1016 JUMP JUMPDEST PUSH0 PUSH1 0x4 PUSH0 DUP4 DUP2 MSTORE PUSH1 0x20 ADD SWAP1 DUP2 MSTORE PUSH1 0x20 ADD PUSH0 KECCAK256 SWAP1 POP DUP1 PUSH1 0x5 ADD PUSH0 SWAP1 SLOAD SWAP1 PUSH2 0x100 EXP SWAP1 DIV PUSH1 0xFF AND ISZERO PUSH2 0xCC5 JUMPI PUSH1 0x40 MLOAD PUSH32 0x8C379A000000000000000000000000000000000000000000000000000000000 DUP2 MSTORE PUSH1 0x4 ADD PUSH2 0xCBC SWAP1 PUSH2 0x1CE2 JUMP JUMPDEST PUSH1 0x40 MLOAD DUP1 SWAP2 SUB SWAP1 REVERT JUMPDEST DUP1 PUSH1 0x4 ADD SLOAD TIMESTAMP LT ISZERO PUSH2 0xD0C JUMPI PUSH1 0x40 MLOAD PUSH32 0x8C379A000000000000000000000000000000000000000000000000000000000 DUP2 MSTORE PUSH1 0x4 ADD PUSH2 0xD03 SWAP1 PUSH2 0x1D4A JUMP JUMPDEST PUSH1 0x40 MLOAD DUP1 SWAP2 SUB SWAP1 REVERT JUMPDEST PUSH1 0x5 SLOAD DUP2 PUSH1 0x6 ADD SLOAD LT ISZERO PUSH2 0xD55 JUMPI PUSH1 0x40 MLOAD PUSH32 0x8C379A000000000000000000000000000000000000000000000000000000000 DUP2 MSTORE PUSH1 0x4 ADD PUSH2 0xD4C SWAP1 PUSH2 0x1DB2 JUMP JUMPDEST PUSH1 0x40 MLOAD DUP1 SWAP2 SUB SWAP1 REVERT JUMPDEST DUP1 PUSH1 0x7 ADD SLOAD DUP2 PUSH1 0x6 ADD SLOAD GT PUSH2 0xD9F JUMPI PUSH1 0x40 MLOAD PUSH32 0x8C379A000000000000000000000000000000000000000000000000000000000 DUP2 MSTORE PUSH1 0x4 ADD PUSH2 0xD96 SWAP1 PUSH2 0x1E1A JUMP JUMPDEST PUSH1 0x40 MLOAD DUP1 SWAP2 SUB SWAP1 REVERT JUMPDEST PUSH1 0x1 DUP2 PUSH1 0x5 ADD PUSH0 PUSH2 0x100 EXP DUP2 SLOAD DUP2 PUSH1 0xFF MUL NOT AND SWAP1 DUP4 ISZERO ISZERO MUL OR SWAP1 SSTORE POP PUSH0 DUP2 PUSH1 0x1 ADD PUSH0 SWAP1 SLOAD SWAP1 PUSH2 0x100 EXP SWAP1 DIV PUSH20 0xFFFFFFFFFFFFFFFFFFFFFFFFFFFFFFFFFFFFFFFF AND PUSH20 0xFFFFFFFFFFFFFFFFFFFFFFFFFFFFFFFFFFFFFFFF AND DUP3 PUSH1 0x2 ADD SLOAD PUSH1 0x40 MLOAD PUSH2 0xE07 SWAP1 PUSH2 0x1E65 JUMP JUMPDEST PUSH0 PUSH1 0x40 MLOAD DUP1 DUP4 SUB DUP2 DUP6 DUP8 GAS CALL SWAP3 POP POP POP RETURNDATASIZE DUP1 PUSH0 DUP2 EQ PUSH2 0xE41 JUMPI PUSH1 0x40 MLOAD SWAP2 POP PUSH1 0x1F NOT PUSH1 0x3F RETURNDATASIZE ADD AND DUP3 ADD PUSH1 0x40 MSTORE RETURNDATASIZE DUP3 MSTORE RETURNDATASIZE PUSH0 PUSH1 0x20 DUP5 ADD RETURNDATACOPY PUSH2 0xE46 JUMP JUMPDEST PUSH1 0x60 SWAP2 POP JUMPDEST POP POP SWAP1 POP DUP1 PUSH2 0xE8A JUMPI PUSH1 0x40 MLOAD PUSH32 0x8C379A000000000000000000000000000000000000000000000000000000000 DUP2 MSTORE PUSH1 0x4 ADD PUSH2 0xE81 SWAP1 PUSH2 0x1EC3 JUMP JUMPDEST PUSH1 0x40 MLOAD DUP1 SWAP2 SUB SWAP1 REVERT JUMPDEST PUSH32 0xBCF6A68A2F901BE4A23A41B53ACD7697893A7E34DEF4E28ACBA584DA75283B67 DUP4 PUSH1 0x40 MLOAD PUSH2 0xEB9 SWAP2 SWAP1 PUSH2 0x118D JUMP JUMPDEST PUSH1 0x40 MLOAD DUP1 SWAP2 SUB SWAP1 LOG1 POP POP PUSH2 0xECB PUSH2 0x1038 JUMP JUMPDEST POP JUMP JUMPDEST PUSH2 0xED6 PUSH2 0x1052 JUMP JUMPDEST PUSH20 0xFFFFFFFFFFFFFFFFFFFFFFFFFFFFFFFFFFFFFFFF AND PUSH2 0xEF4 PUSH2 0x739 JUMP JUMPDEST PUSH20 0xFFFFFFFFFFFFFFFFFFFFFFFFFFFFFFFFFFFFFFFF AND EQ PUSH2 0xF53 JUMPI PUSH2 0xF17 PUSH2 0x1052 JUMP JUMPDEST PUSH1 0x40 MLOAD PUSH32 0x118CDAA700000000000000000000000000000000000000000000000000000000 DUP2 MSTORE PUSH1 0x4 ADD PUSH2 0xF4A SWAP2 SWAP1 PUSH2 0x12FF JUMP JUMPDEST PUSH1 0x40 MLOAD DUP1 SWAP2 SUB SWAP1 REVERT JUMPDEST JUMP JUMPDEST PUSH0 PUSH0 PUSH0 SWAP1 SLOAD SWAP1 PUSH2 0x100 EXP SWAP1 DIV PUSH20 0xFFFFFFFFFFFFFFFFFFFFFFFFFFFFFFFFFFFFFFFF AND SWAP1 POP DUP2 PUSH0 PUSH0 PUSH2 0x100 EXP DUP2 SLOAD DUP2 PUSH20 0xFFFFFFFFFFFFFFFFFFFFFFFFFFFFFFFFFFFFFFFF MUL NOT AND SWAP1 DUP4 PUSH20 0xFFFFFFFFFFFFFFFFFFFFFFFFFFFFFFFFFFFFFFFF AND MUL OR SWAP1 SSTORE POP DUP2 PUSH20 0xFFFFFFFFFFFFFFFFFFFFFFFFFFFFFFFFFFFFFFFF AND DUP2 PUSH20 0xFFFFFFFFFFFFFFFFFFFFFFFFFFFFFFFFFFFFFFFF AND PUSH32 0x8BE0079C531659141344CD1FD0A4F28419497F9722A3DAAFE3B4186F6B6457E0 PUSH1 0x40 MLOAD PUSH1 0x40 MLOAD DUP1 SWAP2 SUB SWAP1 LOG3 POP POP JUMP JUMPDEST PUSH2 0x101E PUSH2 0x1059 JUMP JUMPDEST PUSH1 0x2 PUSH2 0x1030 PUSH2 0x102B PUSH2 0x109A JUMP JUMPDEST PUSH2 0x10C3 JUMP JUMPDEST PUSH0 ADD DUP2 SWAP1 SSTORE POP JUMP JUMPDEST PUSH1 0x1 PUSH2 0x104A PUSH2 0x1045 PUSH2 0x109A JUMP JUMPDEST PUSH2 0x10C3 JUMP JUMPDEST PUSH0 ADD DUP2 SWAP1 SSTORE POP JUMP JUMPDEST PUSH0 CALLER SWAP1 POP SWAP1 JUMP JUMPDEST PUSH2 0x1061 PUSH2 0x10CC JUMP JUMPDEST ISZERO PUSH2 0x1098 JUMPI PUSH1 0x40 MLOAD PUSH32 0x3EE5AEB500000000000000000000000000000000000000000000000000000000 DUP2 MSTORE PUSH1 0x4 ADD PUSH1 0x40 MLOAD DUP1 SWAP2 SUB SWAP1 REVERT JUMPDEST JUMP JUMPDEST PUSH0 PUSH32 0x9B779B17422D0DF92223018B32B4D1FA46E071723D6817E2486D003BECC55F00 PUSH0 SHL SWAP1 POP SWAP1 JUMP JUMPDEST PUSH0 DUP2 SWAP1 POP SWAP2 SWAP1 POP JUMP JUMPDEST PUSH0 PUSH1 0x2 PUSH2 0x10DF PUSH2 0x10DA PUSH2 0x109A JUMP JUMPDEST PUSH2 0x10C3 JUMP JUMPDEST PUSH0 ADD SLOAD EQ SWAP1 POP SWAP1 JUMP JUMPDEST PUSH0 PUSH0 REVERT JUMPDEST PUSH0 PUSH0 REVERT JUMPDEST PUSH0 PUSH20 0xFFFFFFFFFFFFFFFFFFFFFFFFFFFFFFFFFFFFFFFF DUP3 AND SWAP1 POP SWAP2 SWAP1 POP JUMP JUMPDEST PUSH0 PUSH2 0x1119 DUP3 PUSH2 0x10F0 JUMP JUMPDEST SWAP1 POP SWAP2 SWAP1 POP JUMP JUMPDEST PUSH2 0x1129 DUP2 PUSH2 0x110F JUMP JUMPDEST DUP2 EQ PUSH2 0x1133 JUMPI PUSH0 PUSH0 REVERT JUMPDEST POP JUMP JUMPDEST PUSH0 DUP2 CALLDATALOAD SWAP1 POP PUSH2 0x1144 DUP2 PUSH2 0x1120 JUMP JUMPDEST SWAP3 SWAP2 POP POP JUMP JUMPDEST PUSH0 PUSH1 0x20 DUP3 DUP5 SUB SLT ISZERO PUSH2 0x115F JUMPI PUSH2 0x115E PUSH2 0x10E8 JUMP JUMPDEST JUMPDEST PUSH0 PUSH2 0x116C DUP5 DUP3 DUP6 ADD PUSH2 0x1136 JUMP JUMPDEST SWAP2 POP POP SWAP3 SWAP2 POP POP JUMP JUMPDEST PUSH0 DUP2 SWAP1 POP SWAP2 SWAP1 POP JUMP JUMPDEST PUSH2 0x1187 DUP2 PUSH2 0x1175 JUMP JUMPDEST DUP3 MSTORE POP POP JUMP JUMPDEST PUSH0 PUSH1 0x20 DUP3 ADD SWAP1 POP PUSH2 0x11A0 PUSH0 DUP4 ADD DUP5 PUSH2 0x117E JUMP JUMPDEST SWAP3 SWAP2 POP POP JUMP JUMPDEST PUSH0 PUSH2 0x11B0 DUP3 PUSH2 0x10F0 JUMP JUMPDEST SWAP1 POP SWAP2 SWAP1 POP JUMP JUMPDEST PUSH2 0x11C0 DUP2 PUSH2 0x11A6 JUMP JUMPDEST DUP2 EQ PUSH2 0x11CA JUMPI PUSH0 PUSH0 REVERT JUMPDEST POP JUMP JUMPDEST PUSH0 DUP2 CALLDATALOAD SWAP1 POP PUSH2 0x11DB DUP2 PUSH2 0x11B7 JUMP JUMPDEST SWAP3 SWAP2 POP POP JUMP JUMPDEST PUSH2 0x11EA DUP2 PUSH2 0x1175 JUMP JUMPDEST DUP2 EQ PUSH2 0x11F4 JUMPI PUSH0 PUSH0 REVERT JUMPDEST POP JUMP JUMPDEST PUSH0 DUP2 CALLDATALOAD SWAP1 POP PUSH2 0x1205 DUP2 PUSH2 0x11E1 JUMP JUMPDEST SWAP3 SWAP2 POP POP JUMP JUMPDEST PUSH0 PUSH0 REVERT JUMPDEST PUSH0 PUSH0 REVERT JUMPDEST PUSH0 PUSH0 REVERT JUMPDEST PUSH0 PUSH0 DUP4 PUSH1 0x1F DUP5 ADD SLT PUSH2 0x122C JUMPI PUSH2 0x122B PUSH2 0x120B JUMP JUMPDEST JUMPDEST DUP3 CALLDATALOAD SWAP1 POP PUSH8 0xFFFFFFFFFFFFFFFF DUP2 GT ISZERO PUSH2 0x1249 JUMPI PUSH2 0x1248 PUSH2 0x120F JUMP JUMPDEST JUMPDEST PUSH1 0x20 DUP4 ADD SWAP2 POP DUP4 PUSH1 0x1 DUP3 MUL DUP4 ADD GT ISZERO PUSH2 0x1265 JUMPI PUSH2 0x1264 PUSH2 0x1213 JUMP JUMPDEST JUMPDEST SWAP3 POP SWAP3 SWAP1 POP JUMP JUMPDEST PUSH0 PUSH0 PUSH0 PUSH0 PUSH0 PUSH1 0x80 DUP7 DUP9 SUB SLT ISZERO PUSH2 0x1285 JUMPI PUSH2 0x1284 PUSH2 0x10E8 JUMP JUMPDEST JUMPDEST PUSH0 PUSH2 0x1292 DUP9 DUP3 DUP10 ADD PUSH2 0x11CD JUMP JUMPDEST SWAP6 POP POP PUSH1 0x20 PUSH2 0x12A3 DUP9 DUP3 DUP10 ADD PUSH2 0x11F7 JUMP JUMPDEST SWAP5 POP POP PUSH1 0x40 DUP7 ADD CALLDATALOAD PUSH8 0xFFFFFFFFFFFFFFFF DUP2 GT ISZERO PUSH2 0x12C4 JUMPI PUSH2 0x12C3 PUSH2 0x10EC JUMP JUMPDEST JUMPDEST PUSH2 0x12D0 DUP9 DUP3 DUP10 ADD PUSH2 0x1217 JUMP JUMPDEST SWAP4 POP SWAP4 POP POP PUSH1 0x60 PUSH2 0x12E3 DUP9 DUP3 DUP10 ADD PUSH2 0x11F7 JUMP JUMPDEST SWAP2 POP POP SWAP3 SWAP6 POP SWAP3 SWAP6 SWAP1 SWAP4 POP JUMP JUMPDEST PUSH2 0x12F9 DUP2 PUSH2 0x110F JUMP JUMPDEST DUP3 MSTORE POP POP JUMP JUMPDEST PUSH0 PUSH1 0x20 DUP3 ADD SWAP1 POP PUSH2 0x1312 PUSH0 DUP4 ADD DUP5 PUSH2 0x12F0 JUMP JUMPDEST SWAP3 SWAP2 POP POP JUMP JUMPDEST PUSH0 DUP2 MLOAD SWAP1 POP SWAP2 SWAP1 POP JUMP JUMPDEST PUSH0 DUP3 DUP3 MSTORE PUSH1 0x20 DUP3 ADD SWAP1 POP SWAP3 SWAP2 POP POP JUMP JUMPDEST PUSH0 DUP2 SWAP1 POP PUSH1 0x20 DUP3 ADD SWAP1 POP SWAP2 SWAP1 POP JUMP JUMPDEST PUSH2 0x134A DUP2 PUSH2 0x110F JUMP JUMPDEST DUP3 MSTORE POP POP JUMP JUMPDEST PUSH0 PUSH2 0x135B DUP4 DUP4 PUSH2 0x1341 JUMP JUMPDEST PUSH1 0x20 DUP4 ADD SWAP1 POP SWAP3 SWAP2 POP POP JUMP JUMPDEST PUSH0 PUSH1 0x20 DUP3 ADD SWAP1 POP SWAP2 SWAP1 POP JUMP JUMPDEST PUSH0 PUSH2 0x137D DUP3 PUSH2 0x1318 JUMP JUMPDEST PUSH2 0x1387 DUP2 DUP6 PUSH2 0x1322 JUMP JUMPDEST SWAP4 POP PUSH2 0x1392 DUP4 PUSH2 0x1332 JUMP JUMPDEST DUP1 PUSH0 JUMPDEST DUP4 DUP2 LT ISZERO PUSH2 0x13C2 JUMPI DUP2 MLOAD PUSH2 0x13A9 DUP9 DUP3 PUSH2 0x1350 JUMP JUMPDEST SWAP8 POP PUSH2 0x13B4 DUP4 PUSH2 0x1367 JUMP JUMPDEST SWAP3 POP POP PUSH1 0x1 DUP2 ADD SWAP1 POP PUSH2 0x1395 JUMP JUMPDEST POP DUP6 SWAP4 POP POP POP POP SWAP3 SWAP2 POP POP JUMP JUMPDEST PUSH0 PUSH1 0x20 DUP3 ADD SWAP1 POP DUP2 DUP2 SUB PUSH0 DUP4 ADD MSTORE PUSH2 0x13E7 DUP2 DUP5 PUSH2 0x1373 JUMP JUMPDEST SWAP1 POP SWAP3 SWAP2 POP POP JUMP JUMPDEST PUSH0 DUP2 ISZERO ISZERO SWAP1 POP SWAP2 SWAP1 POP JUMP JUMPDEST PUSH2 0x1403 DUP2 PUSH2 0x13EF JUMP JUMPDEST DUP3 MSTORE POP POP JUMP JUMPDEST PUSH0 PUSH1 0x20 DUP3 ADD SWAP1 POP PUSH2 0x141C PUSH0 DUP4 ADD DUP5 PUSH2 0x13FA JUMP JUMPDEST SWAP3 SWAP2 POP POP JUMP JUMPDEST PUSH2 0x142B DUP2 PUSH2 0x13EF JUMP JUMPDEST DUP2 EQ PUSH2 0x1435 JUMPI PUSH0 PUSH0 REVERT JUMPDEST POP JUMP JUMPDEST PUSH0 DUP2 CALLDATALOAD SWAP1 POP PUSH2 0x1446 DUP2 PUSH2 0x1422 JUMP JUMPDEST SWAP3 SWAP2 POP POP JUMP JUMPDEST PUSH0 PUSH0 PUSH1 0x40 DUP4 DUP6 SUB SLT ISZERO PUSH2 0x1462 JUMPI PUSH2 0x1461 PUSH2 0x10E8 JUMP JUMPDEST JUMPDEST PUSH0 PUSH2 0x146F DUP6 DUP3 DUP7 ADD PUSH2 0x11F7 JUMP JUMPDEST SWAP3 POP POP PUSH1 0x20 PUSH2 0x1480 DUP6 DUP3 DUP7 ADD PUSH2 0x1438 JUMP JUMPDEST SWAP2 POP POP SWAP3 POP SWAP3 SWAP1 POP JUMP JUMPDEST PUSH0 PUSH1 0x20 DUP3 DUP5 SUB SLT ISZERO PUSH2 0x149F JUMPI PUSH2 0x149E PUSH2 0x10E8 JUMP JUMPDEST JUMPDEST PUSH0 PUSH2 0x14AC DUP5 DUP3 DUP6 ADD PUSH2 0x11F7 JUMP JUMPDEST SWAP2 POP POP SWAP3 SWAP2 POP POP JUMP JUMPDEST PUSH0 DUP3 DUP3 MSTORE PUSH1 0x20 DUP3 ADD SWAP1 POP SWAP3 SWAP2 POP POP JUMP JUMPDEST PUSH32 0x4E6F74206D656D62657200000000000000000000000000000000000000000000 PUSH0 DUP3 ADD MSTORE POP JUMP JUMPDEST PUSH0 PUSH2 0x14F9 PUSH1 0xA DUP4 PUSH2 0x14B5 JUMP JUMPDEST SWAP2 POP PUSH2 0x1504 DUP3 PUSH2 0x14C5 JUMP JUMPDEST PUSH1 0x20 DUP3 ADD SWAP1 POP SWAP2 SWAP1 POP JUMP JUMPDEST PUSH0 PUSH1 0x20 DUP3 ADD SWAP1 POP DUP2 DUP2 SUB PUSH0 DUP4 ADD MSTORE PUSH2 0x1526 DUP2 PUSH2 0x14ED JUMP JUMPDEST SWAP1 POP SWAP2 SWAP1 POP JUMP JUMPDEST PUSH32 0x4E487B7100000000000000000000000000000000000000000000000000000000 PUSH0 MSTORE PUSH1 0x32 PUSH1 0x4 MSTORE PUSH1 0x24 PUSH0 REVERT JUMPDEST PUSH32 0x4E487B7100000000000000000000000000000000000000000000000000000000 PUSH0 MSTORE PUSH1 0x11 PUSH1 0x4 MSTORE PUSH1 0x24 PUSH0 REVERT JUMPDEST PUSH0 PUSH2 0x1591 DUP3 PUSH2 0x1175 JUMP JUMPDEST SWAP2 POP PUSH2 0x159C DUP4 PUSH2 0x1175 JUMP JUMPDEST SWAP3 POP DUP3 DUP3 SUB SWAP1 POP DUP2 DUP2 GT ISZERO PUSH2 0x15B4 JUMPI PUSH2 0x15B3 PUSH2 0x155A JUMP JUMPDEST JUMPDEST SWAP3 SWAP2 POP POP JUMP JUMPDEST PUSH32 0x4E487B7100000000000000000000000000000000000000000000000000000000 PUSH0 MSTORE PUSH1 0x31 PUSH1 0x4 MSTORE PUSH1 0x24 PUSH0 REVERT JUMPDEST PUSH32 0x4E6F742061206D656D6265720000000000000000000000000000000000000000 PUSH0 DUP3 ADD MSTORE POP JUMP JUMPDEST PUSH0 PUSH2 0x161B PUSH1 0xC DUP4 PUSH2 0x14B5 JUMP JUMPDEST SWAP2 POP PUSH2 0x1626 DUP3 PUSH2 0x15E7 JUMP JUMPDEST PUSH1 0x20 DUP3 ADD SWAP1 POP SWAP2 SWAP1 POP JUMP JUMPDEST PUSH0 PUSH1 0x20 DUP3 ADD SWAP1 POP DUP2 DUP2 SUB PUSH0 DUP4 ADD MSTORE PUSH2 0x1648 DUP2 PUSH2 0x160F JUMP JUMPDEST SWAP1 POP SWAP2 SWAP1 POP JUMP JUMPDEST PUSH32 0x4E6F7420656E6F75676820455448000000000000000000000000000000000000 PUSH0 DUP3 ADD MSTORE POP JUMP JUMPDEST PUSH0 PUSH2 0x1683 PUSH1 0xE DUP4 PUSH2 0x14B5 JUMP JUMPDEST SWAP2 POP PUSH2 0x168E DUP3 PUSH2 0x164F JUMP JUMPDEST PUSH1 0x20 DUP3 ADD SWAP1 POP SWAP2 SWAP1 POP JUMP JUMPDEST PUSH0 PUSH1 0x20 DUP3 ADD SWAP1 POP DUP2 DUP2 SUB PUSH0 DUP4 ADD MSTORE PUSH2 0x16B0 DUP2 PUSH2 0x1677 JUMP JUMPDEST SWAP1 POP SWAP2 SWAP1 POP JUMP JUMPDEST PUSH0 PUSH2 0x16C1 DUP3 PUSH2 0x1175 JUMP JUMPDEST SWAP2 POP PUSH32 0xFFFFFFFFFFFFFFFFFFFFFFFFFFFFFFFFFFFFFFFFFFFFFFFFFFFFFFFFFFFFFFFF DUP3 SUB PUSH2 0x16F3 JUMPI PUSH2 0x16F2 PUSH2 0x155A JUMP JUMPDEST JUMPDEST PUSH1 0x1 DUP3 ADD SWAP1 POP SWAP2 SWAP1 POP JUMP JUMPDEST PUSH0 DUP3 SWAP1 POP SWAP3 SWAP2 POP POP JUMP JUMPDEST PUSH32 0x4E487B7100000000000000000000000000000000000000000000000000000000 PUSH0 MSTORE PUSH1 0x41 PUSH1 0x4 MSTORE PUSH1 0x24 PUSH0 REVERT JUMPDEST PUSH32 0x4E487B7100000000000000000000000000000000000000000000000000000000 PUSH0 MSTORE PUSH1 0x22 PUSH1 0x4 MSTORE PUSH1 0x24 PUSH0 REVERT JUMPDEST PUSH0 PUSH1 0x2 DUP3 DIV SWAP1 POP PUSH1 0x1 DUP3 AND DUP1 PUSH2 0x1779 JUMPI PUSH1 0x7F DUP3 AND SWAP2 POP JUMPDEST PUSH1 0x20 DUP3 LT DUP2 SUB PUSH2 0x178C JUMPI PUSH2 0x178B PUSH2 0x1735 JUMP JUMPDEST JUMPDEST POP SWAP2 SWAP1 POP JUMP JUMPDEST PUSH0 DUP2 SWAP1 POP DUP2 PUSH0 MSTORE PUSH1 0x20 PUSH0 KECCAK256 SWAP1 POP SWAP2 SWAP1 POP JUMP JUMPDEST PUSH0 PUSH1 0x20 PUSH1 0x1F DUP4 ADD DIV SWAP1 POP SWAP2 SWAP1 POP JUMP JUMPDEST PUSH0 DUP3 DUP3 SHL SWAP1 POP SWAP3 SWAP2 POP POP JUMP JUMPDEST PUSH0 PUSH1 0x8 DUP4 MUL PUSH2 0x17EE PUSH32 0xFFFFFFFFFFFFFFFFFFFFFFFFFFFFFFFFFFFFFFFFFFFFFFFFFFFFFFFFFFFFFFFF DUP3 PUSH2 0x17B3 JUMP JUMPDEST PUSH2 0x17F8 DUP7 DUP4 PUSH2 0x17B3 JUMP JUMPDEST SWAP6 POP DUP1 NOT DUP5 AND SWAP4 POP DUP1 DUP7 AND DUP5 OR SWAP3 POP POP POP SWAP4 SWAP3 POP POP POP JUMP JUMPDEST PUSH0 DUP2 SWAP1 POP SWAP2 SWAP1 POP JUMP JUMPDEST PUSH0 PUSH2 0x1833 PUSH2 0x182E PUSH2 0x1829 DUP5 PUSH2 0x1175 JUMP JUMPDEST PUSH2 0x1810 JUMP JUMPDEST PUSH2 0x1175 JUMP JUMPDEST SWAP1 POP SWAP2 SWAP1 POP JUMP JUMPDEST PUSH0 DUP2 SWAP1 POP SWAP2 SWAP1 POP JUMP JUMPDEST PUSH2 0x184C DUP4 PUSH2 0x1819 JUMP JUMPDEST PUSH2 0x1860 PUSH2 0x1858 DUP3 PUSH2 0x183A JUMP JUMPDEST DUP5 DUP5 SLOAD PUSH2 0x17BF JUMP JUMPDEST DUP3 SSTORE POP POP POP POP JUMP JUMPDEST PUSH0 PUSH0 SWAP1 POP SWAP1 JUMP JUMPDEST PUSH2 0x1877 PUSH2 0x1868 JUMP JUMPDEST PUSH2 0x1882 DUP2 DUP5 DUP5 PUSH2 0x1843 JUMP JUMPDEST POP POP POP JUMP JUMPDEST PUSH0 JUMPDEST DUP3 DUP2 LT ISZERO PUSH2 0x18A8 JUMPI PUSH2 0x189D PUSH0 DUP3 DUP5 ADD PUSH2 0x186F JUMP JUMPDEST PUSH1 0x1 DUP2 ADD SWAP1 POP PUSH2 0x1889 JUMP JUMPDEST POP POP POP JUMP JUMPDEST PUSH1 0x1F DUP3 GT ISZERO PUSH2 0x18FB JUMPI DUP3 DUP3 GT ISZERO PUSH2 0x18FA JUMPI PUSH2 0x18C7 DUP2 PUSH2 0x1792 JUMP JUMPDEST PUSH2 0x18D0 DUP4 PUSH2 0x17A4 JUMP JUMPDEST PUSH2 0x18D9 DUP6 PUSH2 0x17A4 JUMP JUMPDEST PUSH1 0x20 DUP7 LT ISZERO PUSH2 0x18E6 JUMPI PUSH0 SWAP1 POP JUMPDEST DUP1 DUP4 ADD PUSH2 0x18F5 DUP3 DUP5 SUB DUP3 PUSH2 0x1887 JUMP JUMPDEST POP POP POP POP JUMPDEST JUMPDEST POP POP POP JUMP JUMPDEST PUSH0 DUP3 DUP3 SHR SWAP1 POP SWAP3 SWAP2 POP POP JUMP JUMPDEST PUSH0 PUSH2 0x191B PUSH0 NOT DUP5 PUSH1 0x8 MUL PUSH2 0x1900 JUMP JUMPDEST NOT DUP1 DUP4 AND SWAP2 POP POP SWAP3 SWAP2 POP POP JUMP JUMPDEST PUSH0 PUSH2 0x1933 DUP4 DUP4 PUSH2 0x190C JUMP JUMPDEST SWAP2 POP DUP3 PUSH1 0x2 MUL DUP3 OR SWAP1 POP SWAP3 SWAP2 POP POP JUMP JUMPDEST PUSH2 0x194D DUP4 DUP4 PUSH2 0x16FE JUMP JUMPDEST PUSH8 0xFFFFFFFFFFFFFFFF DUP2 GT ISZERO PUSH2 0x1966 JUMPI PUSH2 0x1965 PUSH2 0x1708 JUMP JUMPDEST JUMPDEST PUSH2 0x1970 DUP3 SLOAD PUSH2 0x1762 JUMP JUMPDEST PUSH2 0x197B DUP3 DUP3 DUP6 PUSH2 0x18AD JUMP JUMPDEST PUSH0 PUSH1 0x1F DUP4 GT PUSH1 0x1 DUP2 EQ PUSH2 0x19A8 JUMPI PUSH0 DUP5 ISZERO PUSH2 0x1996 JUMPI DUP3 DUP8 ADD CALLDATALOAD SWAP1 POP JUMPDEST PUSH2 0x19A0 DUP6 DUP3 PUSH2 0x1928 JUMP JUMPDEST DUP7 SSTORE POP PUSH2 0x1A07 JUMP JUMPDEST PUSH1 0x1F NOT DUP5 AND PUSH2 0x19B6 DUP7 PUSH2 0x1792 JUMP JUMPDEST PUSH0 JUMPDEST DUP3 DUP2 LT ISZERO PUSH2 0x19DD JUMPI DUP5 DUP10 ADD CALLDATALOAD DUP3 SSTORE PUSH1 0x1 DUP3 ADD SWAP2 POP PUSH1 0x20 DUP6 ADD SWAP5 POP PUSH1 0x20 DUP2 ADD SWAP1 POP PUSH2 0x19B8 JUMP JUMPDEST DUP7 DUP4 LT ISZERO PUSH2 0x19FA JUMPI DUP5 DUP10 ADD CALLDATALOAD PUSH2 0x19F6 PUSH1 0x1F DUP10 AND DUP3 PUSH2 0x190C JUMP JUMPDEST DUP4 SSTORE POP JUMPDEST PUSH1 0x1 PUSH1 0x2 DUP9 MUL ADD DUP9 SSTORE POP POP POP JUMPDEST POP POP POP POP POP POP POP JUMP JUMPDEST PUSH0 PUSH2 0x1A1A DUP3 PUSH2 0x1175 JUMP JUMPDEST SWAP2 POP PUSH2 0x1A25 DUP4 PUSH2 0x1175 JUMP JUMPDEST SWAP3 POP DUP3 DUP3 ADD SWAP1 POP DUP1 DUP3 GT ISZERO PUSH2 0x1A3D JUMPI PUSH2 0x1A3C PUSH2 0x155A JUMP JUMPDEST JUMPDEST SWAP3 SWAP2 POP POP JUMP JUMPDEST PUSH0 PUSH2 0x1A5D PUSH2 0x1A58 PUSH2 0x1A53 DUP5 PUSH2 0x10F0 JUMP JUMPDEST PUSH2 0x1810 JUMP JUMPDEST PUSH2 0x10F0 JUMP JUMPDEST SWAP1 POP SWAP2 SWAP1 POP JUMP JUMPDEST PUSH0 PUSH2 0x1A6E DUP3 PUSH2 0x1A43 JUMP JUMPDEST SWAP1 POP SWAP2 SWAP1 POP JUMP JUMPDEST PUSH0 PUSH2 0x1A7F DUP3 PUSH2 0x1A64 JUMP JUMPDEST SWAP1 POP SWAP2 SWAP1 POP JUMP JUMPDEST PUSH2 0x1A8F DUP2 PUSH2 0x1A75 JUMP JUMPDEST DUP3 MSTORE POP POP JUMP JUMPDEST DUP3 DUP2 DUP4 CALLDATACOPY PUSH0 DUP4 DUP4 ADD MSTORE POP POP POP JUMP JUMPDEST PUSH0 PUSH1 0x1F NOT PUSH1 0x1F DUP4 ADD AND SWAP1 POP SWAP2 SWAP1 POP JUMP JUMPDEST PUSH0 PUSH2 0x1ABE DUP4 DUP6 PUSH2 0x14B5 JUMP JUMPDEST SWAP4 POP PUSH2 0x1ACB DUP4 DUP6 DUP5 PUSH2 0x1A95 JUMP JUMPDEST PUSH2 0x1AD4 DUP4 PUSH2 0x1AA3 JUMP JUMPDEST DUP5 ADD SWAP1 POP SWAP4 SWAP3 POP POP POP JUMP JUMPDEST PUSH0 PUSH1 0x80 DUP3 ADD SWAP1 POP PUSH2 0x1AF2 PUSH0 DUP4 ADD DUP9 PUSH2 0x117E JUMP JUMPDEST PUSH2 0x1AFF PUSH1 0x20 DUP4 ADD DUP8 PUSH2 0x1A86 JUMP JUMPDEST PUSH2 0x1B0C PUSH1 0x40 DUP4 ADD DUP7 PUSH2 0x117E JUMP JUMPDEST DUP2 DUP2 SUB PUSH1 0x60 DUP4 ADD MSTORE PUSH2 0x1B1F DUP2 DUP5 DUP7 PUSH2 0x1AB3 JUMP JUMPDEST SWAP1 POP SWAP7 SWAP6 POP POP POP POP POP POP JUMP JUMPDEST PUSH32 0x566F74696E6720656E6465640000000000000000000000000000000000000000 PUSH0 DUP3 ADD MSTORE POP JUMP JUMPDEST PUSH0 PUSH2 0x1B5F PUSH1 0xC DUP4 PUSH2 0x14B5 JUMP JUMPDEST SWAP2 POP PUSH2 0x1B6A DUP3 PUSH2 0x1B2B JUMP JUMPDEST PUSH1 0x20 DUP3 ADD SWAP1 POP SWAP2 SWAP1 POP JUMP JUMPDEST PUSH0 PUSH1 0x20 DUP3 ADD SWAP1 POP DUP2 DUP2 SUB PUSH0 DUP4 ADD MSTORE PUSH2 0x1B8C DUP2 PUSH2 0x1B53 JUMP JUMPDEST SWAP1 POP SWAP2 SWAP1 POP JUMP JUMPDEST PUSH32 0x416C726561647920766F74656400000000000000000000000000000000000000 PUSH0 DUP3 ADD MSTORE POP JUMP JUMPDEST PUSH0 PUSH2 0x1BC7 PUSH1 0xD DUP4 PUSH2 0x14B5 JUMP JUMPDEST SWAP2 POP PUSH2 0x1BD2 DUP3 PUSH2 0x1B93 JUMP JUMPDEST PUSH1 0x20 DUP3 ADD SWAP1 POP SWAP2 SWAP1 POP JUMP JUMPDEST PUSH0 PUSH1 0x20 DUP3 ADD SWAP1 POP DUP2 DUP2 SUB PUSH0 DUP4 ADD MSTORE PUSH2 0x1BF4 DUP2 PUSH2 0x1BBB JUMP JUMPDEST SWAP1 POP SWAP2 SWAP1 POP JUMP JUMPDEST PUSH0 PUSH1 0x60 DUP3 ADD SWAP1 POP PUSH2 0x1C0E PUSH0 DUP4 ADD DUP7 PUSH2 0x117E JUMP JUMPDEST PUSH2 0x1C1B PUSH1 0x20 DUP4 ADD DUP6 PUSH2 0x12F0 JUMP JUMPDEST PUSH2 0x1C28 PUSH1 0x40 DUP4 ADD DUP5 PUSH2 0x13FA JUMP JUMPDEST SWAP5 SWAP4 POP POP POP POP JUMP JUMPDEST PUSH32 0x416C7265616479206D656D626572000000000000000000000000000000000000 PUSH0 DUP3 ADD MSTORE POP JUMP JUMPDEST PUSH0 PUSH2 0x1C64 PUSH1 0xE DUP4 PUSH2 0x14B5 JUMP JUMPDEST SWAP2 POP PUSH2 0x1C6F DUP3 PUSH2 0x1C30 JUMP JUMPDEST PUSH1 0x20 DUP3 ADD SWAP1 POP SWAP2 SWAP1 POP JUMP JUMPDEST PUSH0 PUSH1 0x20 DUP3 ADD SWAP1 POP DUP2 DUP2 SUB PUSH0 DUP4 ADD MSTORE PUSH2 0x1C91 DUP2 PUSH2 0x1C58 JUMP JUMPDEST SWAP1 POP SWAP2 SWAP1 POP JUMP JUMPDEST PUSH32 0x416C726561647920657865637574656400000000000000000000000000000000 PUSH0 DUP3 ADD MSTORE POP JUMP JUMPDEST PUSH0 PUSH2 0x1CCC PUSH1 0x10 DUP4 PUSH2 0x14B5 JUMP JUMPDEST SWAP2 POP PUSH2 0x1CD7 DUP3 PUSH2 0x1C98 JUMP JUMPDEST PUSH1 0x20 DUP3 ADD SWAP1 POP SWAP2 SWAP1 POP JUMP JUMPDEST PUSH0 PUSH1 0x20 DUP3 ADD SWAP1 POP DUP2 DUP2 SUB PUSH0 DUP4 ADD MSTORE PUSH2 0x1CF9 DUP2 PUSH2 0x1CC0 JUMP JUMPDEST SWAP1 POP SWAP2 SWAP1 POP JUMP JUMPDEST PUSH32 0x546F6F206561726C790000000000000000000000000000000000000000000000 PUSH0 DUP3 ADD MSTORE POP JUMP JUMPDEST PUSH0 PUSH2 0x1D34 PUSH1 0x9 DUP4 PUSH2 0x14B5 JUMP JUMPDEST SWAP2 POP PUSH2 0x1D3F DUP3 PUSH2 0x1D00 JUMP JUMPDEST PUSH1 0x20 DUP3 ADD SWAP1 POP SWAP2 SWAP1 POP JUMP JUMPDEST PUSH0 PUSH1 0x20 DUP3 ADD SWAP1 POP DUP2 DUP2 SUB PUSH0 DUP4 ADD MSTORE PUSH2 0x1D61 DUP2 PUSH2 0x1D28 JUMP JUMPDEST SWAP1 POP SWAP2 SWAP1 POP JUMP JUMPDEST PUSH32 0x51756F72756D206E6F7420726561636865640000000000000000000000000000 PUSH0 DUP3 ADD MSTORE POP JUMP JUMPDEST PUSH0 PUSH2 0x1D9C PUSH1 0x12 DUP4 PUSH2 0x14B5 JUMP JUMPDEST SWAP2 POP PUSH2 0x1DA7 DUP3 PUSH2 0x1D68 JUMP JUMPDEST PUSH1 0x20 DUP3 ADD SWAP1 POP SWAP2 SWAP1 POP JUMP JUMPDEST PUSH0 PUSH1 0x20 DUP3 ADD SWAP1 POP DUP2 DUP2 SUB PUSH0 DUP4 ADD MSTORE PUSH2 0x1DC9 DUP2 PUSH2 0x1D90 JUMP JUMPDEST SWAP1 POP SWAP2 SWAP1 POP JUMP JUMPDEST PUSH32 0x52656A6563746564000000000000000000000000000000000000000000000000 PUSH0 DUP3 ADD MSTORE POP JUMP JUMPDEST PUSH0 PUSH2 0x1E04 PUSH1 0x8 DUP4 PUSH2 0x14B5 JUMP JUMPDEST SWAP2 POP PUSH2 0x1E0F DUP3 PUSH2 0x1DD0 JUMP JUMPDEST PUSH1 0x20 DUP3 ADD SWAP1 POP SWAP2 SWAP1 POP JUMP JUMPDEST PUSH0 PUSH1 0x20 DUP3 ADD SWAP1 POP DUP2 DUP2 SUB PUSH0 DUP4 ADD MSTORE PUSH2 0x1E31 DUP2 PUSH2 0x1DF8 JUMP JUMPDEST SWAP1 POP SWAP2 SWAP1 POP JUMP JUMPDEST PUSH0 DUP2 SWAP1 POP SWAP3 SWAP2 POP POP JUMP JUMPDEST POP JUMP JUMPDEST PUSH0 PUSH2 0x1E50 PUSH0 DUP4 PUSH2 0x1E38 JUMP JUMPDEST SWAP2 POP PUSH2 0x1E5B DUP3 PUSH2 0x1E42 JUMP JUMPDEST PUSH0 DUP3 ADD SWAP1 POP SWAP2 SWAP1 POP JUMP JUMPDEST PUSH0 PUSH2 0x1E6F DUP3 PUSH2 0x1E45 JUMP JUMPDEST SWAP2 POP DUP2 SWAP1 POP SWAP2 SWAP1 POP JUMP JUMPDEST PUSH32 0x5472616E73666572206661696C65640000000000000000000000000000000000 PUSH0 DUP3 ADD MSTORE POP JUMP JUMPDEST PUSH0 PUSH2 0x1EAD PUSH1 0xF DUP4 PUSH2 0x14B5 JUMP JUMPDEST SWAP2 POP PUSH2 0x1EB8 DUP3 PUSH2 0x1E79 JUMP JUMPDEST PUSH1 0x20 DUP3 ADD SWAP1 POP SWAP2 SWAP1 POP JUMP JUMPDEST PUSH0 PUSH1 0x20 DUP3 ADD SWAP1 POP DUP2 DUP2 SUB PUSH0 DUP4 ADD MSTORE PUSH2 0x1EDA DUP2 PUSH2 0x1EA1 JUMP JUMPDEST SWAP1 POP SWAP2 SWAP1 POP JUMP INVALID LOG2 PUSH5 0x6970667358 0x22 SLT KECCAK256 PUSH1 0xBA CREATE PUSH1 0x24 0xA6 0xA7 SWAP4 0xD8 BLOBBASEFEE 0xB1 0x25 PUSH2 0xF1EF CALLDATACOPY MUL 0xDB SAR PUSH4 0xCA7AEDD4 SWAP2 XOR 0xFC SHL PUSH4 0xEDF26064 PUSH20 0x6F6C634300082100330000000000000000000000 "
				},
				"gasEstimates": {
					"creation": {
						"codeDepositCost": "1591800",
						"executionCost": "infinite",
						"totalCost": "infinite"
					},
					"external": {
						"addMember(address)": "infinite",
						"createProposal(address,uint256,string,uint256)": "infinite",
						"deposit()": "141",
						"execute(uint256)": "infinite",
						"getMembers()": "infinite",
						"isMember(address)": "2856",
						"owner()": "2603",
						"proposalCount()": "2469",
						"quorum()": "2448",
						"removeMember(address)": "infinite",
						"renounceOwnership()": "infinite",
						"transferOwnership(address)": "infinite",
						"vote(uint256,bool)": "infinite"
					}
				},
				"methodIdentifiers": {
					"addMember(address)": "ca6d56dc",
					"createProposal(address,uint256,string,uint256)": "7d10707b",
					"deposit()": "d0e30db0",
					"execute(uint256)": "fe0d94c1",
					"getMembers()": "9eab5253",
					"isMember(address)": "a230c524",
					"owner()": "8da5cb5b",
					"proposalCount()": "da35c664",
					"quorum()": "1703a018",
					"removeMember(address)": "0b1ca49a",
					"renounceOwnership()": "715018a6",
					"transferOwnership(address)": "f2fde38b",
					"vote(uint256,bool)": "c9d27afe"
				}
			},
			"storageLayout": {
				"storage": [
					{
						"astId": 435,
						"contract": "contracts/SafeClub.sol:SafeClub",
						"label": "_owner",
						"offset": 0,
						"slot": "0",
						"type": "t_address"
					},
					{
						"astId": 11,
						"contract": "contracts/SafeClub.sol:SafeClub",
						"label": "isMember",
						"offset": 0,
						"slot": "1",
						"type": "t_mapping(t_address,t_bool)"
					},
					{
						"astId": 14,
						"contract": "contracts/SafeClub.sol:SafeClub",
						"label": "members",
						"offset": 0,
						"slot": "2",
						"type": "t_array(t_address)dyn_storage"
					},
					{
						"astId": 57,
						"contract": "contracts/SafeClub.sol:SafeClub",
						"label": "proposalCount",
						"offset": 0,
						"slot": "3",
						"type": "t_uint256"
					},
					{
						"astId": 62,
						"contract": "contracts/SafeClub.sol:SafeClub",
						"label": "proposals",
						"offset": 0,
						"slot": "4",
						"type": "t_mapping(t_uint256,t_struct(Proposal)55_storage)"
					},
					{
						"astId": 64,
						"contract": "contracts/SafeClub.sol:SafeClub",
						"label": "quorum",
						"offset": 0,
						"slot": "5",
						"type": "t_uint256"
					}
				],
				"types": {
					"t_address": {
						"encoding": "inplace",
						"label": "address",
						"numberOfBytes": "20"
					},
					"t_address_payable": {
						"encoding": "inplace",
						"label": "address payable",
						"numberOfBytes": "20"
					},
					"t_array(t_address)dyn_storage": {
						"base": "t_address",
						"encoding": "dynamic_array",
						"label": "address[]",
						"numberOfBytes": "32"
					},
					"t_bool": {
						"encoding": "inplace",
						"label": "bool",
						"numberOfBytes": "1"
					},
					"t_mapping(t_address,t_bool)": {
						"encoding": "mapping",
						"key": "t_address",
						"label": "mapping(address => bool)",
						"numberOfBytes": "32",
						"value": "t_bool"
					},
					"t_mapping(t_uint256,t_struct(Proposal)55_storage)": {
						"encoding": "mapping",
						"key": "t_uint256",
						"label": "mapping(uint256 => struct SafeClub.Proposal)",
						"numberOfBytes": "32",
						"value": "t_struct(Proposal)55_storage"
					},
					"t_string_storage": {
						"encoding": "bytes",
						"label": "string",
						"numberOfBytes": "32"
					},
					"t_struct(Proposal)55_storage": {
						"encoding": "inplace",
						"label": "struct SafeClub.Proposal",
						"members": [
							{
								"astId": 36,
								"contract": "contracts/SafeClub.sol:SafeClub",
								"label": "id",
								"offset": 0,
								"slot": "0",
								"type": "t_uint256"
							},
							{
								"astId": 38,
								"contract": "contracts/SafeClub.sol:SafeClub",
								"label": "to",
								"offset": 0,
								"slot": "1",
								"type": "t_address_payable"
							},
							{
								"astId": 40,
								"contract": "contracts/SafeClub.sol:SafeClub",
								"label": "amount",
								"offset": 0,
								"slot": "2",
								"type": "t_uint256"
							},
							{
								"astId": 42,
								"contract": "contracts/SafeClub.sol:SafeClub",
								"label": "description",
								"offset": 0,
								"slot": "3",
								"type": "t_string_storage"
							},
							{
								"astId": 44,
								"contract": "contracts/SafeClub.sol:SafeClub",
								"label": "deadline",
								"offset": 0,
								"slot": "4",
								"type": "t_uint256"
							},
							{
								"astId": 46,
								"contract": "contracts/SafeClub.sol:SafeClub",
								"label": "executed",
								"offset": 0,
								"slot": "5",
								"type": "t_bool"
							},
							{
								"astId": 48,
								"contract": "contracts/SafeClub.sol:SafeClub",
								"label": "forVotes",
								"offset": 0,
								"slot": "6",
								"type": "t_uint256"
							},
							{
								"astId": 50,
								"contract": "contracts/SafeClub.sol:SafeClub",
								"label": "againstVotes",
								"offset": 0,
								"slot": "7",
								"type": "t_uint256"
							},
							{
								"astId": 54,
								"contract": "contracts/SafeClub.sol:SafeClub",
								"label": "voted",
								"offset": 0,
								"slot": "8",
								"type": "t_mapping(t_address,t_bool)"
							}
						],
						"numberOfBytes": "288"
					},
					"t_uint256": {
						"encoding": "inplace",
						"label": "uint256",
						"numberOfBytes": "32"
					}
				}
			},
			"userdoc": {
				"kind": "user",
				"methods": {},
				"version": 1
			}
		}
	}
}